:100000000C947A000C949B000C949B000C949B0025
:100010000C949B000C949B000C949B000C949B00F4
:100020000C949B000C949B000C949B000C949B00E4
:100030000C949B000C949B000C949B000C949B00D4
:100040000C949B000C9438030C949B000C949B0024
:100050000C949B000C94CB030C949B000C949B0081
:100060000C949B000C949B000C949B000C949B00A4
:100070000C949B000C949B000C949B000C949B0094
:100080000C949B000C949B000C949B000C949B0084
:100090000C949B000C949B000C949B000C949B0074
:1000A0000C949B000C949B000C949B000C949B0064
:1000B0000C949B000C949B000C949B000C949B0054
:1000C0000C949B000C949B000C949B000C949B0044
:1000D0000C949B000C949B000C949B000C949B0034
:1000E0000C949B000C949D000C949E000C94AE0408
:1000F0000C94BF0011241FBECFEFD1E2DEBFCDBFF5
:1001000000E00CBF13E0A0E0B2E0E2EAF1E300E0BF
:100110000BBF02C007900D92AC3CB107D9F725E0A8
:10012000ACECB3E001C01D92A03FB207E1F70E9422
:10013000F0130C94CF180C940000FFCFEC018881D1
:1001400099810B8110E0292F33270217130791F0B3
:100150009C012F5F3F4F398328838C0F9D1FFC012B
:1001600084858093B400888199818115924010F034
:100170001982188281E090E00E940604E0CFCF93BC
:10018000DF931F921F92CDB7DEB77C011A821982CE
:100190005C0184EFA81A8DEFB80A3701E6E06E0E15
:1001A000711C4701FCE08F0E911C412C5524539487
:1001B00089E0E6E0F2E0D50101900D928A95E1F741
:1001C000A301B501CE0101960E947412F7012285A8
:1001D000338550E040E084010E941113F7018285CD
:1001E000938501969387828753824282982F88272E
:1001F000B0E0A0E04681578160857185841795073E
:10020000A607B707D8F40E941808882331F00E9487
:100210001E08803721F18E3671F10E945F04F701CC
:10022000D284C12CA60170E060E086819781A08510
:10023000B185481759076A077B0728F3F7018481BE
:10024000958101969583848302C00E945F04F70123
:10025000808191818F3F9105C1F3B8F3A9CF898146
:100260009A8101979A838983F70184819581019707
:1002700095838483ECCF89819A8101969A838983BF
:10028000DDCF2CE033E0FC01A90111924150504038
:10029000E1F70895CF93DF93EC016EE185E20E94D0
:1002A000490B80E20E94800B8FE092E00E943308AD
:1002B000CE01845F9D4F0E9433086EE186E20E946A
:1002C000490B80E20E94800B87E192E00E94330894
:1002D0002A853B85A3E8BEEB0E94B1140024880F59
:1002E000991F001C880F991F001C892F902D0E94B8
:1002F000A0086EE187E20E94490B81E20E94800B18
:1003000087E192E00E9433082A853B85A3E8BEEB93
:100310000E94B1140024880F991F001C880F991F98
:10032000001C892F902D0E94A0086EE188E20E9497
:10033000490B80E20E94800B83E292E00E94330826
:100340006E817F818885998520EF35E540E050E01A
:100350000E948F14C9010E94A0086EE189E20E94E8
:10036000490B80E20E94800B81E392E00E943308F7
:100370008C819D810E94A0086EE18AE20E94490B57
:1003800080E20E94800B8BE50E9427082A853B852E
:10039000A3E8BEEB0E94B1140024880F991F001C33
:1003A000880F991F001C892F902D22E3289FB001F0
:1003B000299F700D112490E080E02E813F814885B7
:1003C00059850E948F14203F354541055105A8F0FD
:1003D00083E20E94270881E20E94800BC2E0D0E005
:1003E0008FE50E9427082196CE010197C297C0F39E
:1003F0008DE5DF91CF910C94270881E20E94800B5C
:10040000C1E0D0E0EDCFEC018091D1039091D20317
:100410000E947107CE010E944A0160E08CE20E94B6
:10042000490B8CE392E00E94330883ED93E00E9435
:10043000330885E492E00E9433080E945F04E4CF11
:10044000CF92DF92EF92FF920F931F93CF93DF93A0
:100450008B016A017901C091D103D091D203FE01D1
:10046000E757FF4F208131E1239FC00DD11D11249B
:10047000FE01819391936A831183C7018D960E9437
:10048000CB149F838E83FC01EE0DFF1DCF018D9653
:10049000998788877796FD83EC8381E08A871B861E
:1004A0001C861D861E861F86188A80E1DF011D922C
:1004B0008A95E9F78EEA94E0858B948B138A028BF8
:1004C000118BC08AD786E091D103F091D203E75710
:1004D000FF4F80818F5F8083DF91CF911F910F91BC
:1004E000FF90EF90DF90CF9008951F93CF93DF930D
:1004F000E091D103F091D203DF01A757BF4F8C9158
:10050000882341F19F0191E1899F200D311D112424
:10051000EF01C257DF4F11E004C07196E217F307F5
:10052000C9F082858230C9F745855685678570890F
:1005300088819981AA81BB8184179507A607B7078F
:1005400060F3158616861786108A12877196E21751
:10055000F30739F7DF91CF911F910895FF920F9321
:100560001F93CF93DF930E9475020091D1031091E6
:10057000D203F801E857FF4F40813196C081D0E0A7
:10058000842F90E00196BE010E947B1491E1F92E28
:1005900007C0C9010196BE010E947B14481751F0A3
:1005A000282F30E0F801F89EE00DF11D112492850E
:1005B000923078F7DF91CF911F910F91FF900895BE
:1005C0002F923F924F925F926F927F928F929F9263
:1005D000AF92BF92CF92DF92EF92FF920F931F9351
:1005E000CF93DF93F0E0EDE52080EEE53080FB0176
:1005F00021923082FC0121903080F0E0EDE52082F4
:10060000EEE53082DF91CF911F910F91FF90EF9037
:10061000DF90CF90BF90AF909F908F907F906F9022
:100620005F904F903F902F900895CF93DF93E0918C
:10063000D103F091D203EF01CD56DF4FDF01AE566B
:10064000BF4F8C9188831C9219978C91882369F0F5
:100650009F0191E1899F200D311D1124838584879D
:1006600013867196E217F307C9F7DF91CF910895CA
:100670001F920F920FB60F9211240BB60F922F9369
:100680003F938F939F93AF93BF93CF93DF93EF935A
:10069000FF93E091D103F091D203EF01C657DF4FF2
:1006A00088819981AA81BB810196A11DB11D888392
:1006B0009983AA83BB832996DF01AE56BF4F8C91E5
:1006C00088831C9219978C91882369F09F0191E18E
:1006D000899F200D311D112483858487138671968F
:1006E000E217F307C9F7FF91EF91DF91CF91BF9127
:1006F000AF919F918F913F912F910F900BBE0F90D3
:100700000FBE0F901F901895E091D103F091D20386
:10071000E857FF4F808190E008952091D1033091F8
:10072000D20341E1682F70E0F901489FE00DF11D0F
:10073000112493859F5F9387F901EE56FF4F9081B7
:100740009F5F90833A979081981721F18083F901F8
:10075000499FE00DF11D11244285411102C041E085
:10076000428741E1469FF001479FF00D1124E20FBF
:10077000F31F1286B901949F600D711D11246C5FE7
:100780007F4FF901849FE00DF11D1124CF010496E4
:100790000E94E00208951F920F920FB60F9211244B
:1007A0000BB60F922F933F934F935F936F937F936B
:1007B0008F939F93AF93BF93EF93FF93E091D103F8
:1007C000F091D203E257FF4F80819181A281B381E2
:1007D0008D96A11DB11D80839183A283B3830E9456
:1007E000AE020E948D03FF91EF91BF91AF919F9157
:1007F0008F917F916F915F914F913F912F910F90CA
:100800000BBE0F900FBE0F901F9018951F93CF93A4
:10081000DF93009721F4DF91CF911F910895F89411
:100820002091D1033091D203F901E857FF4F408165
:1008300011E1F901149FE00DF11D112422573F4FE2
:100840006DE2689FA001699F500D1124E901888124
:100850009981AA81BB81840F951FA11DB11D858738
:100860009687A787B08B82E082870E94AE02409174
:10087000D1035091D203FA01E857FF4F90819817A6
:1008800039F00E948D037894DF91CF911F910895E4
:10089000189F90011124420F531FFA019285923044
:1008A00080F3789401C00000E091D103F091D2036D
:1008B000E20FF31F92859230B0F7F894E2CFF894EC
:1008C0000E94AE020E948D03789408950F931F93A7
:1008D000CF93DF931F921F92CDB7DEB70091D10364
:1008E0001091D20308571F4FF80180818F3F49F0C4
:1008F0000E945F040F900F90DF91CF911F910F9195
:1009000008950E94AE02F80180838091D1039091F6
:10091000D203FC01E857FF4F2081F1E12F9F9001A6
:100920001124FC01E20FF31F128643854F5F4387BA
:10093000FC01EE56FF4F40814F5F40832C5F3F4FDD
:10094000BE016F5F7F4F820F931F0E94E0020F90E6
:100950000F90DF91CF911F910F9108957894F1013D
:10096000C2010994F8948091D1039091D203FC01C3
:10097000E857FF4F208131E1239F800D911D112405
:1009800024E0FC0122870E945F04CF93C82FCB0193
:100990008D960E94CB14E091D103F091D20321E116
:1009A000C29FE00DF11D112497838683CF91089596
:1009B000F894A091D103B091D203FD01E757FF4F06
:1009C000E081F1E1EF9FA00DB11D1124FD018193A4
:1009D000919312966C93129771831696ED91FC91F8
:1009E0001797E20FF31FCF018D9619969C938E9364
:1009F000189777961596FC93EE93149781E01A96C4
:100A00008C931A971B961C921B971C961C921C97F2
:100A10001D961D921D921D921C92509780E1DF0140
:100A20001D928A95E9F78EEA94E0858B948B138A60
:100A3000628B718B408B5787E091D103F091D20389
:100A4000E757FF4F80818F5F808378940895EEE6AB
:100A5000F0E080818260808384B5826084BD85B54A
:100A6000826085BD8AE587BD89E09DE3909389001A
:100A700080938800EFE6F0E0808182608083E1E887
:100A8000F0E080818D6080830895F8940E942705AE
:100A9000F89484E990E00E94CB14FC019093D20377
:100AA0008093D103DC01A857BF4F1C92119681E0BF
:100AB0008C9311961D921D921D921C921397149661
:100AC0001D921D921D921C92139780E792E09183D4
:100AD000808313821282178216828FEF91E29187B0
:100AE00080871582148212861386148615861686D0
:100AF0001786108A14961C9211961C92CF010895A5
:100B0000F8940E942705F89484E990E00E94CB14A1
:100B10009093D2038093D103FC01E857FF4F2FEF4E
:100B200020833196108231961082118212821382B4
:100B3000349610821182128213823496108231967A
:100B400010820895E0EBF0E0808183628083E1EB26
:100B5000F0E0808181608083E1E0F1E08081806469
:100B600080830895FC0110821182138612861586F7
:100B700014860895CF93DF93EC01F8940E948403C8
:100B80009881911107C091E0988389837894DF91CF
:100B9000CF9108952C853D85EA85FB85E20FF31FF3
:100BA000E770FF27EC0FFD1F82832F5F3F4F3D87CC
:100BB0002C87E091D103F091D20391E1899FE00D60
:100BC000F11D112483E08287DF91CF910C945F04A3
:100BD000FC01F89484859585009721F41082118298
:100BE0007894089522853385DF01A20FB31F1296F2
:100BF0004C912F5F3F4F2770332733872287019710
:100C0000958784874183E091D103F091D20381E1FC
:100C1000489FE00DF11D112481E0828778940895AA
:100C2000FC01608312861186148613860895CF9383
:100C3000DF93EC01F8948881181634F4815088838E
:100C40007894DF91CF910895815088830E94840326
:100C50002B853C85E985FA85E20FF31FE770FF27B6
:100C6000EC0FFD1F81832F5F3F4F3C872B87E09167
:100C7000D103F091D20391E1899FE00DF11D112480
:100C800083E08287DF91CF910C945F04FC01F8949C
:100C900090819F5F9083191614F4789408952385AA
:100CA000348521153105C9F381859285DF01A80FAF
:100CB000B91F11964C910196877099279287818769
:100CC0002150310934872387E091D103F091D20379
:100CD00081E1489FE00DF11D112481E08287789425
:100CE0000895FC01F89490819F5F9083191614F485
:100CF000789408952385348521153105C9F34185FC
:100D00005285DF01A40FB51F11968C914F5F5F4F85
:100D100047705527528741872150310934872387EF
:100D20000E948D0378940895FF920F931F93CF93A1
:100D3000DF93F82E162F042FE9018091D3059091AF
:100D4000D4050E94BA058F2D0E94800B602F812F41
:100D50000E94490BCE010E9433088091D3059091E7
:100D6000D405DF91CF911F910F91FF900C94E8056E
:100D70008F929F92AF92BF92CF92DF92EF92FF92AB
:100D80000F931F93CF93DF93CDB7DEB761970FB665
:100D9000F894DEBF0FBECDBF89829A82CD82DE82FB
:100DA000EF82F88609871A872B874D875E876F87C2
:100DB000788B898B09851A858FE10E94800B85E7E6
:100DC00092E00E9433088BE50E94800B89819A8112
:100DD0000E94330881E20E94800B8DE792E00E941E
:100DE00033088DE50E94800B8D819E819801281B20
:100DF000390BC9010E94A00882E20E94800B8EE894
:100E000092E00E9433088EE50E94800B8F819885C6
:100E10009801281B390BC9010E94A00883E20E9497
:100E2000800B8FE10E94800B8EE992E00E943308D4
:100E30008BE50E94800B8B85813009F44DC008F44E
:100E400046C08230D1F18330E9F581EE92E00E9414
:100E5000330880E20E94800B81E093E00E94330817
:100E60008CE50E94800B6E857F85888999890E9418
:100E7000F70981E20E94800B82E193E00E9433082F
:100E80008DE50E94800B8D8590E00E94DF0888E749
:100E900093E061960FB6F894DEBF0FBECDBFDF9131
:100EA000CF911F910F91FF90EF90DF90CF90BF9067
:100EB000AF909F908F900C94330881ED92E00E9448
:100EC0003308C7CF81EF92E00E943308C2CF81EB95
:100ED00092E00E943308BDCF81EC92E00E9433087B
:100EE000B8CF4F925F926F927F928F929F92AF9204
:100EF000BF92CF92DF92EF92FF920F931F93CF9307
:100F0000DF93EC0161E081E00E94490B84E20E94E2
:100F1000800B88E293E00E94330884E393E00E9410
:100F20003308FE01E657FF4F608171818281938112
:100F30000E94770982E493E00E943308FE01E257A1
:100F4000FF4F60817181828193810E94770987E4DC
:100F500093E00E9433088BE493E00E9433083E0143
:100F600089E8680E711CF301808190E00E94A0085E
:100F700081E693E00E943308FE01ED56FF4F808129
:100F800090E00E94DF0886E793E00E943308F301B7
:100F90008081882371F1512C81E1482E84E20E94E6
:100FA000800B8BE793E00E943308052D10E0C80109
:100FB0000E94A008409EF001419EF00D1124EC0F0C
:100FC000FD1F80809180A280B380C480D580E680A0
:100FD000F780008511852285338544855585668592
:100FE000778580890E94B8065394F3018081581652
:100FF000A8F2DF91CF911F910F91FF90EF90DF90BA
:10100000CF90BF90AF909F908F907F906F905F90A8
:101010004F90089582E08093C0001092C50080E157
:101020008093C400E1ECF0E08081886180830895C2
:101030008091C000881F8827881F08958091C00074
:1010400087FF03C08091C60008958FEF08959091A7
:10105000C10095FDFCCF9091C00095FFF8CF809323
:10106000C60081E00895DC012C91222399F0FC0157
:1010700031969091C10095FDFCCF9091C00095FFF5
:10108000F8CF2093C600CF018A1B9B0B2191211121
:10109000F0CF089590E080E00895FC019091C100A8
:1010A00095FDFCCF8091C00085FFF8CF8BE1809348
:1010B000C6009091C10095FDFCCF8091C00085FFD6
:1010C000F8CF8BE58093C6002081222371F0319602
:1010D0009091C10095FDFCCF9091C00095FFF8CF95
:1010E0002093C60021912111F3CF08950F931F93F0
:1010F000CF93DF93382F292FC5E0D0E0E0E1F7E26E
:101100000AE010E0832F922FBF010E946714605DF8
:101110002091C10025FDFCCF2091C00025FFF8CF14
:101120006093C600382F292FCF01B8010E947B148D
:10113000FB01219739F7DF91CF911F910F9108950E
:101140000F931F93CF93DF939C01C5E0D0E0E0E1C4
:10115000F7E20AE010E0C901BF010E946714672BA3
:1011600081F4E130F10569F09C01CF01B8010E94E2
:101170007B14FB01219779F7DF91CF911F910F919C
:101180000895CAE0D0E0C901BF010E946714605D04
:101190002091C10025FDFCCF2091C00025FFF8CF94
:1011A0006093C6009C01CF01BE010E947B14FB012D
:1011B000309749F7DF91CF911F910F9108950F93C9
:1011C0001F93CF93DF939C01C5E0D0E0E0E1F7E20D
:1011D00040E20AE010E0C901BF010E946714672BDA
:1011E000D1F4E130F105B9F02091C10025FDFCCF2B
:1011F0002091C00025FFF8CF4093C6009C01CF018D
:10120000B8010E947B14FB01219729F7DF91CF9150
:101210001F910F910895CAE0D0E0C901BF010E945B
:101220006714605D2091C10025FDFCCF2091C000B6
:1012300025FFF8CF6093C6009C01CF01BE010E943C
:101240007B14FB01309749F7DF91CF911F910F91EC
:1012500008956F927F928F929F92AF92BF92CF929A
:10126000DF92EF92FF920F931F93CF93DF933B0197
:10127000D82FC92F0AE010E0C12C8AECD82E8AE9B9
:10128000E82E8BE3F82E9AE0892E912CA12CB12C1C
:10129000B3018D2F9C2FA70196010E948F14205D12
:1012A0003091C10035FDFCCF3091C00035FFF8CF43
:1012B0002093C6003B01D82FC92FC701B601A50155
:1012C00094010E948F1469017A010150110901F7FC
:1012D000DF91CF911F910F91FF90EF90DF90CF9012
:1012E000BF90AF909F908F907F906F9008954F9296
:1012F0005F926F927F928F929F92AF92BF92CF92A6
:10130000DF92EF92FF920F931F93CF93DF93C62F3D
:10131000172F082FD92F9AE0A92EB12CC12C2AEC17
:10132000D22E2AE9E22E2BE3F22E3AE0432E512C64
:10133000612C712C6C2F712F802F9D2FA70196018E
:101340000E948F14232B242B252B39F521E0C21664
:10135000D104E104F10409F1C62F172F082FD92F6A
:10136000C701B601A30192010E948F1469017A019D
:1013700081E0A81AB108F1F6DF91CF911F910F918A
:10138000FF90EF90DF90CF90BF90AF909F908F90A5
:101390007F906F905F904F9008958AE0882E912CF7
:1013A000A12CB12C6C2F712F802F9D2FA70196019E
:1013B0000E948F14205D3091C10035FDFCCF30912B
:1013C000C00035FFF8CF2093C600C62F172F082F77
:1013D000D92FC701B601A50194010E948F1469019C
:1013E0007A01C114D104E104F104E1F6C5CF4F92B2
:1013F0005F926F927F928F929F92AF92BF92CF92A5
:10140000DF92EF92FF920F931F93CF93DF93EB0145
:10141000182F092F9AE0A92EB12CC12C2AECD22E1C
:101420002AE9E22E2BE3F22E30E2932E4AE0442EFC
:10143000512C612C712CBE01812F902FA701960198
:101440000E948F14232B242B252B81F521E0C2161B
:10145000D104E104F10451F12091C10025FDFCCF3C
:101460002091C00025FFF8CF9092C600EB01182F05
:10147000092FC701B601A30192010E948F146901CF
:101480007A0181E0A81AB108B1F6DF91CF911F91DE
:101490000F91FF90EF90DF90CF90BF90AF909F9013
:1014A0008F907F906F905F904F9008958AE0882E84
:1014B000912CA12CB12CBE01812F902FA701960158
:1014C0000E948F14205D3091C10035FDFCCF30911A
:1014D000C00035FFF8CF2093C600EB01182F092F6D
:1014E000C701B601A50194010E948F1469017A0118
:1014F000C114D104E104F104F1F6C7CFBC0144E00A
:101500009B01232F332722952F702A303105A0F419
:10151000205D9091C10095FDFCCF9091C00095FF9A
:10152000F8CF2093C60062957295707F7627607F12
:101530007627415029F70895295C9091C10095FDC7
:10154000FCCF9091C00095FFF8CFEBCFBC01EAE84B
:10155000F3E020E39091C10095FDFCCF9091C00095
:1015600095FFF8CF2093C60021912111F3CF44E0DD
:1015700080E09B01232F332722952F7081110EC00D
:101580002115310559F4413039F162957295707F1A
:101590007627607F7627415061F70895822F2A30A1
:1015A000310568F4805D9091C10095FDFCCF90916C
:1015B000C00095FFF8CF8093C60081E0E6CF295C9C
:1015C0009091C10095FDFCCF9091C00095FFF8CFA0
:1015D0002093C60081E0D9CF80E0E4CFAB01BC010D
:1015E000EAE8F3E090E38091C10085FDFCCF8091B3
:1015F000C00085FFF8CF9093C60091919111F3CF71
:1016000028E030E018C00097A105B105F9F42130B9
:1016100089F1440F551F661F771F440F551F661F22
:10162000771F440F551F661F771F440F551F661FF6
:10163000771F215069F1DB01CA01ECE1B695A7954E
:1016400097958795EA95D1F73323E9F2382F8A30B9
:101650009105A105B10578F097E3980F8091C1003D
:1016600085FDFCCF8091C00085FFF8CF9093C60028
:1016700031E0CFCF30E0305D8091C10085FDFCCFFF
:101680008091C00085FFF8CF3093C60031E0C1CF14
:101690000895CF93C62F9091C10095FDFCCF9091F6
:1016A000C00095FFF8CF9BE19093C6009091C100D8
:1016B00095FDFCCF9091C00095FFF8CF9BE59093EE
:1016C000C60090E00E94A0088091C10085FDFCCF7B
:1016D0008091C00085FFF8CF8BE38093C6008C2FEC
:1016E00090E00E94A0088091C10085FDFCCF809110
:1016F000C00085FFF8CF86E68093C600CF9108959D
:101700009091C10095FDFCCF9091C00095FFF8CF5E
:101710009BE19093C6009091C10095FDFCCF909104
:10172000C00095FFF8CF9BE59093C60090E00E9423
:10173000A0088091C10085FDFCCF8091C00085FF8D
:10174000F8CF8DE68093C60008958091C10085FD95
:10175000FCCF8091C00085FFF8CF8BE18093C6005D
:101760008091C10085FDFCCF8091C00085FFF8CF3E
:101770008BE58093C6008091C10085FDFCCF8091F0
:10178000C00085FFF8CF82E38093C6008091C1003E
:1017900085FDFCCF8091C00085FFF8CF8AE480935F
:1017A000C60061E081E00C94490B8091C10085FD89
:1017B000FCCF8091C00085FFF8CF8BE18093C600FD
:1017C0008091C10085FDFCCF8091C00085FFF8CFDE
:1017D0008BE58093C6008091C10085FDFCCF809190
:1017E000C00085FFF8CF88E48093C60008950F936A
:1017F0001F93CF93DF938A01E9010E94490BF801FF
:1018000090819923E9F031968091C10085FDFCCF4C
:101810008091C00085FFF8CF9093C6009F01201BE8
:10182000310B91919111F0CF89010B5F1F4FCE01C8
:101830000E94DF08C801DF91CF911F910F91089599
:1018400005E010E0F4CF0F931F93CF93DF938A014D
:10185000E9010E94490BF80190819923F9F0319632
:101860008091C10085FDFCCF8091C00085FFF8CF3D
:101870009093C6009F01201B310B91919111F0CFE5
:101880008901065F1F4FBE0190E080E00E94F709CA
:10189000C801DF91CF911F910F9108950AE010E0E8
:1018A000F2CF8FEF8EBD8091DA059091DB059C0120
:1018B0002F5F3F4F3093DB052093DA058130924054
:1018C00098F44FEF0DB407FEFDCF4EBD8091DA05C1
:1018D0009091DB059C012F5F3F4F3093DB052093F8
:1018E000DA058130924070F30DB407FEFDCF289ADF
:1018F0008FEF8EBD0DB407FEFDCF1092CE0308957D
:101900008093D00308958093D0036093CF0308950C
:10191000CF93C82F8091CE0381110E94510CC093A8
:10192000CD03CF9108958091CC0308958093CC038B
:101930000895CF92DF92EF92FF92CF93C82F6A0162
:101940007B018091CE0381110E94510C289888EC74
:1019500097E9A4E0B0E03FEF3EBD0DB407FEFDCF38
:101960002EB52F3F41F02AE02A95F1F700C00197EC
:10197000A109B10989F78C2F80648EBD0DB407FED3
:10198000FDCF88E190E0B701A601082E04C076954E
:101990006795579547950A94D2F74EBD0DB407FE4B
:1019A000FDCF0897883F2FEF920769F785E9CC2391
:1019B00019F087E8C830B9F48EBD0DB407FEFDCF2D
:1019C00090E02FEF2EBD0DB407FEFDCF8EB587FF43
:1019D00004C09F3F11F09F5FF5CFCF91FF90EF9034
:1019E000DF90CF9008958FEFE7CF8F929F92AF92C5
:1019F000BF92EF92FF920F931F93CF93DF93EA0171
:101A000079012091CE03222371F08090D605909029
:101A1000D705A090D805B090D90586169706A806D8
:101A2000B90609F44BC06093D6057093D70580932F
:101A3000D8059093D9052091CC03233039F029E0C3
:101A4000660F771F881F991F2A95D1F7AB01BC013C
:101A500081E10E94990C48EC57E964E070E02FEFB7
:101A6000811114C02EBD0DB407FEFDCF9EB59F3F62
:101A7000E1F49AE09A95F1F700C0415051096109EB
:101A8000710981F79DE09093D00304C083E08093B7
:101A9000D00380E0DF91CF911F910F91FF90EF90E5
:101AA000BF90AF909F908F9008959E3F09F45FC0C4
:101AB00020E12093D0039093CF03ECCF2091DA055F
:101AC0003091DB054217530708F4ADCF8FEF8EBD81
:101AD0008091DA059091DB058C179D0788F42FEF34
:101AE0000DB407FEFDCF2EBD8091DA059091DB0588
:101AF00001969093DB058093DA058C179D0780F3A0
:101B0000A8014150510981F0F70198012E0D3F1DA8
:101B1000215031099FEF0DB407FEFDCF8EB58193A3
:101B20009EBDE217F307B9F70DB407FEFDCF8EB5E2
:101B3000F701E40FF51F80838091DA059091DB05B2
:101B4000080F191F1093DB050093DA058091CD0370
:101B5000882319F00115124020F08091CE038111E5
:101B600002C081E097CF0E94510C81E093CF109288
:101B7000DB051092DA0581E08093CE03A7CF0F93A7
:101B80001F939A0100E012E050E040E00E94F50C43
:101B90001F910F910895CF92DF92EF92FF921F93C2
:101BA000CF93DF93182F209A289A229A219A83E5BF
:101BB0008CBD8AE090E02FEF2EBD0DB407FEFDCF67
:101BC0000197D1F7289881E092E02FEF2EBD0DB458
:101BD00007FEFDCF3EB50197C9F7DBE040E050E0DE
:101BE000BA0180E00E94990CC82F813089F0D15051
:101BF000A9F781E08093D003C093CF03C0E08C2F7E
:101C0000DF91CF911F91FF90EF90DF90CF900895DB
:101C10004AEA51E060E070E088E00E94990C81306F
:101C200009F440C082FF51C0C093CC0388E6C82E9F
:101C300088E8D82E8EE1E82EF12C07C081E0C81A82
:101C4000D108E108F10809F462C08AE08A95F1F749
:101C500000C040E050E0BA0187E30E94990C8091F7
:101C6000CC0340E050E0BA01823021F440E050E083
:101C700060E070E489E20E94990C8111DFCF8091CD
:101C8000CC03823041F18CB58C7F8CBD111103C027
:101C90008DB581608DBD289A8FEF8EBD0DB407FE86
:101CA000FDCFADCF84E090E03FEF3EBD0DB407FE29
:101CB000FDCF2EB50197C9F72A3A71F189E08093DB
:101CC000D0032093CF03C0E09ACF92E09093D0034B
:101CD0008093CF03ABCF40E050E0BA018AE30E948B
:101CE000990C811121C08FEF8EBD0DB407FEFDCF81
:101CF0008EB5807C803CA1F083E090E02FEF2EBD7C
:101D00000DB407FEFDCF3EB50197C9F7BCCF86E005
:101D10008093D003C0E073CF82E08093CC0386CF62
:101D200083E08093CC03E8CF85E08093D003C0E0CC
:101D300066CF0F931F930115110579F0F801E40F99
:101D4000F51FE130F24028F40E94F50C1F910F912D
:101D5000089580E01F910F91089581E01F910F91E8
:101D600008958091CE0381110C94510C0895CF9366
:101D7000DF93D62FC72F40E050E0BA010E94990CA4
:101D800048EC57E964E070E02FEF811114C02EBDDC
:101D90000DB407FEFDCF9EB59F3FA1F49AE09A9542
:101DA000F1F700C0415051096109710981F79DE0C7
:101DB0009093D00304C088E08093D00380E0DF914B
:101DC000CF9108959E3F41F020E12093D00390935E
:101DD000CF03DF91CF910895ED2FFC2F9F01205F5E
:101DE0003F4F9FEF9EBD0DB407FEFDCF8EB5819393
:101DF000E217F307B9F78FEF8EBD0DB407FEFDCFE5
:101E00008EB58FEF8EBD0DB407FEFDCF8EB5289A2F
:101E10008FEF8EBD0DB407FEFDCF81E0DF91CF9136
:101E200008950F931F93CF93DF93CDB7DEB76097DD
:101E30000FB6F894DEBF0FBECDBFBE016F5F7F4F00
:101E400089E00E94B70E882309F447C08981807C0D
:101E5000A1F0803409F445C087E08093D00360E0AE
:101E600070E0CB0160960FB6F894DEBF0FBECDBF19
:101E7000DF91CF911F910F9108956F81637070E092
:101E8000762F6627770F770F888590E0880F991F48
:101E9000880F991F682B792B898582958695869561
:101EA0008370682B6F5F7F4F90E080E02A852370FE
:101EB000220F3B8537FB332730F9232B3E813F70C0
:101EC000230F3327331F2750310904C0660F771FB4
:101ED000881F991F2A95D2F7C5CF60E070E0CB012B
:101EE000C1CF68856695669570E090E080E0CB0193
:101EF000772766272A85622B098510E0102F002797
:101F0000012E000C220B330B602B712B822B932B99
:101F10006F5F7F4F8F4F9F4F4AE0660F771F881F7D
:101F2000991F4A95D1F79ECF4F925F926F927F9201
:101F30008F929F92AF92BF92CF92DF92EF92FF92D9
:101F4000CF93C12CD12C7601CFEF28EE422E23E087
:101F5000522E612C712C4C01B12CA12CCEBD0DB494
:101F600007FEFDCF9EB59F3FB1F08FEFC81AD80A8C
:101F7000E80AF80A8AE08A95F1F700C0C701B601BD
:101F8000A30192010E948F1482169306A406B5063F
:101F900028F780E001C081E0CF91FF90EF90DF90C3
:101FA000CF90BF90AF909F908F907F906F905F90F9
:101FB0004F90089588EC97E9A4E0B0E03FEF3EBD74
:101FC0000DB407FEFDCF2EB52F3F69F42AE02A9508
:101FD000F1F700C00197A109B10989F78DE080935D
:101FE000D00380E008952E3F39F080E18093D00344
:101FF0002093CF0380E0089581E00895BC0189E03B
:102000000C94B70EBC018AE00C94B70E4F925F920D
:102010006F927F92AF92BF92CF92DF92EF92FF9238
:102020000F931F93CF93DF936A0159017801C0E0AA
:10203000D2E0C41BD50B2B013C01440C551C661C83
:10204000771C8E01EC16FD0608F487019501A601A8
:10205000C301B2010E94990ECE15DF0578F0DF9121
:10206000CF911F910F91FF90EF90DF90CF90BF9095
:10207000AF907F906F905F904F90089587011250BE
:102080000C0D1D1D95012C0F3D1FC301B2016F5F8B
:102090007F4F8F4F9F4F50E040E00E94990EDFCF5F
:1020A0000F931F934115A2E05A0728F40E940610CF
:1020B0001F910F910895F8010130124078F451708A
:1020C000660F771F881F991F6F5F7F4F8F4F9F4F3E
:1020D0008F010E94990E1F910F910895E0E0F2E0A8
:1020E000EECF0F931F93CF93DF93CDB7DEB7C455D9
:1020F000D1090FB6F894DEBF0FBECDBF9E012F5F92
:102100003F4F84E5F90111928A95E9F704E510E063
:1021100050E040E061E070E080E090E00E94061056
:1021200080E094E0098C02C0880F991F0A94E2F7BE
:10213000092E000CAA0BBB0B8093E4059093E505D8
:10214000A093E605B093E70589A19AA1ABA1BCA134
:102150008093E8059093E905A093EA05B093EB0519
:1021600089A59AA5ABA5BCA58093E0059093E10550
:10217000A093E205B093E305CC5ADF4F0FB6F89475
:10218000DEBF0FBECDBFDF91CF911F910F9108959C
:102190000F931F93CF93DF93CDB7DEB7A0970FB602
:1021A000F894DEBF0FBECDBF00E210E09E012F5FAE
:1021B0003F4F50E040E062E070E080E090E00E943D
:1021C000061089859A85AB85BC858093DC05909344
:1021D000DD05A093DE05B093DF05A0960FB6F89459
:1021E000DEBF0FBECDBFDF91CF911F910F9108953C
:1021F0004F925F926F927F928F929F92AF92BF9217
:10220000CF92DF92EF92FF920F931F93CF93DF93C2
:10221000EA0161507109810991092091E00530912D
:10222000E1054091E2055091E3050E948F14690198
:102230007A01660F771F881F991F660F771F881F07
:10224000991F660F771F881F991F660F771F881FBA
:10225000991F660F771F881F991F660F771F881FAA
:10226000991F660F771F881F991F2091E4053091F1
:10227000E5054091E6055091E7050E948F1429017C
:102280003A014B016091E8057091E9058091EA05FA
:102290009091EB05A70196010E945714C090DC05B0
:1022A000D090DD05E090DE05F090DF056C0D7D1D22
:1022B0008E1D9F1D640D751D861D971D00E810E085
:1022C0009E01A4010E945010DF91CF911F910F91A8
:1022D000FF90EF90DF90CF90BF90AF909F908F9046
:1022E0007F906F905F904F9008952F923F924F9202
:1022F0005F926F927F928F929F92AF92BF92CF9296
:10230000DF92EF92FF920F931F93CF93DF93CDB79E
:10231000DEB7C258D4400FB6F894DEBF0FBECDBFB3
:102320005A016901CF57DB4F19830883C158D44044
:1023300017010091E4051091E5059E012F5F3F4FC5
:10234000490150E040E00E94061010E000E0F80172
:10235000E480F580280148185908FF92EF92809197
:10236000E7058F938091E6058F938091E5058F9324
:102370008091E4058F935F924F928CE893E09F9356
:102380008F93CE57DB4FF881C258D440FF93CF577D
:10239000DB4F2881C158D4402F930E94F915C20108
:1023A000550CAA0BBB0B0FB6F894DEBF0FBECDBF0A
:1023B0004091E4055091E5056091E6057091E705CF
:1023C00084179507A607B70708F071C0E114F10458
:1023D00009F46DC0F501808191811AC00196F50163
:1023E000918380830E0D1F1D280148185908052C64
:1023F000000C66087708441655066606770608F04E
:1024000056C0F801E480F580E114F10409F44FC0EE
:10241000F601208131812817390701F7F801608121
:10242000718182819381AE014F5F5B4F0E94F810F2
:10243000CF5FDB4F88819981C150D44097FD12C096
:10244000F60180819181019691838083F5018081DD
:1024500091814091E4055091E5056091E605709108
:10246000E705BCCFCB5FDB4F88819981AA81BB8117
:10247000C550D440F10180839183A283B383F801D6
:10248000E680F780B801685F7F4FA701CF57DB4F29
:1024900088819981C158D4400E94F015CF57DB4FF5
:1024A000E881F981C158D440EE0DFF1D108260E033
:1024B00070E0CB01CE57DB4F0FB6F894DEBF0FBEF6
:1024C000CDBFDF91CF911F910F91FF90EF90DF90E3
:1024D000CF90BF90AF909F908F907F906F905F90C4
:1024E0004F903F902F9008954F925F926F927F92FE
:1024F0008F929F92AF92BF92CF92DF92EF92FF9214
:102500000F931F93CF93DF93CDB7DEB7C258D10996
:102510000FB6F894DEBF0FBECDBF5C014B013A0190
:102520000E9471100E94C810AE014F5F5F4F62E0C1
:1025300070E080E090E00E94F81060E080E00E948F
:10254000490B82EA93E00E9433088D819E810E94AC
:10255000A0088EEA93E00E94330889819A810E9444
:10256000A0088CEB93E00E94330889A59AA50E94ED
:10257000A0088D819E81AF81B885892B8A2B8B2BFA
:1025800009F44BC0D12CC12C81E090E08C0F9D1F31
:1025900088962C0117C0FFEFCF1ADF0A2091E405BF
:1025A0003091E5054091E6055091E705D6010E947E
:1025B000C0140D811E812F81388560177107820735
:1025C000930758F5F20161917191819191912F01D9
:1025D000730184019501AE014F575F4F0E94751141
:1025E0006115710581059105B1F2CE57DF4F0FB628
:1025F000F894DEBF0FBECDBFDF91CF911F910F9139
:10260000FF90EF90DF90CF90BF90AF909F908F9012
:102610007F906F905F904F90089560E070E0CB01E5
:10262000E4CF4F925F926F927F928F929F92AF9280
:10263000BF92CF92DF92EF92FF920F931F93CF93AF
:10264000DF93CDB7DEB7C458D1400FB6F894DEBFE4
:102650000FBECDBF49015A01AE014F5F5E4F0E94D0
:10266000F8104424582C692C7A2C740141E0E4229F
:10267000FF24FE2CEE24E00EF11E640153E0C5227F
:10268000DD24D501C401B695A79597958795B69594
:10269000A79597958795CF57DE4F88839983AA830F
:1026A000BB83C158D14090E389169104A104B104C1
:1026B00008F461C00091E4051091E505C75ADE4FAA
:1026C000688179818A819B81C955D1409E012F5FA4
:1026D0003F4F50E040E00E940610CB5FDE4F088184
:1026E00019812A813B81C550D1408091E4059091A8
:1026F000E505A091E605B091E7050419150926093D
:10270000370980179107A207B30798F1CF57DE4F1B
:1027100088819981AA81BB81C158D1400C97A109B8
:10272000B109E1E0F0E0EC0FFD1F8E0F9F1FDC010F
:102730006C9170E090E080E0970140E05C2D0E9499
:102740005010CC57DE4F0FB6F894DEBF0FBECDBF92
:10275000DF91CF911F910F91FF90EF90DF90CF907D
:10276000BF90AF909F908F907F906F905F904F90B1
:1027700008958C01CBCFCB5FDE4F088119812A8170
:102780003B81C550D1408091E4059091E505A09131
:10279000E605B091E70504191509260937098017E0
:1027A0009107A207B30708F48C01CF57DE4FE881E9
:1027B000F981C158D1403A96EE0FFF1FEE0FFF1F6F
:1027C000A1E0B1E0AC0FBD1FEA0FFB1F608171817A
:1027D00082819381970140E05C2D0E945010B1CF1F
:1027E0000F931F93CF93DF93CDB7DEB7CC50D34079
:1027F0000FB6F894DEBF0FBECDBF0E940A080E943C
:10280000A50B81E00E94CB0D811114C087E492E0FA
:102810000E94330810E000E080E00E9427080F5F6C
:102820001F4F003127E21207B9F781E00E94CB0D5C
:10283000882361F38E010F5F1F4F8CE093E0F80156
:102840009C01119221503040E1F70E94A2050E94A4
:1028500080059093D2038093D10325E030E0A80156
:102860006EE970E08BE592E00E94200224EC39E0F2
:10287000A8016FEB70E084E692E00E94200225E060
:1028800030E050E040E06DE970E08BE692E00E94BD
:1028900020020E946604C45FDC4F0FB6F894DEBFCE
:1028A0000FBECDBFDF91CF911F910F910895DB0136
:1028B0008F939F930E94C014BF91AF91A29F800DF0
:1028C000911DA39F900DB29F900D11240895AA1BF6
:1028D000BB1B51E107C0AA1FBB1FA617B70710F00B
:1028E000A61BB70B881F991F5A95A9F7809590953D
:1028F000BC01CD01089597FB072E16F4009407D074
:1029000077FD09D00E94671407FC05D03EF490952E
:1029100081959F4F0895709561957F4F0895A1E22D
:102920001A2EAA1BBB1BFD010DC0AA1FBB1FEE1F49
:10293000FF1FA217B307E407F50720F0A21BB30B94
:10294000E40BF50B661F771F881F991F1A9469F710
:1029500060957095809590959B01AC01BD01CF016C
:102960000895A29FB001B39FC001A39F700D811D68
:102970001124911DB29F700D811D1124911D089588
:102980000E94B114A59F900DB49F900DA49F800D3F
:10299000911D112408950F931F93CF93DF938230DD
:1029A000910510F482E090E0E091EE05F091EF05E2
:1029B00030E020E0B0E0A0E0309799F42115310537
:1029C00009F44AC0281B390B24303105D8F58A8117
:1029D0009B816115710589F1FB0193838283FE015F
:1029E00011C0408151810281138148175907E0F0DD
:1029F0004817590799F4109761F012960C931297A3
:102A000013961C933296CF01DF91CF911F910F91B6
:102A100008950093EE051093EF05F4CF21153105CD
:102A200051F04217530738F0A901DB019A01BD01AB
:102A3000DF01F801C1CFEF01F9CF9093EF0580934B
:102A4000EE05CDCFFE01E20FF31F8193919322504B
:102A5000310939832883D7CF2091EC053091ED05DA
:102A6000232B41F420910202309103023093ED05B3
:102A70002093EC05209100023091010221153105CF
:102A800041F42DB73EB74091040250910502241B3A
:102A9000350BE091EC05F091ED05E217F307A0F49A
:102AA0002E1B3F0B2817390778F0AC014E5F5F4FA4
:102AB0002417350748F04E0F5F1F5093ED054093E4
:102AC000EC05819391939FCFF0E0E0E09CCFCF9312
:102AD000DF930097E9F0FC01329713821282A091F4
:102AE000EE05B091EF05ED0130E020E01097A1F484
:102AF00020813181820F931F2091EC053091ED05EB
:102B00002817390709F061C0F093ED05E093EC0553
:102B1000DF91CF910895EA01CE17DF07E8F54A81EA
:102B20005B819E0141155105B1F7E901FB83EA8301
:102B300049915991C40FD51FEC17FD0761F48081AD
:102B400091810296840F951FE90199838883828180
:102B500093819B838A83F0E0E0E012968D919C91B3
:102B600013970097B9F52D913C911197CD010296DD
:102B7000820F931F2091EC053091ED05281739073E
:102B800039F6309751F51092EF051092EE05B0939B
:102B9000ED05A093EC05BCCFD383C2834081518166
:102BA000840F951FC817D90761F44E5F5F4F888166
:102BB0009981480F591F518340838A819B81938358
:102BC00082832115310509F0B0CFF093EF05E09332
:102BD000EE059ECFFD01DC01C0CF13821282D7CF5C
:102BE000FB01DC0102C001900D9241505040D8F72A
:102BF00008950F931F93CF93DF93CDB7DEB72E9732
:102C00000FB6F894DEBF0FBECDBF0E891F8986E0D8
:102C10008C831A8309838FEF9FE79E838D83AE0198
:102C2000465E5F4F688D798DCE0101960E94291610
:102C30002F813885020F131FF80110822E960FB6D0
:102C4000F894DEBF0FBECDBFDF91CF911F910F91E2
:102C500008952F923F924F925F926F927F928F9240
:102C60009F92AF92BF92CF92DF92EF92FF920F931B
:102C70001F93CF93DF9300D000D000D01F921F92FC
:102C8000CDB7DEB77C013B018A01FC0117821682B9
:102C9000838181FFDDC1CE0101965C01F701938143
:102CA000F30193FD859193FF81913F01882309F4FE
:102CB00053C1853239F493FD859193FF81913F0192
:102CC000853229F4B70190E00E944118E7CF912C9A
:102CD000212C312CFFE1F31538F08B3211F190F4F7
:102CE000803209F1833229F137FC3CC020ED280FF6
:102CF0002A3050F536FE20C08AE0989E200D11241F
:102D0000922E06C08D3291F0803371F7689430F8BE
:102D1000F30193FD859193FF81913F018111DACFFA
:102D200021C0689431F8689432F8F2CF689433F88F
:102D3000EFCF689434F8ECCFEAE02E9E200D1124FA
:102D4000222E689435F8E4CF8E3229F436FC04C183
:102D5000689436F8DDCF8C3619F4689437F8D8CFFC
:102D60008836B1F2982F9F7D95549330E0F08336EA
:102D7000A1F18337C1F1833509F063C02801F2E086
:102D80004F0E511CF801C080D180692D70E036FCD7
:102D900002C06FEF7FEFC6010E942B184C016894B0
:102DA00037F882010AC00C5F1F4FFFE3F9838824C4
:102DB0008394912C6501E89437F833FE2DC0522C92
:102DC0008114910471F5552009F468CFB70180E2B0
:102DD00090E00E9441185A94F6CFF80180818983CF
:102DE0000E5F1F4FE4CF2801F2E04F0E511CF80197
:102DF000C080D180692D70E036FC02C06FEF7FEF9C
:102E0000C6010E9436184C018201D5CFB70180E27D
:102E100090E00E9441182A942814190409F0B0F790
:102E2000CECFF60137FC859137FE81916F01B70156
:102E300090E00E94411851105A94F1E08F1A9108C5
:102E4000BFCF843619F0893609F077C0F80137FE14
:102E50006BC060817181828193810C5F1F4FF32D64
:102E6000FF763F2E97FF09C09095809570956195EC
:102E70007F4F8F4F9F4F689437F82AE030E0A501CD
:102E80000E947118C82ECA188C2C432C36FE0CC018
:102E9000E89440F8C91440F434FE05C032FC03C085
:102EA000F32DFE7E4F2E892C44FEAAC0FE01EC0DB0
:102EB000F11D8081803309F09CC0242D297E422E93
:102EC000842D8870582E43FCAAC040FEA4C09C2CC0
:102ED000821418F42C0C922C981844FEA6C0B7014A
:102EE00080E390E00E94411842FE09C088E790E02C
:102EF00041FE02C088E590E0B7010E944118C91464
:102F000008F49FC0CA94D12C9FEFC91AD90ACA0CE1
:102F1000DB1CF60182916F01B70190E00E9441181D
:102F2000AC14BD04B1F74FCF60817181072E000C46
:102F3000880B990B0E5F1F4F92CFD32CE894D4F8D7
:102F40002AE030E08537E1F1232D297FD22E8F361C
:102F5000A9F1F0F4883551F1F701868197812B961C
:102F60000FB6F894DEBF0FBECDBFDF91CF911F919A
:102F70000F91FF90EF90DF90CF90BF90AF909F9018
:102F80008F907F906F905F904F903F902F9008951B
:102F9000803749F0883701F7D4FE02C06894D2F830
:102FA00020E130E00DC06894D4F8F6CF34FE03C0C1
:102FB000822F8660D82E20E132E002C028E030E087
:102FC000F801D7FE0FC060817181828193810C5F0F
:102FD0001F4FA5010E947118C82ECA183D2CE894F5
:102FE00037F852CF6081718190E080E00E5F1F4F13
:102FF000F0CF42FC02C0839463CF8394839460CF6C
:10300000842D867809F45CCFF6CFB70180E290E09A
:103010000E94411883948214C0F3512C5ECF522C2D
:103020005818821408F459CFF8CF842D867809F403
:1030300066CF8BE241FE80E247FC8DE2B70190E073
:103040005CCFB70180E390E00E9441189A9457CF7B
:103050008FEF9FEF84CFFC0105906150704001100D
:10306000D8F7809590958E0F9F1F0895FC016150B1
:10307000704001900110D8F7809590958E0F9F1F9A
:1030800008950F931F93CF93DF93182F092FEB0110
:103090008B8181FD09C01FEF0FEF812F902FDF91F2
:1030A000CF911F910F91089582FF14C02E813F810F
:1030B0008C819D81281739073CF4E881F981CF0183
:1030C00001969983888310838E819F8101969F83C7
:1030D0008E83E3CFE885F985812F1995892BA1F39C
:1030E000DACFFA01AA27283051F1203181F1E89492
:1030F0006F936E7F6E5F7F4F8F4F9F4FAF4FB1E0EB
:103100003ED0B4E03CD0670F781F891F9A1FA11DE5
:10311000680F791F8A1F911DA11D6A0F711D811DE6
:10312000911DA11D20D009F468943F912AE0269FAB
:1031300011243019305D3193DEF6CF010895462F0A
:103140004770405D4193B3E00FD0C9F7F6CF462FEB
:103150004F70405D4A3318F0495D31FD4052419354
:1031600002D0A9F7EACFB4E0A69597958795779511
:103170006795BA95C9F700976105710508959B0198
:10318000AC010A2E06945795479537952795BA9521
:10319000C9F7620F731F841F951FA01D0895F8942F
:0231A000FFCF5F
:1031A2000000F00520006E6F207469746C65005495
:1031B20069746C653A0900536F6E672054696D65D6
:1031C2003A0900536F6E67204C656E6774683A095E
:1031D20000536F6E67204E756D3A090044454255A3
:1031E200473A203C003E0053442043415244204988
:1031F200532042524F4B454E0D0A00706C6179626A
:1032020061636B007265616465720069646C65007C
:103212006D61696E00094E616D653A09000D0A091A
:10322200537461636B2055736167653A09000D0A37
:1032320009537461636B2053697A653A09000D0A78
:1032420009546872656164205374617475733A0934
:10325200005448524541442052554E4E494E472053
:1032620000544852454144205245414459202020AF
:103272000054485245414420534C454550494E471D
:10328200005448524541442057414954494E472031
:1032920000554E5245434F474E495A45442020203F
:1032A200000D0A0957616B6575702054696D653AA6
:1032B20020000D0A095363686564756C6520436FCD
:1032C200756E743A2020200050726F6772616D2013
:1032D200330D0A0053797374656D2054696D653A34
:1032E200200073200928006D7329000D0A4E756DA8
:1032F200626572206F6620546872656164733A2059
:10330200000D0A5377617073205065722053656314
:103312006F6E643A20000D0A0D0A000D0A5468729D
:103322006561642049443A2000307800613A2025E2
:10333200692C203C20623A2025692C202626202553
:1033420069004845590D0A73697A653A20000D0AE9
:10335200726F6F74206D6F64653A20000D0A6669A2
:0C33620073727420626C6F636B3A200081
:00000001FF
