:100000000C947C000C949D000C949D000C949D001D
:100010000C949D000C949D000C949D000C949D00EC
:100020000C949D000C949D000C949D000C949D00DC
:100030000C949D000C949D000C949D000C949D00CC
:100040000C949D000C9465020C949D000C949D00F2
:100050000C949D000C94F8020C949D000C949D004F
:100060000C949D000C949D000C949D000C949D009C
:100070000C949D000C949D000C949D000C949D008C
:100080000C949D000C949D000C949D000C949D007C
:100090000C949D000C949D000C949D000C949D006C
:1000A0000C949D000C949D000C949D000C949D005C
:1000B0000C949D000C949D000C949D000C949D004C
:1000C0000C949D000C949D000C949D000C949D003C
:1000D0000C949D000C949D000C949D000C949D002C
:1000E0000C949D000C949F000C94A0000C94DB03D6
:1000F0000C94A9000C94CA0011241FBECFEFD1E2CA
:10010000DEBFCDBF00E00CBF13E0A0E0B2E0EEEE3A
:10011000F9E200E00BBF02C007900D92AC37B107C7
:10012000D9F723E0ACE7B3E001C01D92A03AB207D3
:10013000E1F70E94F6120C94F5140C940000FFCF26
:1001400080918103909182030E94D3060E948C03C8
:10015000F7CFEC01888199810B8110E0292F33279B
:100160000217130791F09C012F5F3F4F39832883BB
:100170008C0F9D1FFC0184858093B4008881998138
:100180008115924010F01982188281E090E00E945F
:100190003303E0CFCF93DF931F921F92CDB7DEB72B
:1001A0007C0180E00E942D0D1A821982F701C48023
:1001B000D5803701F6E06F0E711C470184EF881A75
:1001C0008DEF980A5701ECE0AE0EB11C412C55247E
:1001D0005394A301B401CE0101960E949611F70138
:1001E0002285338550E040E085010E941712F70117
:1001F0008285938501969387828753824282892BD9
:1002000099F084819581C816D90639F027C0F70185
:10021000848195818C159D0509F50E948C03F70159
:1002200082859385892B99F7FFEFCF1ADF0AF701B3
:1002300084819581019695838483F70180819181E2
:100240008F3F910509F028F60E948C03F701808109
:1002500091818F3F9105C1F3B8F3BBCF29813A81DA
:10026000C816D90630F42F5F3F4F3A8329836C01BB
:10027000E4CF215031093A8329836C01DECFFC01A0
:1002800011821082138212821582148213861286C2
:1002900016821782108611860895CF92DF92EF9210
:1002A000FF920F931F93CF93DF938B016A01790124
:1002B000C0918103D0918203FE01E757FF4F208157
:1002C00031E1239FC00DD11D1124FE018193919333
:1002D0006A831183C7018D960E94C7139F838E8303
:1002E000FC01EE0DFF1DCF018D96998788877796CB
:1002F000FD83EC8381E08A871B861C861D861E8613
:100300001F86188A80E1DF011D928A95E9F78BED3F
:1003100093E0858B948B138A028B118BC08AD786CE
:10032000E0918103F0918203E757FF4F80818F5F57
:100330008083DF91CF911F910F91FF90EF90DF901D
:10034000CF9008951F93CF93DF93E0918103F091B5
:100350008203DF01A757BF4F8C91882341F19F0192
:1003600091E1899F200D311D1124EF01C257DF4F0C
:1003700011E004C07196E217F307C9F0828582305C
:10038000C9F7458556856785708988819981AA81D5
:10039000BB8184179507A607B70760F315861686F5
:1003A0001786108A12877196E217F30739F7DF91E3
:1003B000CF911F910895FF920F931F93CF93DF93D7
:1003C0000E94A2010091810310918203F801E85775
:1003D000FF4F40813196C081D0E0842F90E001969C
:1003E000BE010E94771391E1F92E07C0C901019661
:1003F000BE010E947713481751F0282F30E0F80112
:10040000F89EE00DF11D11249285923078F7DF916E
:10041000CF911F910F91FF9008952F923F924F928D
:100420005F926F927F928F929F92AF92BF92CF9284
:10043000DF92EF92FF920F931F93CF93DF93F0E041
:10044000EDE52080EEE53080FB0121923082FC0159
:1004500021903080F0E0EDE52082EEE53082DF9102
:10046000CF911F910F91FF90EF90DF90CF90BF90B1
:10047000AF909F908F907F906F905F904F903F9044
:100480002F900895CF93DF93E0918103F091820341
:10049000EF01CD56DF4FDF01AE56BF4F8C91888301
:1004A0001C9219978C91882369F09F0191E1899F93
:1004B000200D311D11248385848713867196E217E0
:1004C000F307C9F7DF91CF9108951F920F920FB6EE
:1004D0000F9211240BB60F922F933F938F939F93FC
:1004E000AF93BF93CF93DF93EF93FF93E09181039B
:1004F000F0918203EF01C657DF4F88819981AA816D
:10050000BB810196A11DB11D88839983AA83BB83FA
:100510002996DF01AE56BF4F8C9188831C921997A4
:100520008C91882369F09F0191E1899F200D311DF5
:1005300011248385848713867196E217F307C9F720
:10054000FF91EF91DF91CF91BF91AF919F918F91EB
:100550003F912F910F900BBE0F900FBE0F901F90E9
:100560001895E0918103F0918203E857FF4F808155
:1005700090E00895209181033091820341E1682F3A
:1005800070E0F901489FE00DF11D112493859F5FF4
:100590009387F901EE56FF4F90819F5F90833A97C2
:1005A0009081981721F18083F901499FE00DF11D99
:1005B00011244285411102C041E0428741E1469F3A
:1005C000F001479FF00D1124E20FF31F1286B901CD
:1005D000949F600D711D11246C5F7F4FF901849F02
:1005E000E00DF11D1124CF0104960E940D02089523
:1005F0001F920F920FB60F9211240BB60F922F93EA
:100600003F934F935F936F937F938F939F93AF939A
:10061000BF93EF93FF93E0918103F0918203E25740
:10062000FF4F80819181A281B3818D96A11DB11D63
:1006300080839183A283B3830E94DB010E94BA026C
:10064000FF91EF91BF91AF919F918F917F916F91AA
:100650005F914F913F912F910F900BBE0F900FBE66
:100660000F901F9018951F93CF93DF93009721F45D
:10067000DF91CF911F910895F894209181033091DB
:100680008203F901E857FF4F408111E1F901149FFE
:10069000E00DF11D112422573F4F6DE2689FA0012C
:1006A000699F500D1124E90188819981AA81BB813C
:1006B000840F951FA11DB11D85879687A787B08BD5
:1006C00082E082870E94DB01409181035091820386
:1006D000FA01E857FF4F9081981739F00E94BA024B
:1006E0007894DF91CF911F910895189F9001112464
:1006F000420F531FFA019285923080F3789401C023
:100700000000E0918103F0918203E20FF31F9285D4
:100710009230B0F7F894E2CFF8940E94DB010E9487
:10072000BA02789408950F931F93CF93DF931F928B
:100730001F92CDB7DEB70091810310918203085755
:100740001F4FF80180818F3F49F00E948C030F906A
:100750000F90DF91CF911F910F9108950E94DB01BF
:10076000F80180838091810390918203FC01E85716
:10077000FF4F2081F1E12F9F90011124FC01E20F36
:10078000F31F128643854F5F4387FC01EE56FF4FF0
:1007900040814F5F40832C5F3F4FBE016F5F7F4FB3
:1007A000820F931F0E940D020F900F90DF91CF9147
:1007B0001F910F9108957894F101C2010994F89462
:1007C0008091810390918203FC01E857FF4F2081C3
:1007D00031E1239F800D911D112424E0FC0122872B
:1007E0000E948C03CF93C82FCB018D960E94C71314
:1007F000E0918103F091820321E1C29FE00DF11DA0
:10080000112497838683CF910895F894A091810352
:10081000B0918203FD01E757FF4FE081F1E1EF9FC7
:10082000A00DB11D1124FD018193919312966C933B
:10083000129771831696ED91FC911797E20FF31FB3
:10084000CF018D9619969C938E931897779615964F
:10085000FC93EE93149781E01A968C931A971B964B
:100860001C921B971C961C921C971D961D921D9204
:100870001D921C92509780E1DF011D928A95E9F745
:100880008BED93E0858B948B138A628B718B408BFD
:100890005787E0918103F0918203E757FF4F8081F2
:1008A0008F5F808378940895EEE6F0E08081826027
:1008B000808384B5826084BD85B5826085BD8AE50C
:1008C00087BD89E09DE39093890080938800EFE6DF
:1008D000F0E0808182608083E1E8F0E080818D60DB
:1008E00080830895F8940E945404F89484E990E079
:1008F0000E94C713FC019093820380938103DC0163
:10090000A857BF4F1C92119681E08C9311961D92AF
:100910001D921D921C92139714961D921D921D926A
:100920001C92139781E292E091838083138212825A
:10093000178216828FEF91E2918780871582148249
:10094000128613861486158616861786108A1496C4
:100950001C9211961C92CF010895F8940E945404A1
:10096000F89484E990E00E94C713909382038093E7
:100970008103FC01E857FF4F2FEF2083319610824F
:100980003196108211821282138234961082118263
:100990001282138234961082319610820895E0EB11
:1009A000F0E0808183628083E1EBF0E08081816010
:1009B0008083E1E0F1E08081806480830895FC0120
:1009C0001082118213861286158614860895CF939D
:1009D000DF93EC01F8940E94B1029881911107C055
:1009E00091E0988389837894DF91CF9108952C8545
:1009F0003D85EA85FB85E20FF31FE770FF27EC0FCB
:100A0000FD1F82832F5F3F4F3D872C87E09181033D
:100A1000F091820391E1899FE00DF11D112483E0A3
:100A20008287DF91CF910C948C03FC01F89484852C
:100A30009585009721F4108211827894089522857B
:100A40003385DF01A20FB31F12964C912F5F3F4FEA
:100A500027703327338722870197958784874183BF
:100A6000E0918103F091820381E1489FE00DF11D47
:100A7000112481E0828778940895FC0160831286B6
:100A80001186148613860895CF93DF93EC01F894B2
:100A90008881181634F4815088837894DF91CF913F
:100AA0000895815088830E94B1022B853C85E98599
:100AB000FA85E20FF31FE770FF27EC0FFD1F81831C
:100AC0002F5F3F4F3C872B87E0918103F09182039A
:100AD00091E1899FE00DF11D112483E08287DF9170
:100AE000CF910C948C03FC01F89490819F5F9083CC
:100AF000191614F478940895238534852115310549
:100B0000C9F381859285DF01A80FB91F11964C9119
:100B10000196877099279287818721503109348700
:100B20002387E0918103F091820381E1489FE00DEA
:100B3000F11D112481E0828778940895FC01F894D6
:100B400090819F5F9083191614F4789408952385FB
:100B5000348521153105C9F341855285DF01A40F84
:100B6000B51F11968C914F5F5F4F47705527528785
:100B7000418721503109348723870E94BA02789433
:100B80000895FF920F931F93CF93DF93F82E162FA4
:100B9000042FE90180918303909184030E94E7046C
:100BA0008F2D0E94E20A602F812F0E94AB0ACE0196
:100BB0000E9495078091830390918403DF91CF91E8
:100BC0001F910F91FF900C9415058F929F92AF92F9
:100BD000BF92CF92DF92EF92FF920F931F93CF932A
:100BE000DF93CDB7DEB761970FB6F894DEBF0FBEC7
:100BF000CDBF89829A82AB82BC82CD82DE82EF82B7
:100C0000F88609871A872B874D875E876F87788BD1
:100C1000898BCD80DE80EF80F88409851A858FE18D
:100C20000E94E20A86E292E00E9495078BE50E940C
:100C3000E20A89819A810E94950780E20E94E20A75
:100C40008EE292E00E9495078CE50E94E20A8B8179
:100C50009C810E94080A81E20E94E20A8DE392E0F0
:100C60000E9495078DE50E94E20AC8018C199D0932
:100C70000E94020882E20E94E20A8EE492E00E9450
:100C800095078EE50E94E20AC8018E199F090E940D
:100C9000020883E20E94E20A8EE592E00E94950734
:100CA0008EE50E94E20A8FE50E94E20AC6010E94D8
:100CB000080A84E20E94E20A80E792E00E94950717
:100CC00080E60E94E20AC7010E94080A85E20E94AB
:100CD000E20A80E892E00E94950781E60E94E20A1B
:100CE000C8010E94080A8FE10E94E20A8DE892E0A2
:100CF0000E9495078BE50E94E20A8B85813009F4FA
:100D00004DC008F446C08230D1F18330E9F580ED62
:100D100092E00E94950780E20E94E20A80EF92E052
:100D20000E9495078CE50E94E20A6E857F8588897E
:100D300099890E94590981E20E94E20A81E093E0C8
:100D40000E9495078DE50E94E20A8D8590E00E9441
:100D5000410887E693E061960FB6F894DEBF0FBEB8
:100D6000CDBFDF91CF911F910F91FF90EF90DF905A
:100D7000CF90BF90AF909F908F900C94950780EC90
:100D800092E00E949507C7CF80EE92E00E949507FF
:100D9000C2CF80EA92E00E949507BDCF80EB92E03F
:100DA0000E949507B8CF4F925F926F927F928F9279
:100DB0009F92AF92BF92CF92DF92EF92FF920F93EA
:100DC0001F93CF93DF93EC0161E081E00E94AB0AB7
:100DD00084E20E94E20A87E193E00E94950783E2A1
:100DE00093E00E949507FE01E657FF4F60817181F5
:100DF000828193810E94D90881E393E00E94950744
:100E0000FE01E257FF4F60817181828193810E94D0
:100E1000D90886E393E00E9495078AE393E00E9455
:100E200095073E0189E8680E711CF301808190E00E
:100E30000E94020880E593E00E949507FE01ED56AE
:100E4000FF4F808190E00E94410885E693E00E9478
:100E50009507F3018081882371F1512C81E1482E9F
:100E600084E20E94E20A8AE693E00E949507052D3B
:100E700010E0C8010E940208409EF001419EF00D62
:100E80001124EC0FFD1F80809180A280B380C4806C
:100E9000D580E680F78000851185228533854485DD
:100EA00055856685778580890E94E5055394F30111
:100EB00080815816A8F2DF91CF911F910F91FF907A
:100EC000EF90DF90CF90BF90AF909F908F907F90EA
:100ED0006F905F904F90089582E08093C0001092D1
:100EE000C50080E18093C400E1ECF0E0808188617E
:100EF000808308958091C000881F8827881F0895E7
:100F00008091C00087FF03C08091C60008958FEFD5
:100F100008959091C10095FDFCCF9091C00095FF80
:100F2000F8CF8093C60081E00895DC012C91222344
:100F300099F0FC0131969091C10095FDFCCF909104
:100F4000C00095FFF8CF2093C600CF018A1B9B0BF2
:100F500021912111F0CF089590E080E00895FC01E7
:100F60009091C10095FDFCCF8091C00085FFF8CF26
:100F70008BE18093C6009091C10095FDFCCF8091DC
:100F8000C00085FFF8CF8BE58093C6002081222327
:100F900071F031969091C10095FDFCCF9091C00009
:100FA00095FFF8CF2093C60021912111F3CF08952A
:100FB0000F931F93CF93DF93382F292FC5E0D0E0F5
:100FC000E0E1F7E20AE010E0832F922FBF010E94D8
:100FD0006313605D2091C10025FDFCCF2091C0000E
:100FE00025FFF8CF6093C600382F292FCF01B80115
:100FF0000E947713FB01219739F7DF91CF911F9161
:101000000F9108950F931F93CF93DF939C01C5E039
:10101000D0E0E0E1F7E20AE010E0C901BF010E9480
:101020006313672B81F4E130F10569F09C01CF0176
:10103000B8010E947713FB01219779F7DF91CF91D7
:101040001F910F910895CAE0D0E0C901BF010E942D
:101050006313605D2091C10025FDFCCF2091C0008D
:1010600025FFF8CF6093C6009C01CF01BE010E940E
:101070007713FB01309749F7DF91CF911F910F91C3
:1010800008950F931F93CF93DF939C01C5E0D0E0A9
:10109000E0E1F7E240E20AE010E0C901BF010E948E
:1010A0006313672BD1F4E130F105B9F02091C10051
:1010B00025FDFCCF2091C00025FFF8CF4093C6004E
:1010C0009C01CF01B8010E947713FB01219729F7FA
:1010D000DF91CF911F910F910895CAE0D0E0C9012F
:1010E000BF010E946313605D2091C10025FDFCCF0C
:1010F0002091C00025FFF8CF6093C6009C01CF016E
:10110000BE010E947713FB01309749F7DF91CF9121
:101110001F910F9108956F927F928F929F92AF923D
:10112000BF92CF92DF92EF92FF920F931F93CF93D4
:10113000DF933B01D82FC92F0AE010E0C12C8AECC5
:10114000D82E8AE9E82E8BE3F82E9AE0892E912C8E
:10115000A12CB12CB3018D2F9C2FA70196010E94C9
:101160008B13205D3091C10035FDFCCF3091C00064
:1011700035FFF8CF2093C6003B01D82FC92FC701F8
:10118000B601A50194010E948B1369017A010150F7
:10119000110901F7DF91CF911F910F91FF90EF900F
:1011A000DF90CF90BF90AF909F908F907F906F9087
:1011B00008954F925F926F927F928F929F92AF921B
:1011C000BF92CF92DF92EF92FF920F931F93CF9334
:1011D000DF93C62F172F082FD92F9AE0A92EB12CF5
:1011E000C12C2AECD22E2AE9E22E2BE3F22E3AE091
:1011F000432E512C612C712C6C2F712F802F9D2F21
:10120000A70196010E948B13232B242B252B39F544
:1012100021E0C216D104E104F10409F1C62F172F11
:10122000082FD92FC701B601A30192010E948B1389
:1012300069017A0181E0A81AB108F1F6DF91CF9136
:101240001F910F91FF90EF90DF90CF90BF90AF90E4
:101250009F908F907F906F905F904F9008958AE05D
:10126000882E912CA12CB12C6C2F712F802F9D2FAB
:10127000A70196010E948B13205D3091C10035FDBE
:10128000FCCF3091C00035FFF8CF2093C600C62FA9
:10129000172F082FD92FC701B601A50194010E946D
:1012A0008B1369017A01C114D104E104F104E1F660
:1012B000C5CF4F925F926F927F928F929F92AF9223
:1012C000BF92CF92DF92EF92FF920F931F93CF9333
:1012D000DF93EB01182F092F9AE0A92EB12CC12C16
:1012E0002AECD22E2AE9E22E2BE3F22E30E2932EC4
:1012F0004AE0442E512C612C712CBE01812F902F7D
:10130000A70196010E948B13232B242B252B81F5FB
:1013100021E0C216D104E104F10451F12091C10091
:1013200025FDFCCF2091C00025FFF8CF9092C6008C
:10133000EB01182F092FC701B601A30192010E94EA
:101340008B1369017A0181E0A81AB108B1F6DF9127
:10135000CF911F910F91FF90EF90DF90CF90BF90B2
:10136000AF909F908F907F906F905F904F90089577
:101370008AE0882E912CA12CB12CBE01812F902FB8
:10138000A70196010E948B13205D3091C10035FDAD
:10139000FCCF3091C00035FFF8CF2093C600EB01A1
:1013A000182F092FC701B601A50194010E948B13C4
:1013B00069017A01C114D104E104F104F1F6C7CF47
:1013C000BC0144E09B01232F332722952F702A3044
:1013D0003105A0F4205D9091C10095FDFCCF909166
:1013E000C00095FFF8CF2093C60062957295707F7C
:1013F0007627607F7627415029F70895295C9091E0
:10140000C10095FDFCCF9091C00095FFF8CFEBCFC8
:10141000BC01E9E7F3E020E39091C10095FDFCCF2A
:101420009091C00095FFF8CF2093C6002191211123
:10143000F3CF44E080E09B01232F332722952F70C8
:1014400081110EC02115310559F4413039F16295F1
:101450007295707F7627607F7627415061F70895F7
:10146000822F2A30310568F4805D9091C10095FD8E
:10147000FCCF9091C00095FFF8CF8093C60081E02B
:10148000E6CF295C9091C10095FDFCCF9091C00002
:1014900095FFF8CF2093C60081E0D9CF80E0E4CF5C
:1014A000AB01BC01E9E7F3E090E38091C10085FD69
:1014B000FCCF8091C00085FFF8CF9093C60091913A
:1014C0009111F3CF28E030E018C00097A105B105D5
:1014D000F9F4213089F1440F551F661F771F440F1F
:1014E000551F661F771F440F551F661F771F440F38
:1014F000551F661F771F215069F1DB01CA01ECE11E
:10150000B695A79597958795EA95D1F73323E9F294
:10151000382F8A309105A105B10578F097E3980F2F
:101520008091C10085FDFCCF8091C00085FFF8CF80
:101530009093C60031E0CFCF30E0305D8091C100A4
:1015400085FDFCCF8091C00085FFF8CF3093C600A9
:1015500031E0C1CF0895CF93C62F9091C10095FD82
:10156000FCCF9091C00095FFF8CF9BE19093C6000F
:101570009091C10095FDFCCF9091C00095FFF8CFF0
:101580009BE59093C60090E00E9402088091C10004
:1015900085FDFCCF8091C00085FFF8CF8BE3809361
:1015A000C6008C2F90E00E9402088091C10085FD4A
:1015B000FCCF8091C00085FFF8CF86E68093C600FF
:1015C000CF9108959091C10095FDFCCF9091C000FE
:1015D00095FFF8CF9BE19093C6009091C10095FDD7
:1015E000FCCF9091C00095FFF8CF9BE59093C6008B
:1015F00090E00E9402088091C10085FDFCCF80919F
:10160000C00085FFF8CF8DE68093C60008958091D5
:10161000C10085FDFCCF8091C00085FFF8CF8BE134
:101620008093C6008091C10085FDFCCF8091C000F1
:1016300085FFF8CF8BE58093C6008091C10085FDC2
:10164000FCCF8091C00085FFF8CF82E38093C60075
:101650008091C10085FDFCCF8091C00085FFF8CF4F
:101660008AE48093C60061E081E00C94AB0A80912B
:10167000C10085FDFCCF8091C00085FFF8CF8BE1D4
:101680008093C6008091C10085FDFCCF8091C00091
:1016900085FFF8CF8BE58093C6008091C10085FD62
:1016A000FCCF8091C00085FFF8CF88E48093C6000E
:1016B00008950F931F93CF93DF938A01E9010E944E
:1016C000AB0AF80190819923E9F031968091C1002D
:1016D00085FDFCCF8091C00085FFF8CF9093C600B8
:1016E0009F01201B310B91919111F0CF89010B5F6C
:1016F0001F4FCE010E944108C801DF91CF911F9179
:101700000F91089505E010E0F4CF0F931F93CF934E
:10171000DF938A01E9010E94AB0AF80190819923C5
:10172000F9F031968091C10085FDFCCF8091C00019
:1017300085FFF8CF9093C6009F01201B310B91913C
:101740009111F0CF8901065F1F4FBE0190E080E04C
:101750000E945909C801DF91CF911F910F910895FF
:101760000AE010E0F2CF8FEF8EBD80918A03909156
:101770008B039C012F5F3F4F30938B0320938A0391
:101780008130924098F44FEF0DB407FEFDCF4EBD6F
:1017900080918A0390918B039C012F5F3F4F309380
:1017A0008B0320938A038130924070F30DB407FEBF
:1017B000FDCF289A8FEF8EBD0DB407FEFDCF10929E
:1017C0007E0308958093800308958093800360933F
:1017D0007F030895CF93C82F80917E0381110E94CB
:1017E000B30BC0937D03CF91089580917C0308953E
:1017F00080937C030895CF92DF92EF92FF92CF9374
:10180000C82F6A017B0180917E0381110E94B30B76
:10181000289888EC97E9A4E0B0E03FEF3EBD0DB416
:1018200007FEFDCF2EB52F3F41F02AE02A95F1F7B4
:1018300000C00197A109B10989F78C2F80648EBD82
:101840000DB407FEFDCF88E190E0B701A601082E98
:1018500004C076956795579547950A94D2F74EBD83
:101860000DB407FEFDCF0897883F2FEF920769F769
:1018700085E9CC2319F087E8C830B9F48EBD0DB4E2
:1018800007FEFDCF90E02FEF2EBD0DB407FEFDCF7C
:101890008EB587FF04C09F3F11F09F5FF5CFCF91BA
:1018A000FF90EF90DF90CF9008958FEFE7CF8F926A
:1018B0009F92AF92BF92EF92FF920F931F93CF939D
:1018C000DF93EA01790120917E03222371F0809059
:1018D000860390908703A0908803B09089038616B2
:1018E0009706A806B90609F44BC060938603709367
:1018F0008703809388039093890320917C0323308E
:1019000039F029E0660F771F881F991F2A95D1F7B4
:10191000AB01BC0181E10E94FB0B48EC57E964E09C
:1019200070E02FEF811114C02EBD0DB407FEFDCF66
:101930009EB59F3FE1F49AE09A95F1F700C04150BF
:1019400051096109710981F79DE09093800304C0FA
:1019500083E08093800380E0DF91CF911F910F910E
:10196000FF90EF90BF90AF909F908F9008959E3F13
:1019700009F45FC020E12093800390937F03ECCFB4
:1019800020918A0330918B034217530708F4ADCF9F
:101990008FEF8EBD80918A0390918B038C179D07EA
:1019A00088F42FEF0DB407FEFDCF2EBD80918A0382
:1019B00090918B03019690938B0380938A038C17ED
:1019C0009D0780F3A8014150510981F0F70198016A
:1019D0002E0D3F1D215031099FEF0DB407FEFDCFA5
:1019E0008EB581939EBDE217F307B9F70DB407FEDC
:1019F000FDCF8EB5F701E40FF51F808380918A0338
:101A000090918B03080F191F10938B0300938A0387
:101A100080917D03882319F00115124020F08091F8
:101A20007E03811102C081E097CF0E94B30B81E059
:101A300093CF10928B0310928A0381E080937E03F0
:101A4000A7CF0F931F939A0100E012E050E040E00F
:101A50000E94570C1F910F910895CF92DF92EF9241
:101A6000FF921F93CF93DF93182F209A289A229AE0
:101A7000219A83E58CBD8AE090E02FEF2EBD0DB456
:101A800007FEFDCF0197D1F7289881E092E02FEF74
:101A90002EBD0DB407FEFDCF3EB50197C9F7DBE0C3
:101AA00040E050E0BA0180E00E94FB0BC82F81307B
:101AB00089F0D150A9F781E080938003C0937F0320
:101AC000C0E08C2FDF91CF911F91FF90EF90DF90BE
:101AD000CF9008954AEA51E060E070E088E00E940B
:101AE000FB0B813009F440C082FF51C0C0937C03DE
:101AF00088E6C82E88E8D82E8EE1E82EF12C07C0A3
:101B000081E0C81AD108E108F10809F462C08AE04E
:101B10008A95F1F700C040E050E0BA0187E30E94E7
:101B2000FB0B80917C0340E050E0BA01823021F44D
:101B300040E050E060E070E489E20E94FB0B81111C
:101B4000DFCF80917C03823041F18CB58C7F8CBDDE
:101B5000111103C08DB581608DBD289A8FEF8EBDA8
:101B60000DB407FEFDCFADCF84E090E03FEF3EBD6A
:101B70000DB407FEFDCF2EB50197C9F72A3A71F1D2
:101B800089E08093800320937F03C0E09ACF92E0A6
:101B90009093800380937F03ABCF40E050E0BA0185
:101BA0008AE30E94FB0B811121C08FEF8EBD0DB423
:101BB00007FEFDCF8EB5807C803CA1F083E090E0F5
:101BC0002FEF2EBD0DB407FEFDCF3EB50197C9F72F
:101BD000BCCF86E080938003C0E073CF82E0809327
:101BE0007C0386CF83E080937C03E8CF85E08093FD
:101BF0008003C0E066CF0F931F930115110579F0A4
:101C0000F801E40FF51FE130F24028F40E94570C70
:101C10001F910F91089580E01F910F91089581E029
:101C20001F910F91089580917E0381110C94B30B45
:101C30000895CF93DF93D62FC72F40E050E0BA012D
:101C40000E94FB0B48EC57E964E070E02FEF811134
:101C500014C02EBD0DB407FEFDCF9EB59F3FA1F46D
:101C60009AE09A95F1F700C0415051096109710954
:101C700081F79DE09093800304C088E08093800307
:101C800080E0DF91CF9108959E3F41F020E12093C5
:101C9000800390937F03DF91CF910895ED2FFC2F68
:101CA0009F01205F3F4F9FEF9EBD0DB407FEFDCF0C
:101CB0008EB58193E217F307B9F78FEF8EBD0DB4A0
:101CC00007FEFDCF8EB58FEF8EBD0DB407FEFDCFA5
:101CD0008EB5289A8FEF8EBD0DB407FEFDCF81E043
:101CE000DF91CF9108950F931F93CF93DF93CDB7DB
:101CF000DEB760970FB6F894DEBF0FBECDBFBE0152
:101D00006F5F7F4F89E00E94190E882309F447C056
:101D10008981807CA1F0803409F445C087E08093FC
:101D2000800360E070E0CB0160960FB6F894DEBFF0
:101D30000FBECDBFDF91CF911F910F9108956F819D
:101D4000637070E0762F6627770F770F888590E0B5
:101D5000880F991F880F991F682B792B8985829589
:101D6000869586958370682B6F5F7F4F90E080E04B
:101D70002A852370220F3B8537FB332730F9232B2D
:101D80003E813F70230F3327331F2750310904C092
:101D9000660F771F881F991F2A95D2F7C5CF60E07D
:101DA00070E0CB01C1CF68856695669570E090E0E4
:101DB00080E0CB01772766272A85622B098510E012
:101DC000102F0027012E000C220B330B602B712BE0
:101DD000822B932B6F5F7F4F8F4F9F4F4AE0660F91
:101DE000771F881F991F4A95D1F79ECF4F925F9218
:101DF0006F927F928F929F92AF92BF92CF92DF921B
:101E0000EF92FF92CF93C12CD12C7601CFEF28EE29
:101E1000422E23E0522E612C712C4C01B12CA12CAE
:101E2000CEBD0DB407FEFDCF9EB59F3FB1F08FEF45
:101E3000C81AD80AE80AF80A8AE08A95F1F700C0B9
:101E4000C701B601A30192010E948B13821693066B
:101E5000A406B50628F780E001C081E0CF91FF908D
:101E6000EF90DF90CF90BF90AF909F908F907F903A
:101E70006F905F904F90089588EC97E9A4E0B0E0F0
:101E80003FEF3EBD0DB407FEFDCF2EB52F3F69F4E9
:101E90002AE02A95F1F700C00197A109B10989F755
:101EA0008DE08093800380E008952E3F39F080E13B
:101EB0008093800320937F0380E0089581E008955C
:101EC000BC0189E00C94190EBC018AE00C94190E37
:101ED0004F925F926F927F92AF92BF92CF92DF92BA
:101EE000EF92FF920F931F93CF93DF936A017901D3
:101EF000E8015A0121E0B2222B013C01440C551C9F
:101F0000661C771C00E012E00A191B09C017D107F4
:101F100008F48E01C601892F99278695A3019201A5
:101F2000280F391F411D511DCA01B9019701A50193
:101F30000E94FB0DC11532E0D30788F08E011250CC
:101F40000C191D0997012C193D093E5FC301B2010F
:101F50006F5F7F4F8F4F9F4FA5010E94FB0DDF9159
:101F6000CF911F910F91FF90EF90DF90CF90BF9096
:101F7000AF907F906F905F904F9008950F931F9355
:101F8000CF93DF93CDB7DEB7C455D1090FB6F89420
:101F9000DEBF0FBECDBF04E510E09E012F5F3F4FB7
:101FA00050E040E062E070E080E090E00E94FB0DD5
:101FB00080E094E0098C02C0880F991F0A94E2F730
:101FC000092E000CAA0BBB0B8093940390939503EE
:101FD000A0939603B093970389A19AA1ABA1BCA14A
:101FE0008093980390939903A0939A03B0939B03D3
:101FF00089A59AA5ABA5BCA5809390039093910366
:10200000A0939203B0939303CC5ADF4F0FB6F8948A
:10201000DEBF0FBECDBFDF91CF911F910F9108950D
:102020000F931F93CF93DF93CDB7DEB7A0970FB673
:10203000F894DEBF0FBECDBF00E210E09E012F5F1F
:102040003F4F50E040E064E070E080E090E00E94AC
:10205000FB0D89859A85AB85BC8580938C03909315
:102060008D03A0938E03B0938F03A0960FB6F894C0
:10207000DEBF0FBECDBFDF91CF911F910F910895AD
:102080004F925F926F927F928F929F92AF92BF9288
:10209000CF92DF92EF92FF920F931F93CF93DF9334
:1020A000EA016150710981099109209190033091F1
:1020B000910340919203509193030E948B13690105
:1020C0007A01660F771F881F991F660F771F881F79
:1020D000991F660F771F881F991F660F771F881F2C
:1020E000991F660F771F881F991F660F771F881F1C
:1020F000991F660F771F881F991F209194033091B5
:10210000950340919603509197030E948B132901E8
:102110003A014B01609198037091990380919A0361
:1021200090919B03A70196010E945313C0908C03CA
:10213000D0908D03E0908E03F0908F036C0D7D1D89
:102140008E1D9F1D640D751D861D971D00E810E0F6
:102150009E01A4010E94680FDF91CF911F910F9102
:10216000FF90EF90DF90CF90BF90AF909F908F90B7
:102170007F906F905F904F9008952F923F924F9273
:102180005F926F927F928F929F92AF92BF92CF9207
:10219000DF92EF92FF920F931F93CF93DF93CDB710
:1021A000DEB7C258D4400FB6F894DEBF0FBECDBF25
:1021B0005A016901CF57DB4F19830883C158D440B6
:1021C000170100919403109195039E012F5F3F4FDB
:1021D000490150E040E00E94680F8827992788193C
:1021E0009909092E000CAA0BBB0B40919403509146
:1021F0009503609196037091970384179507A6073E
:10220000B70708F076C010E000E0F801E480F58040
:10221000E114F10409F46DC0F501808191811AC0C7
:102220000196F501918380830E0D1F1D280148182A
:102230005908052C000C66087708441655066606F2
:10224000770608F056C0F801E480F580E114F10447
:1022500009F44FC0F601208131812817390701F7B1
:10226000F8016081718182819381AE014F5F5B4F84
:102270000E944010CF5FDB4F88819981C150D440CC
:1022800097FD12C0F6018081918101969183808330
:10229000F501808191814091940350919503609163
:1022A000960370919703BCCFCB5FDB4F88819981F8
:1022B000AA81BB81C550D440F10180839183A28360
:1022C000B383F801E680F780B801685F7F4FA7010C
:1022D000CF57DB4F88819981C158D4400E94EC14BC
:1022E000CF57DB4FE881F981C158D440EE0DFF1D77
:1022F000108260E070E0CB01CE57DB4F0FB6F89450
:10230000DEBF0FBECDBFDF91CF911F910F91FF9028
:10231000EF90DF90CF90BF90AF909F908F907F9085
:102320006F905F904F903F902F9008954F925F92E3
:102330006F927F928F929F92AF92BF92CF92DF92D5
:10234000EF92FF920F931F93CF93DF93CDB7DEB73A
:10235000C258D1090FB6F894DEBF0FBECDBF5C01E5
:102360004B013A010E94BE0F0E941010AE014F5F58
:102370005F4F62E070E080E090E00E9440108D814D
:102380009E81AF81B885892B8A2B8B2B09F44BC09A
:10239000D12CC12C81E090E08C0F9D1F88962C01E0
:1023A00017C0FFEFCF1ADF0A2091940330919503F5
:1023B0004091960350919703D6010E94AD130D8171
:1023C0001E812F813885601771078207930758F5A2
:1023D000F20161917191819191912F0173018401B9
:1023E0009501AE014F575F4F0E94BD1061157105F9
:1023F00081059105B1F2CE57DF4F0FB6F894DEBFDD
:102400000FBECDBFDF91CF911F910F91FF90EF9045
:10241000DF90CF90BF90AF909F908F907F906F9004
:102420005F904F90089560E070E0CB01E4CF4F9251
:102430005F926F927F928F929F92AF92BF92CF9254
:10244000DF92EF92FF920F931F93CF93DF93CDB75D
:10245000DEB7C458D1400FB6F894DEBF0FBECDBF73
:1024600049015A01AE014F5F5E4F0E944010442463
:10247000582C692C7A2C740141E0E422FF24FE2CB4
:10248000EE24E00EF11E640153E0C522DD24D501E7
:10249000C401B695A79597958795B695A7959795F5
:1024A0008795CF57DE4F88839983AA83BB83C15812
:1024B000D14090E389169104A104B10408F461C0ED
:1024C0000091940310919503C75ADE4F688179817A
:1024D0008A819B81C955D1409E012F5F3F4F50E0BB
:1024E00040E00E94680FCB5FDE4F088119812A818E
:1024F0003B81C550D1408091940390919503A09168
:102500009603B09197030419150926093709801716
:102510009107A207B30798F1CF57DE4F88819981C1
:10252000AA81BB81C158D1400C97A109B109E1E052
:10253000F0E0EC0FFD1F8E0F9F1FDC016C9170E02F
:1025400090E080E0970140E05C2D0E94680FCC573E
:10255000DE4F0FB6F894DEBF0FBECDBFDF91CF9137
:102560001F910F91FF90EF90DF90CF90BF90AF90B1
:102570009F908F907F906F905F904F9008958C0107
:10258000CBCFCB5FDE4F088119812A813B81C550BB
:10259000D1408091940390919503A0919603B091BE
:1025A0009703041915092609370980179107A2070F
:1025B000B30708F48C01CF57DE4FE881F981C15889
:1025C000D1403A96EE0FFF1FEE0FFF1FA1E0B1E0E2
:1025D000AC0FBD1FEA0FFB1F608171818281938167
:1025E000970140E05C2D0E94680FB1CFCF93DF933D
:1025F000CDB7DEB7CC50D3400FB6F894DEBF0FBED8
:10260000CDBF81E00E942D0D1A8219821C821B828F
:102610001E821D821C861B861F82188619861A86BA
:102620000E946C070E94070B0E94CF040E94AD0419
:10263000909382038093810325E030E0AE014F5FE9
:102640005F4F69EA70E086E092E00E944D0128EE5B
:1026500033E0AE014F5F5F4F6AEC70E08FE092E0D5
:102660000E944D0124EF31E0AE014F5F5F4F60EA01
:1026700070E086E192E00E944D0125E030E050E0FC
:1026800040E06FE970E08CE192E00E944D010E9411
:102690009303C45FDC4F0FB6F894DEBF0FBECDBF0F
:1026A000DF91CF910895DB018F939F930E94AD132B
:1026B000BF91AF91A29F800D911DA39F900DB29FDE
:1026C000900D11240895AA1BBB1B51E107C0AA1F3E
:1026D000BB1FA617B70710F0A61BB70B881F991FC3
:1026E0005A95A9F780959095BC01CD01089597FB67
:1026F000072E16F4009407D077FD09D00E946313CB
:1027000007FC05D03EF4909581959F4F08957095F4
:1027100061957F4F0895A1E21A2EAA1BBB1BFD01F4
:102720000DC0AA1FBB1FEE1FFF1FA217B307E407B0
:10273000F50720F0A21BB30BE40BF50B661F771F08
:10274000881F991F1A9469F76095709580959095E8
:102750009B01AC01BD01CF0108950E94B813A59F54
:10276000900DB49F900DA49F800D911D112408958C
:10277000A29FB001B39FC001A39F700D811D1124C2
:10278000911DB29F700D811D1124911D08950F930D
:102790001F93CF93DF938230910510F482E090E095
:1027A000E0919E03F0919F0330E020E0B0E0A0E0D4
:1027B000309799F42115310509F44AC0281B390BCB
:1027C00024303105D8F58A819B816115710589F125
:1027D000FB0193838283FE0111C0408151810281FC
:1027E000138148175907E0F04817590799F41097D3
:1027F00061F012960C93129713961C933296CF01A8
:10280000DF91CF911F910F91089500939E03109334
:102810009F03F4CF2115310551F04217530738F0CB
:10282000A901DB019A01BD01DF01F801C1CFEF0170
:10283000F9CF90939F0380939E03CDCFFE01E20FCB
:10284000F31F819391932250310939832883D7CF85
:1028500020919C0330919D03232B41F4209102028F
:102860003091030230939D0320939C03209100023A
:10287000309101022115310541F42DB73EB7409149
:10288000040250910502241B350BE0919C03F0914A
:102890009D03E217F307A0F42E1B3F0B28173907FF
:1028A00078F0AC014E5F5F4F2417350748F04E0FAC
:1028B0005F1F50939D0340939C03819391939FCFFF
:1028C000F0E0E0E09CCFCF93DF930097E9F0FC01CC
:1028D000329713821282A0919E03B0919F03ED0163
:1028E00030E020E01097A1F420813181820F931F06
:1028F00020919C0330919D032817390709F061C08E
:10290000F0939D03E0939C03DF91CF910895EA013A
:10291000CE17DF07E8F54A815B819E01411551051D
:10292000B1F7E901FB83EA8349915991C40FD51F9F
:10293000EC17FD0761F4808191810296840F951F49
:10294000E90199838883828193819B838A83F0E064
:10295000E0E012968D919C9113970097B9F52D9117
:102960003C911197CD010296820F931F20919C03F9
:1029700030919D032817390739F6309751F5109299
:102980009F0310929E03B0939D03A0939C03BCCF22
:10299000D383C28340815181840F951FC817D90703
:1029A00061F44E5F5F4F88819981480F591F5183B1
:1029B00040838A819B81938382832115310509F0AD
:1029C000B0CFF0939F03E0939E039ECFFD01DC0107
:1029D000C0CF13821282D7CFFB01DC0102C001906D
:0E29E0000D9241505040D8F70895F894FFCF63
:1029EE000000A0032000706C61796261636B00725D
:1029FE0065616465720073746174730069646C65FB
:102A0E00006D61696E00094E616D653A09000D0A2F
:102A1E00095468726561642050433A09000D0A0931
:102A2E00537461636B2055736167653A09000D0A33
:102A3E0009537461636B2053697A653A09000D0A74
:102A4E000943757220537461636B5074723A0900B6
:102A5E000D0A09537461636B20426173653A090074
:102A6E0009537461636B20456E643A20000D0A09A8
:102A7E00546872656164205374617475733A090009
:102A8E005448524541442052554E4E494E4720001F
:102A9E00544852454144205245414459202020007B
:102AAE0054485245414420534C454550494E4700E9
:102ABE005448524541442057414954494E472000FD
:102ACE00554E5245434F474E495A4544202020000B
:102ADE000D0A0957616B6575702054696D653A2052
:102AEE00000D0A095363686564756C6520436F7544
:102AFE006E743A2020200050726F6772616D203321
:102B0E000D0A0053797374656D2054696D653A2012
:102B1E000073200928006D7329000D0A4E756D6231
:102B2E006572206F6620546872656164733A200086
:102B3E000D0A537761707320506572205365636F71
:102B4E006E643A20000D0A0D0A000D0A5468726573
:0C2B5E0061642049443A200030780000F7
:00000001FF
