:100000000C947C000C949D000C949D000C949D001D
:100010000C949D000C949D000C949D000C949D00EC
:100020000C949D000C949D000C949D000C949D00DC
:100030000C949D000C949D000C949D000C949D00CC
:100040000C949D000C945D030C949D000C949D00F9
:100050000C949D000C94F0030C949D000C949D0056
:100060000C949D000C949D000C949D000C949D009C
:100070000C949D000C949D000C949D000C949D008C
:100080000C949D000C949D000C949D000C949D007C
:100090000C949D000C949D000C949D000C949D006C
:1000A0000C949D000C949D000C949D000C949D005C
:1000B0000C949D000C949D000C949D000C949D004C
:1000C0000C949D000C949D000C949D000C949D003C
:1000D0000C949D000C949D000C949D000C949D002C
:1000E0000C949D000C949F000C9428020C94A0008A
:1000F0000C94D3040C94C10011241FBECFEFD1E2A5
:10010000DEBFCDBF00E00CBF13E0A0E0B2E0E0EB4B
:10011000FBE200E00BBF02C007900D92A239B107CD
:10012000D9F725E0A2E9B3E001C01D92A63BB207D2
:10013000E1F70E94CC130C94D6150C940000FFCF6D
:10014000EC01888199810B8110E0292F3327021758
:10015000130791F09C012F5F3F4F398328838C0F49
:100160009D1FFC0184858093B4008881998181154D
:10017000924010F01982188281E090E00E942B04D6
:10018000E0CFCF93DF9300D000D0CDB7DEB77C01B6
:100190001A8219829C012A5F3F4F3C832B83845F24
:1001A0009D4F9E838D8337019CE0690E711C4B81AE
:1001B0005C816D817E81CE0101960E945F121B01E0
:1001C0002C01F7012285338550E040E083010E9435
:1001D000ED12F7018285938501969387828720E04F
:1001E00031E033832283982F8827B0E0A0E0468156
:1001F00057816085718584179507A607B707D0F0EA
:1002000028C0F701C380D12CA180B12CCA14DB0413
:1002100089F10E948404F7019284812CA40170E08A
:1002200060E086819781A085B185481759076A07E4
:100230007B0778F40E943D08882319F30E94430845
:10024000803771F18E36E9F689819A8101969A8319
:100250008983F7018481958101969583848302C007
:100260000E948404F701808191818F3F9105C1F341
:10027000B8F39DCF2285338550E040E08301C20171
:10028000B1010E94ED12F701828593850196938753
:100290008287828193819395917093838283B9CF72
:1002A00089819A8101979A838983F7018481958155
:1002B000019795838483D6CF2CE033E0FC01A9011C
:1002C000119241505040E1F7DC01A45FBD4F89E03D
:1002D000E6E0F2E001900D928A95E1F70895CF9360
:1002E000DF93EC016EE185E20E946E0B80E20E94DA
:1002F000A50B8FE092E00E945808CE01845F9D4FCD
:100300000E9458086EE186E20E946E0B80E20E9415
:10031000A50B87E192E00E9458082A853B85A3E857
:10032000BEEB0E9497140024880F991F001C880FB1
:10033000991F001C892F902D0E94C5086EE187E24D
:100340000E946E0B81E20E94A50B87E192E00E9461
:1003500058082A853B85A3E8BEEB0E949714002429
:10036000880F991F001C880F991F001C892F902D42
:100370000E94C5086EE188E20E946E0B80E20E9436
:10038000A50B83E292E00E9458086E817F818885E8
:10039000998520EF35E540E050E00E947514C901D1
:1003A0000E94C5086EE189E20E946E0B80E20E9405
:1003B000A50B81E392E00E9458088C819D810E94E8
:1003C000C5086EE18AE20E946E0B80E20E94A50BD6
:1003D0008BE50E944C082A853B85A3E8BEEB0E9472
:1003E00097140024880F991F001C880F991F001C68
:1003F000892F902D22E3289FB001299F700D112491
:1004000090E080E02E813F81488559850E947514D7
:10041000203F354541055105A8F083E20E944C0874
:1004200081E20E94A50BC2E0D0E08FE50E944C085B
:100430002196CE010197C297C0F38DE5DF91CF9150
:100440000C944C0881E20E94A50BC1E0D0E0EDCFF6
:10045000EC0180919703909198030E949607CE013A
:100460000E946F0160E08CE20E946E0B8CE392E0D0
:100470000E94580889E993E00E94580885E492E0B8
:100480000E9458080E948404E4CFCF92DF92EF923A
:10049000FF920F931F93CF93DF938B016A01790132
:1004A000C0919703D0919803FE01E757FF4F208139
:1004B00031E1239FC00DD11D1124FE018193919341
:1004C0006A831183C7018D960E94B1149F838E8326
:1004D000FC01EE0DFF1DCF018D96998788877796D9
:1004E000FD83EC8381E08A871B861C861D861E8621
:1004F0001F86188A80E1DF011D928A95E9F783ED56
:1005000094E0858B948B138A028B118BC08AD786DB
:10051000E0919703F0919803E757FF4F80818F5F39
:100520008083DF91CF911F910F91FF90EF90DF902B
:10053000CF9008951F93CF93DF93E0919703F091AD
:100540009803DF01A757BF4F8C91882341F19F018A
:1005500091E1899F200D311D1124EF01C257DF4F1A
:1005600011E004C07196E217F307C9F0828582306A
:10057000C9F7458556856785708988819981AA81E3
:10058000BB8184179507A607B70760F31586168603
:100590001786108A12877196E217F30739F7DF91F1
:1005A000CF911F910895FF920F931F93CF93DF93E5
:1005B0000E949A020091970310919803F801E8575E
:1005C000FF4F40813196C081D0E0842F90E00196AA
:1005D000BE010E94611491E1F92E07C0C901019684
:1005E000BE010E946114481751F0282F30E0F80135
:1005F000F89EE00DF11D11249285923078F7DF917D
:10060000CF911F910F91FF9008952F923F924F929B
:100610005F926F927F928F929F92AF92BF92CF9292
:10062000DF92EF92FF920F931F93CF93DF93F0E04F
:10063000EDE52080EEE53080FB0121923082FC0167
:1006400021903080F0E0EDE52082EEE53082DF9110
:10065000CF911F910F91FF90EF90DF90CF90BF90BF
:10066000AF909F908F907F906F905F904F903F9052
:100670002F900895CF93DF93E0919703F091980323
:10068000EF01CD56DF4FDF01AE56BF4F8C9188830F
:100690001C9219978C91882369F09F0191E1899FA1
:1006A000200D311D11248385848713867196E217EE
:1006B000F307C9F7DF91CF9108951F920F920FB6FC
:1006C0000F9211240BB60F922F933F938F939F930A
:1006D000AF93BF93CF93DF93EF93FF93E091970393
:1006E000F0919803EF01C657DF4F88819981AA8165
:1006F000BB810196A11DB11D88839983AA83BB8309
:100700002996DF01AE56BF4F8C9188831C921997B2
:100710008C91882369F09F0191E1899F200D311D03
:1007200011248385848713867196E217F307C9F72E
:10073000FF91EF91DF91CF91BF91AF919F918F91F9
:100740003F912F910F900BBE0F900FBE0F901F90F7
:100750001895E0919703F0919803E857FF4F808137
:1007600090E00895209197033091980341E1682F1C
:1007700070E0F901489FE00DF11D112493859F5F02
:100780009387F901EE56FF4F90819F5F90833A97D0
:100790009081981721F18083F901499FE00DF11DA7
:1007A00011244285411102C041E0428741E1469F48
:1007B000F001479FF00D1124E20FF31F1286B901DB
:1007C000949F600D711D11246C5F7F4FF901849F10
:1007D000E00DF11D1124CF0104960E940503089538
:1007E0001F920F920FB60F9211240BB60F922F93F8
:1007F0003F934F935F936F937F938F939F93AF93A9
:10080000BF93EF93FF93E0919703F0919803E25722
:10081000FF4F80819181A281B3818D96A11DB11D71
:1008200080839183A283B3830E94D3020E94B20388
:10083000FF91EF91BF91AF919F918F917F916F91B8
:100840005F914F913F912F910F900BBE0F900FBE74
:100850000F901F9018951F93CF93DF93009721F46B
:10086000DF91CF911F910895F894209197033091D3
:100870009803F901E857FF4F408111E1F901149FF6
:10088000E00DF11D112422573F4F6DE2689FA0013A
:10089000699F500D1124E90188819981AA81BB814A
:1008A000840F951FA11DB11D85879687A787B08BE3
:1008B00082E082870E94D30240919703509198036F
:1008C000FA01E857FF4F9081981739F00E94B20360
:1008D0007894DF91CF911F910895189F9001112472
:1008E000420F531FFA019285923080F3789401C031
:1008F0000000E0919703F0919803E20FF31F9285B7
:100900009230B0F7F894E2CFF8940E94D3020E949C
:10091000B203789408950F931F93CF93DF931F92A0
:100920001F92CDB7DEB70091970310919803085737
:100930001F4FF80180818F3F49F00E9484040F907F
:100940000F90DF91CF911F910F9108950E94D302D4
:10095000F80180838091970390919803FC01E857F8
:10096000FF4F2081F1E12F9F90011124FC01E20F44
:10097000F31F128643854F5F4387FC01EE56FF4FFE
:1009800040814F5F40832C5F3F4FBE016F5F7F4FC1
:10099000820F931F0E9405030F900F90DF91CF915C
:1009A0001F910F9108957894F101C2010994F89470
:1009B0008091970390919803FC01E857FF4F2081A5
:1009C00031E1239F800D911D112424E0FC01228739
:1009D0000E948404CF93C82FCB018D960E94B1143E
:1009E000E0919703F091980321E1C29FE00DF11D82
:1009F000112497838683CF910895F894A09197034B
:100A0000B0919803FD01E757FF4FE081F1E1EF9FBF
:100A1000A00DB11D1124FD018193919312966C9349
:100A2000129771831696ED91FC911797E20FF31FC1
:100A3000CF018D9619969C938E931897779615965D
:100A4000FC93EE93149781E01A968C931A971B9659
:100A50001C921B971C961C921C971D961D921D9212
:100A60001D921C92509780E1DF011D928A95E9F753
:100A700083ED94E0858B948B138A628B718B408B12
:100A80005787E0919703F0919803E757FF4F8081D4
:100A90008F5F808378940895EEE6F0E08081826035
:100AA000808384B5826084BD85B5826085BD8AE51A
:100AB00087BD89E09DE39093890080938800EFE6ED
:100AC000F0E0808182608083E1E8F0E080818D60E9
:100AD00080830895F8940E944C05F89484E990E08E
:100AE0000E94B114FC019093980380939703DC015A
:100AF000A857BF4F1C92119681E08C9311961D92BE
:100B00001D921D921C92139714961D921D921D9278
:100B10001C92139786E792E091838083138212825E
:100B2000178216828FEF91E2918780871582148257
:100B3000128613861486158616861786108A1496D2
:100B40001C9211961C92CF010895F8940E944C05B6
:100B5000F89484E990E00E94B114909398038093F4
:100B60009703FC01E857FF4F2FEF20833196108247
:100B70003196108211821282138234961082118271
:100B80001282138234961082319610820895E0EB1F
:100B9000F0E0808183628083E1EBF0E0808181601E
:100BA0008083E1E0F1E08081806480830895FC012E
:100BB0001082118213861286158614860895CF93AB
:100BC000DF93EC01F8940E94A9039881911107C06A
:100BD00091E0988389837894DF91CF9108952C8553
:100BE0003D85EA85FB85E20FF31FE770FF27EC0FD9
:100BF000FD1F82832F5F3F4F3D872C87E091970336
:100C0000F091980391E1899FE00DF11D112483E09B
:100C10008287DF91CF910C948404FC01F894848541
:100C20009585009721F41082118278940895228589
:100C30003385DF01A20FB31F12964C912F5F3F4FF8
:100C400027703327338722870197958784874183CD
:100C5000E0919703F091980381E1489FE00DF11D29
:100C6000112481E0828778940895FC0160831286C4
:100C70001186148613860895CF93DF93EC01F894C0
:100C80008881181634F4815088837894DF91CF914D
:100C90000895815088830E94A9032B853C85E985AE
:100CA000FA85E20FF31FE770FF27EC0FFD1F81832A
:100CB0002F5F3F4F3C872B87E0919703F09198037C
:100CC00091E1899FE00DF11D112483E08287DF917E
:100CD000CF910C948404FC01F89490819F5F9083E1
:100CE000191614F478940895238534852115310557
:100CF000C9F381859285DF01A80FB91F11964C9128
:100D0000019687709927928781872150310934870E
:100D10002387E0919703F091980381E1489FE00DCC
:100D2000F11D112481E0828778940895FC01F894E4
:100D300090819F5F9083191614F478940895238509
:100D4000348521153105C9F341855285DF01A40F92
:100D5000B51F11968C914F5F5F4F47705527528793
:100D6000418721503109348723870E94B203789448
:100D70000895FF920F931F93CF93DF93F82E162FB2
:100D8000042FE9018091990590919A050E94DF0551
:100D90008F2D0E94A50B602F812F0E946E0BCE011C
:100DA0000E9458088091990590919A05DF91CF9102
:100DB0001F910F91FF900C940D068F929F92AF920E
:100DC000BF92CF92DF92EF92FF920F931F93CF9338
:100DD000DF93CDB7DEB761970FB6F894DEBF0FBED5
:100DE000CDBF89829A82CD82DE82EF82F886098722
:100DF0001A872B874D875E876F87788B898B09854C
:100E00001A858FE10E94A50B8BE792E00E9458089B
:100E10008BE50E94A50B89819A810E94580881E286
:100E20000E94A50B83E892E00E9458088DE50E947D
:100E3000A50B8D819E819801281B390BC9010E9449
:100E4000C50882E20E94A50B84E992E00E9458083E
:100E50008EE50E94A50B8F8198859801281B390B80
:100E6000C9010E94C50883E20E94A50B8FE10E9480
:100E7000A50B84EA92E00E9458088BE50E94A50B1E
:100E80008B85813009F44DC008F446C08230D1F121
:100E90008330E9F587EE92E00E94580880E20E94D4
:100EA000A50B87E093E00E9458088CE50E94A50BF3
:100EB0006E857F85888999890E941C0A81E20E943B
:100EC000A50B88E193E00E9458088DE50E94A50BD0
:100ED0008D8590E00E9404098EE793E061960FB63D
:100EE000F894DEBF0FBECDBFDF91CF911F910F9160
:100EF000FF90EF90DF90CF90BF90AF909F908F903A
:100F00000C94580887ED92E00E945808C7CF87EFED
:100F100092E00E945808C2CF87EB92E00E945808E6
:100F2000BDCF87EC92E00E945808B8CF4F925F92F5
:100F30006F927F928F929F92AF92BF92CF92DF92E9
:100F4000EF92FF920F931F93CF93DF93EC0161E039
:100F500081E00E946E0B84E20E94A50B8EE293E07A
:100F60000E9458088AE393E00E945808FE01E65761
:100F7000FF4F60817181828193810E949C0988E486
:100F800093E00E945808FE01E257FF4F6081718193
:100F9000828193810E949C098DE493E00E9458080D
:100FA00081E593E00E9458083E0189E8680E711CB3
:100FB000F301808190E00E94C50887E693E00E94DB
:100FC0005808FE01ED56FF4F808190E00E94040911
:100FD0008CE793E00E945808F3018081882371F127
:100FE000512C81E1482E84E20E94A50B81E893E018
:100FF0000E945808052D10E0C8010E94C508409EB7
:10100000F001419EF00D1124EC0FFD1F80809180B6
:10101000A280B380C480D580E680F78000851185EA
:1010200022853385448555856685778580890E942C
:10103000DD065394F30180815816A8F2DF91CF9119
:101040001F910F91FF90EF90DF90CF90BF90AF90E6
:101050009F908F907F906F905F904F90089582E067
:101060008093C0001092C50080E18093C400E1EC41
:10107000F0E080818861808308958091C000881F9E
:101080008827881F08958091C00087FF03C0809142
:10109000C60008958FEF08959091C10095FDFCCF93
:1010A0009091C00095FFF8CF8093C60081E008952D
:1010B000DC012C91222399F0FC0131969091C10022
:1010C00095FDFCCF9091C00095FFF8CF2093C6000E
:1010D000CF018A1B9B0B21912111F0CF089590E045
:1010E00080E00895FC019091C10095FDFCCF8091B6
:1010F000C00085FFF8CF8BE18093C6009091C100BE
:1011000095FDFCCF8091C00085FFF8CF8BE58093E3
:10111000C6002081222371F031969091C10095FD87
:10112000FCCF9091C00095FFF8CF2093C60021918D
:101130002111F3CF08950F931F93CF93DF93382F8F
:10114000292FC5E0D0E0E0E1F7E20AE010E0832FCC
:10115000922FBF010E944D14605D2091C10025FDBA
:10116000FCCF2091C00025FFF8CF6093C600382F38
:10117000292FCF01B8010E946114FB01219739F793
:10118000DF91CF911F910F9108950F931F93CF93EC
:10119000DF939C01C5E0D0E0E0E1F7E20AE010E077
:1011A000C901BF010E944D14672B81F4E130F105A4
:1011B00069F09C01CF01B8010E946114FB012197E5
:1011C00079F7DF91CF911F910F910895CAE0D0E098
:1011D000C901BF010E944D14605D2091C10025FD31
:1011E000FCCF2091C00025FFF8CF6093C6009C0182
:1011F000CF01BE010E946114FB01309749F7DF91D6
:10120000CF911F910F9108950F931F93CF93DF9369
:101210009C01C5E0D0E0E0E1F7E240E20AE010E046
:10122000C901BF010E944D14672BD1F4E130F105D3
:10123000B9F02091C10025FDFCCF2091C00025FF11
:10124000F8CF4093C6009C01CF01B8010E94611401
:10125000FB01219729F7DF91CF911F910F910895FD
:10126000CAE0D0E0C901BF010E944D14605D209129
:10127000C10025FDFCCF2091C00025FFF8CF609371
:10128000C6009C01CF01BE010E946114FB01309792
:1012900049F7DF91CF911F910F9108956F927F923F
:1012A0008F929F92AF92BF92CF92DF92EF92FF9276
:1012B0000F931F93CF93DF933B01D82FC92F0AE0E1
:1012C00010E0C12C8AECD82E8AE9E82E8BE3F82EA8
:1012D0009AE0892E912CA12CB12CB3018D2F9C2F3B
:1012E000A70196010E947514205D3091C10035FD63
:1012F000FCCF3091C00035FFF8CF2093C6003B01F2
:10130000D82FC92FC701B601A50194010E947514F9
:1013100069017A010150110901F7DF91CF911F9105
:101320000F91FF90EF90DF90CF90BF90AF909F9084
:101330008F907F906F9008954F925F926F927F92FF
:101340008F929F92AF92BF92CF92DF92EF92FF92D5
:101350000F931F93CF93DF93C62F172F082FD92FEB
:101360009AE0A92EB12CC12C2AECD22E2AE9E22E29
:101370002BE3F22E3AE0432E512C612C712C6C2F72
:10138000712F802F9D2FA70196010E947514232B8A
:10139000242B252B39F521E0C216D104E104F104F8
:1013A00009F1C62F172F082FD92FC701B601A301A6
:1013B00092010E94751469017A0181E0A81AB108AE
:1013C000F1F6DF91CF911F910F91FF90EF90DF9099
:1013D000CF90BF90AF909F908F907F906F905F90D5
:1013E0004F9008958AE0882E912CA12CB12C6C2F5F
:1013F000712F802F9D2FA70196010E947514205DEB
:101400003091C10035FDFCCF3091C00035FFF8CFE1
:101410002093C600C62F172F082FD92FC701B6015A
:10142000A50194010E94751469017A01C114D104C7
:10143000E104F104E1F6C5CF4F925F926F927F9283
:101440008F929F92AF92BF92CF92DF92EF92FF92D4
:101450000F931F93CF93DF93EB01182F092F9AE07F
:10146000A92EB12CC12C2AECD22E2AE9E22E2BE394
:10147000F22E30E2932E4AE0442E512C612C712C36
:10148000BE01812F902FA70196010E947514232B76
:10149000242B252B81F521E0C216D104E104F104AF
:1014A00051F12091C10025FDFCCF2091C00025FF06
:1014B000F8CF9092C600EB01182F092FC701B60193
:1014C000A30192010E94751469017A0181E0A81AB2
:1014D000B108B1F6DF91CF911F910F91FF90EF907E
:1014E000DF90CF90BF90AF909F908F907F906F9044
:1014F0005F904F9008958AE0882E912CA12CB12CFA
:10150000BE01812F902FA70196010E947514205DC6
:101510003091C10035FDFCCF3091C00035FFF8CFD0
:101520002093C600EB01182F092FC701B601A501B2
:1015300094010E94751469017A01C114D104E10477
:10154000F104F1F6C7CFBC0144E09B01232F332700
:1015500022952F702A303105A0F4205D9091C100B2
:1015600095FDFCCF9091C00095FFF8CF2093C60069
:1015700062957295707F7627607F7627415029F7B4
:101580000895295C9091C10095FDFCCF9091C00019
:1015900095FFF8CFEBCFBC01E0E9F3E020E39091B9
:1015A000C10095FDFCCF9091C00095FFF8CF20932E
:1015B000C60021912111F3CF44E080E09B01232F4D
:1015C000332722952F7081110EC02115310559F452
:1015D000413039F162957295707F7627607F76276A
:1015E000415061F70895822F2A30310568F4805DFB
:1015F0009091C10095FDFCCF9091C00095FFF8CF70
:101600008093C60081E0E6CF295C9091C10095FDF2
:10161000FCCF9091C00095FFF8CF2093C60081E0E9
:10162000D9CF80E0E4CFAB01BC01E0E9F3E090E387
:101630008091C10085FDFCCF8091C00085FFF8CF6F
:101640009093C60091919111F3CF28E030E018C03B
:101650000097A105B105F9F4213089F1440F551F18
:10166000661F771F440F551F661F771F440F551FB6
:10167000661F771F440F551F661F771F215069F1A2
:10168000DB01CA01ECE1B695A79597958795EA9598
:10169000D1F73323E9F2382F8A309105A105B1053E
:1016A00078F097E3980F8091C10085FDFCCF809181
:1016B000C00085FFF8CF9093C60031E0CFCF30E077
:1016C000305D8091C10085FDFCCF8091C00085FF19
:1016D000F8CF3093C60031E0C1CF0895CF93C62F25
:1016E0009091C10095FDFCCF9091C00095FFF8CF7F
:1016F0009BE19093C6009091C10095FDFCCF909125
:10170000C00095FFF8CF9BE59093C60090E00E9443
:10171000C5088091C10085FDFCCF8091C00085FF88
:10172000F8CF8BE38093C6008C2F90E00E94C50811
:101730008091C10085FDFCCF8091C00085FFF8CF6E
:1017400086E68093C600CF9108959091C10095FDE3
:10175000FCCF9091C00095FFF8CF9BE19093C6001D
:101760009091C10095FDFCCF9091C00095FFF8CFFE
:101770009BE59093C60090E00E94C5088091C1004F
:1017800085FDFCCF8091C00085FFF8CF8DE680936A
:10179000C60008958091C10085FDFCCF8091C000F6
:1017A00085FFF8CF8BE18093C6008091C10085FD55
:1017B000FCCF8091C00085FFF8CF8BE58093C600F9
:1017C0008091C10085FDFCCF8091C00085FFF8CFDE
:1017D00082E38093C6008091C10085FDFCCF80919B
:1017E000C00085FFF8CF8AE48093C60061E081E005
:1017F0000C946E0B8091C10085FDFCCF8091C000E0
:1018000085FFF8CF8BE18093C6008091C10085FDF4
:10181000FCCF8091C00085FFF8CF8BE58093C60098
:101820008091C10085FDFCCF8091C00085FFF8CF7D
:1018300088E48093C60008950F931F93CF93DF939E
:101840008A01E9010E946E0BF80190819923E9F069
:1018500031968091C10085FDFCCF8091C00085FF4D
:10186000F8CF9093C6009F01201B310B91919111ED
:10187000F0CF89010B5F1F4FCE010E940409C80100
:10188000DF91CF911F910F91089505E010E0F4CF03
:101890000F931F93CF93DF938A01E9010E946E0B90
:1018A000F80190819923F9F031968091C10085FD6E
:1018B000FCCF8091C00085FFF8CF9093C6009F01B8
:1018C000201B310B91919111F0CF8901065F1F4FC1
:1018D000BE0190E080E00E941C0AC801DF91CF9118
:1018E0001F910F9108950AE010E0F2CF8FEF8EBDA7
:1018F0008091A0059091A1059C012F5F3F4F3093EF
:10190000A1052093A0058130924098F44FEF0DB4CB
:1019100007FEFDCF4EBD8091A0059091A1059C01D1
:101920002F5F3F4F3093A1052093A0058130924057
:1019300070F30DB407FEFDCF289A8FEF8EBD0DB466
:1019400007FEFDCF109294030895809396030895A7
:1019500080939603609395030895CF93C82F809149
:10196000940381110E94760CC0939303CF91089544
:10197000809192030895809392030895CF92DF920D
:10198000EF92FF92CF93C82F6A017B01809194035D
:1019900081110E94760C289888EC97E9A4E0B0E0C9
:1019A0003FEF3EBD0DB407FEFDCF2EB52F3F41F0FA
:1019B0002AE02A95F1F700C00197A109B10989F73A
:1019C0008C2F80648EBD0DB407FEFDCF88E190E0C2
:1019D000B701A601082E04C07695679557954795DF
:1019E0000A94D2F74EBD0DB407FEFDCF0897883F8D
:1019F0002FEF920769F785E9CC2319F087E8C83003
:101A0000B9F48EBD0DB407FEFDCF90E02FEF2EBDD3
:101A10000DB407FEFDCF8EB587FF04C09F3F11F0C8
:101A20009F5FF5CFCF91FF90EF90DF90CF9008951B
:101A30008FEFE7CF8F929F92AF92BF92EF92FF927C
:101A40000F931F93CF93DF93EA01790120919403C1
:101A5000222371F080909C0590909D05A0909E059A
:101A6000B0909F0586169706A806B90609F44BC0E4
:101A700060939C0570939D0580939E0590939F05B0
:101A800020919203233039F029E0660F771F881FD9
:101A9000991F2A95D1F7AB01BC0181E10E94BE0CD0
:101AA00048EC57E964E070E02FEF811114C02EBDBF
:101AB0000DB407FEFDCF9EB59F3FE1F49AE09A95E5
:101AC000F1F700C0415051096109710981F79DE0AA
:101AD0009093960304C083E08093960380E0DF91A7
:101AE000CF911F910F91FF90EF90BF90AF909F907B
:101AF0008F9008959E3F09F45FC020E120939603E4
:101B000090939503ECCF2091A0053091A105421749
:101B1000530708F4ADCF8FEF8EBD8091A005909153
:101B2000A1058C179D0788F42FEF0DB407FEFDCF9C
:101B30002EBD8091A0059091A10501969093A105DD
:101B40008093A0058C179D0780F3A801415051098F
:101B500081F0F70198012E0D3F1D215031099FEFB3
:101B60000DB407FEFDCF8EB581939EBDE217F3073E
:101B7000B9F70DB407FEFDCF8EB5F701E40FF51FE1
:101B800080838091A0059091A105080F191F1093E3
:101B9000A1050093A00580919303882319F00115F6
:101BA000124020F080919403811102C081E097CF10
:101BB0000E94760C81E093CF1092A1051092A005AF
:101BC00081E080939403A7CF0F931F939A0100E0C5
:101BD00012E050E040E00E941A0D1F910F9108950D
:101BE000CF92DF92EF92FF921F93CF93DF93182F44
:101BF000209A289A229A219A83E58CBD8AE090E067
:101C00002FEF2EBD0DB407FEFDCF0197D1F7289819
:101C100081E092E02FEF2EBD0DB407FEFDCF3EB563
:101C20000197C9F7DBE040E050E0BA0180E00E9494
:101C3000BE0CC82F813089F0D150A9F781E0809384
:101C40009603C0939503C0E08C2FDF91CF911F9135
:101C5000FF90EF90DF90CF9008954AEA51E060E066
:101C600070E088E00E94BE0C813009F440C082FF21
:101C700051C0C093920388E6C82E88E8D82E8EE122
:101C8000E82EF12C07C081E0C81AD108E108F1085C
:101C900009F462C08AE08A95F1F700C040E050E0A4
:101CA000BA0187E30E94BE0C8091920340E050E0AD
:101CB000BA01823021F440E050E060E070E489E253
:101CC0000E94BE0C8111DFCF80919203823041F1DE
:101CD0008CB58C7F8CBD111103C08DB581608DBD1D
:101CE000289A8FEF8EBD0DB407FEFDCFADCF84E0F7
:101CF00090E03FEF3EBD0DB407FEFDCF2EB501973E
:101D0000C9F72A3A71F189E08093960320939503ED
:101D1000C0E09ACF92E09093960380939503ABCF67
:101D200040E050E0BA018AE30E94BE0C811121C05C
:101D30008FEF8EBD0DB407FEFDCF8EB5807C803C4D
:101D4000A1F083E090E02FEF2EBD0DB407FEFDCF94
:101D50003EB50197C9F7BCCF86E080939603C0E0FB
:101D600073CF82E08093920386CF83E080939203C7
:101D7000E8CF85E080939603C0E066CF0F931F9372
:101D80000115110579F0F801E40FF51FE130F2407B
:101D900028F40E941A0D1F910F91089580E01F9161
:101DA0000F91089581E01F910F9108958091940300
:101DB00081110C94760C0895CF93DF93D62FC72F03
:101DC00040E050E0BA010E94BE0C48EC57E964E0E4
:101DD00070E02FEF811114C02EBD0DB407FEFDCFB2
:101DE0009EB59F3FA1F49AE09A95F1F700C041504B
:101DF00051096109710981F79DE09093960304C030
:101E000088E08093960380E0DF91CF9108959E3F14
:101E100041F020E12093960390939503DF91CF91B9
:101E20000895ED2FFC2F9F01205F3F4F9FEF9EBD38
:101E30000DB407FEFDCF8EB58193E217F307B9F716
:101E40008FEF8EBD0DB407FEFDCF8EB58FEF8EBD2B
:101E50000DB407FEFDCF8EB5289A8FEF8EBD0DB461
:101E600007FEFDCF81E0DF91CF9108950F931F937F
:101E7000CF93DF93CDB7DEB760970FB6F894DEBF90
:101E80000FBECDBFBE016F5F7F4F89E00E94DC0EA9
:101E9000882309F447C08981807CA1F0803409F44B
:101EA00045C087E08093960360E070E0CB016096C8
:101EB0000FB6F894DEBF0FBECDBFDF91CF911F915B
:101EC0000F9108956F81637070E0762F6627770F0A
:101ED000770F888590E0880F991F880F991F682BCE
:101EE000792B89858295869586958370682B6F5F9F
:101EF0007F4F90E080E02A852370220F3B8537FBDF
:101F0000332730F9232B3E813F70230F3327331FB4
:101F10002750310904C0660F771F881F991F2A9523
:101F2000D2F7C5CF60E070E0CB01C1CF6885669580
:101F3000669570E090E080E0CB01772766272A85E0
:101F4000622B098510E0102F0027012E000C220BB8
:101F5000330B602B712B822B932B6F5F7F4F8F4F37
:101F60009F4F4AE0660F771F881F991F4A95D1F748
:101F70009ECF4F925F926F927F928F929F92AF927D
:101F8000BF92CF92DF92EF92FF92CF93C12CD12CD0
:101F90007601CFEF28EE422E23E0522E612C712CD9
:101FA0004C01B12CA12CCEBD0DB407FEFDCF9EB5CA
:101FB0009F3FB1F08FEFC81AD80AE80AF80A8AE002
:101FC0008A95F1F700C0C701B601A30192010E94F2
:101FD000751482169306A406B50628F780E001C0A2
:101FE00081E0CF91FF90EF90DF90CF90BF90AF90C6
:101FF0009F908F907F906F905F904F90089588ECA6
:1020000097E9A4E0B0E03FEF3EBD0DB407FEFDCF81
:102010002EB52F3F69F42AE02A95F1F700C0019709
:10202000A109B10989F78DE08093960380E00895B6
:102030002E3F39F080E1809396032093950380E052
:10204000089581E00895BC0189E00C94DC0EBC0188
:102050008AE00C94DC0E4F925F926F927F92AF9267
:10206000BF92CF92DF92EF92FF920F931F93CF9385
:10207000DF936A0159017801C0E0D2E0C41BD50B9F
:102080002B013C01440C551C661C771C8E01EC1680
:10209000FD0608F487019501A601C301B2010E9463
:1020A000BE0ECE15DF0578F0DF91CF911F910F9115
:1020B000FF90EF90DF90CF90BF90AF907F906F90A8
:1020C0005F904F900895870112500C0D1D1D9501D2
:1020D0002C0F3D1FC301B2016F5F7F4F8F4F9F4F8A
:1020E00050E040E00E94BE0EDFCF0F931F934115DA
:1020F000A2E05A0728F40E942B101F910F91089517
:10210000F8010130124078F45170660F771F881F74
:10211000991F6F5F7F4F8F4F9F4F8F010E94BE0EA1
:102120001F910F910895E0E0F2E0EECF0F931F931F
:10213000CF93DF93CDB7DEB7C455D1090FB6F8946E
:10214000DEBF0FBECDBF9E012F5F3F4F84E5F9017B
:1021500011928A95E9F704E510E050E040E061E073
:1021600070E080E090E00E942B1080E094E0098C09
:1021700002C0880F991F0A94E2F7092E000CAA0BDF
:10218000BB0B8093AA059093AB05A093AC05B093CD
:10219000AD0589A19AA1ABA1BCA18093AE05909396
:1021A000AF05A093B005B093B10589A59AA5ABA5DD
:1021B000BCA58093A6059093A705A093A805B0930E
:1021C000A905CC5ADF4F0FB6F894DEBF0FBECDBFC6
:1021D000DF91CF911F910F9108950F931F93CF938C
:1021E000DF93CDB7DEB7A0970FB6F894DEBF0FBE72
:1021F000CDBF00E210E09E012F5F3F4F50E040E076
:1022000062E070E080E090E00E942B1089859A8562
:10221000AB85BC858093A2059093A305A093A405EC
:10222000B093A505A0960FB6F894DEBF0FBECDBF44
:10223000DF91CF911F910F9108954F925F926F920E
:102240007F928F929F92AF92BF92CF92DF92EF9246
:10225000FF920F931F93CF93DF93EA0161507109AF
:10226000810991092091A6053091A7054091A80503
:102270005091A9050E94751469017A01660F771FB4
:10228000881F991F660F771F881F991F660F771F7A
:10229000881F991F660F771F881F991F660F771F6A
:1022A000881F991F660F771F881F991F660F771F5A
:1022B000881F991F2091AA053091AB054091AC056C
:1022C0005091AD050E94751429013A014B016091AE
:1022D000AE057091AF058091B0059091B105A70151
:1022E00096010E943D14C090A205D090A305E090F5
:1022F000A405F090A5056C0D7D1D8E1D9F1D640D20
:10230000751D861D971D00E810E09E01A4010E9426
:102310007510DF91CF911F910F91FF90EF90DF909B
:10232000CF90BF90AF909F908F907F906F905F9075
:102330004F9008952F923F924F925F926F927F92AB
:102340008F929F92AF92BF92CF92DF92EF92FF92C5
:102350000F931F93CF93DF93CDB7DEB7C058D44010
:102360000FB6F894DEBF0FBECDBF5A016901180148
:102370000091AA051091AB059E012F5F3F4F4901C7
:1023800050E040E00E942B104091AA055091AB050F
:102390006091AC057091AD05411551056105710560
:1023A00009F44EC08D819E81892B09F449C0F50145
:1023B0008081918184011AC00196F5019183808307
:1023C000F80124813581020F131F2801481859088C
:1023D000052C000C66087708441655066606770635
:1023E00078F5F80124813581232B51F1F601208104
:1023F00031812817390701F7F801608171818281E5
:102400009381AE014F5F5B4F0E941D11CF5FDB4F89
:1024100088819981C150D44097FD2FC0F6018081F9
:102420009181019691838083F50180819181409112
:10243000AA055091AB056091AC057091AD05BCCF7C
:1024400060E070E0CB01C058DB4F0FB6F894DEBF00
:102450000FBECDBFDF91CF911F910F91FF90EF90F5
:10246000DF90CF90BF90AF909F908F907F906F90B4
:102470005F904F903F902F900895CB5FDB4F888106
:102480009981AA81BB81C550D440F7018083918393
:10249000A283B383F80186819781F101E80FF91FC8
:1024A0001082892B31F0D8011896F1018D9181931A
:1024B000FDCFF8016081718182819381C4CF2F9219
:1024C0003F924F925F926F927F928F929F92AF92C4
:1024D000BF92CF92DF92EF92FF920F931F93CF9311
:1024E000DF93CDB7DEB7C258D1090FB6F894DEBF7F
:1024F0000FBECDBF5C014B013A010E9496100E94B5
:10250000ED10AE014F5F5F4F62E070E080E090E061
:102510000E941D11CF57DF4F19821882C158D04039
:102520008D819E81AF81B885892B8A2B8B2B09F4F5
:1025300050C06E0129E2C20ED11C212C312C210188
:1025400023941AC06091AA057091AB058091AC05E7
:102550009091AD05A20191010E943D14FFEF2F1A49
:102560003F0A4F0A5F0A0D811E812F81388560174F
:1025700071078207930768F5F60161917191819166
:1025800091916F01730184019501AE014F575F4F27
:102590000E949A11611571058105910599F2CE5736
:1025A000DF4F0FB6F894DEBF0FBECDBFDF91CF91E6
:1025B0001F910F91FF90EF90DF90CF90BF90AF9061
:1025C0009F908F907F906F905F904F903F902F9053
:1025D000089560E070E0CB01E2CF4F925F926F927E
:1025E0007F928F929F92AF92BF92CF92DF92EF92A3
:1025F000FF920F931F93CF93DF93CDB7DEB7C458ED
:10260000D1400FB6F894DEBF0FBECDBF49015A01CD
:10261000AE014F5F5E4F0E941D114424582C692C5F
:102620007A2C740141E0E422FF24FE2CEE24E00E1B
:10263000F11E640153E0C522DD24D501C401B69525
:10264000A79597958795B695A79597958795CF5711
:10265000DE4F88839983AA83BB83C158D14090E31E
:1026600089169104A104B10408F461C00091AA057F
:102670001091AB05C75ADE4F688179818A819B81B1
:10268000C955D1409E012F5F3F4F50E040E00E946E
:102690002B10CB5FDE4F088119812A813B81C55009
:1026A000D1408091AA059091AB05A091AC05B09165
:1026B000AD05041915092609370980179107A207E6
:1026C000B30798F1CF57DE4F88819981AA81BB81EA
:1026D000C158D1400C97A109B109E1E0F0E0EC0F3D
:1026E000FD1F8E0F9F1FDC016C9170E090E080E079
:1026F000970140E05C2D0E947510CC57DE4F0FB65D
:10270000F894DEBF0FBECDBFDF91CF911F910F9127
:10271000FF90EF90DF90CF90BF90AF909F908F9001
:102720007F906F905F904F9008958C01CBCFCB5FDF
:10273000DE4F088119812A813B81C550D1408091AB
:10274000AA059091AB05A091AC05B091AD05041917
:1027500015092609370980179107A207B30708F45E
:102760008C01CF57DE4FE881F981C158D1403A96AC
:10277000EE0FFF1FEE0FFF1FA1E0B1E0AC0FBD1F7A
:10278000EA0FFB1F6081718182819381970140E094
:102790005C2D0E947510B1CF0F931F93CF93DF93E1
:1027A000CDB7DEB7CC50D3400FB6F894DEBF0FBE26
:1027B000CDBF0E942F080E94CA0B81E00E94F00D3D
:1027C000811114C087E492E00E94580810E000E0F4
:1027D00080E00E944C080F5F1F4F003187E218070E
:1027E000B9F781E00E94F00D882361F3CE010196D4
:1027F0000E945C010E94C7050E94A5059093980362
:102800008093970325E030E0AE014F5F5F4F60EAB1
:1028100070E08BE592E00E94450224EC39E0AE01C5
:102820004F5F5F4F61EC70E084E692E00E944502EA
:1028300024EF31E0AE014F5F5F4F68E272E08BE65C
:1028400092E00E94450225E030E050E040E06FE970
:1028500070E081E792E00E9445020E948B0490E0C4
:1028600080E0C45FDC4F0FB6F894DEBF0FBECDBF73
:10287000DF91CF911F910F910895DB018F939F936B
:102880000E94A614BF91AF91A29F800D911DA39F9E
:10289000900DB29F900D11240895AA1BBB1B51E10E
:1028A00007C0AA1FBB1FA617B70710F0A61BB70BC0
:1028B000881F991F5A95A9F780959095BC01CD0165
:1028C000089597FB072E16F4009407D077FD09D0E2
:1028D0000E944D1407FC05D03EF4909581959F4FC2
:1028E0000895709561957F4F0895A1E21A2EAA1B55
:1028F000BB1BFD010DC0AA1FBB1FEE1FFF1FA217B0
:10290000B307E407F50720F0A21BB30BE40BF50BAC
:10291000661F771F881F991F1A9469F76095709535
:10292000809590959B01AC01BD01CF010895A29FB8
:10293000B001B39FC001A39F700D811D1124911D93
:10294000B29F700D811D1124911D08950E9497144E
:10295000A59F900DB49F900DA49F800D911D1124F3
:1029600008950F931F93CF93DF938230910510F456
:1029700082E090E0E091B405F091B50530E020E010
:10298000B0E0A0E0309799F42115310509F44AC070
:10299000281B390B24303105D8F58A819B816115BC
:1029A000710589F1FB0193838283FE0111C040818F
:1029B00051810281138148175907E0F048175907E0
:1029C00099F4109761F012960C93129713961C933A
:1029D0003296CF01DF91CF911F910F91089500930F
:1029E000B4051093B505F4CF2115310551F0421708
:1029F000530738F0A901DB019A01BD01DF01F8019D
:102A0000C1CFEF01F9CF9093B5058093B405CDCF39
:102A1000FE01E20FF31F8193919322503109398314
:102A20002883D7CF2091B2053091B305232B41F4F1
:102A300020910202309103023093B3052093B20536
:102A400020910002309101022115310541F42DB78A
:102A50003EB74091040250910502241B350BE091D2
:102A6000B205F091B305E217F307A0F42E1B3F0B5C
:102A70002817390778F0AC014E5F5F4F24173507F0
:102A800048F04E0F5F1F5093B3054093B2058193FA
:102A900091939FCFF0E0E0E09CCFCF93DF9300973E
:102AA000E9F0FC01329713821282A091B405B09133
:102AB000B505ED0130E020E01097A1F420813181CF
:102AC000820F931F2091B2053091B3052817390763
:102AD00009F061C0F093B305E093B205DF91CF91A7
:102AE0000895EA01CE17DF07E8F54A815B819E0170
:102AF00041155105B1F7E901FB83EA8349915991E9
:102B0000C40FD51FEC17FD0761F4808191810296F7
:102B1000840F951FE90199838883828193819B8328
:102B20008A83F0E0E0E012968D919C9113970097D4
:102B3000B9F52D913C911197CD010296820F931F0B
:102B40002091B2053091B3052817390739F630972F
:102B500051F51092B5051092B405B093B305A0934A
:102B6000B205BCCFD383C28340815181840F951FAE
:102B7000C817D90761F44E5F5F4F88819981480F6C
:102B8000591F518340838A819B81938382832115BE
:102B9000310509F0B0CFF093B505E093B4059ECFB1
:102BA000FD01DC01C0CF13821282D7CFF894FFCF92
:102BB0000000B60520006E6F207469746C650054C7
:102BC00069746C653A0900536F6E672054696D65CE
:102BD0003A0900536F6E67204C656E6774683A0956
:102BE00000536F6E67204E756D3A0900444542559B
:102BF000473A203C003E0053442043415244204980
:102C0000532042524F4B454E0D0A00706C61796261
:102C100061636B00726561646572007374617473E3
:102C20000069646C65006D61696E00094E616D65D7
:102C30003A09000D0A09537461636B20557361678B
:102C4000653A09000D0A09537461636B2053697A70
:102C5000653A09000D0A095468726561642053746D
:102C6000617475733A0900544852454144205255E5
:102C70004E4E494E4720005448524541442052454B
:102C80004144592020200054485245414420534C8F
:102C9000454550494E47005448524541442057410C
:102CA0004954494E472000554E5245434F474E49DF
:102CB0005A4544202020000D0A0957616B65757044
:102CC0002054696D653A20000D0A095363686564F4
:102CD000756C6520436F756E743A20202000507229
:102CE0006F6772616D20330D0A0053797374656DDF
:102CF0002054696D653A200073200928006D7329FE
:102D0000000D0A4E756D626572206F662054687200
:102D1000656164733A20000D0A5377617073205027
:102D20006572205365636F6E643A20000D0A0D0AC8
:102D3000000D0A5468726561642049443A200030ED
:022D4000780019
:00000001FF
