:100000000C9474000C9495000C9495000C9495003D
:100010000C9495000C9495000C9495000C9495000C
:100020000C9495000C9495000C9495000C949500FC
:100030000C9495000C9495000C9495000C949500EC
:100040000C9495000C94AF010C9495000C949500C1
:100050000C9495000C9442020C9495000C9495001D
:100060000C9495000C9495000C9495000C949500BC
:100070000C9495000C9495000C9495000C949500AC
:100080000C9495000C9495000C9495000C9495009C
:100090000C9495000C9495000C9495000C9495008C
:1000A0000C9495000C9495000C9495000C9495007C
:1000B0000C9495000C9495000C9495000C9495006C
:1000C0000C9495000C9495000C9495000C9495005C
:1000D0000C9495000C9495000C9495000C9495004C
:1000E0000C9495000C94250311241FBECFEFD1E290
:1000F000DEBFCDBF00E00CBF13E0A0E0B2E0EEE554
:10010000F0E200E00BBF02C007900D92A036B107ED
:10011000D9F723E0A0E6B3E001C01D92A437B207EF
:10012000E1F70E94B20E0C942D100C940000CF92B7
:10013000DF92EF92FF920F931F93CF93DF938B0188
:100140006A017901C0916503D0916603FE01E7570A
:10015000FF4F208131E1239FC00DD11D1124FE01ED
:10016000819391936A831183C7018D960E94080F32
:100170009F838E83FC01EE0DFF1DCF018D96998725
:1001800088877796FD83EC8381E08A871B861C86AF
:100190001D861E861F86188A80E1DF011D928A95C2
:1001A000E9F785E293E0858B948B138A028B118BA0
:1001B000C08AD786E0916503F0916603E757FF4F49
:1001C00080818F5F8083DF91CF911F910F91FF908E
:1001D000EF90DF90CF9008951F93CF93DF93E0913E
:1001E0006503F0916603DF01A757BF4F8C91882309
:1001F00041F19F0191E1899F200D311D1124EF01F3
:10020000C257DF4F11E004C07196E217F307C9F03F
:1002100082858230C9F745855685678570898881D2
:100220009981AA81BB8184179507A607B70760F358
:10023000158616861786108A12877196E217F307BD
:1002400039F7DF91CF911F910895FF920F931F937C
:10025000CF93DF930E94EC00009165031091660339
:10026000F801E857FF4F40813196C081D0E0842FDC
:1002700090E00196BE010E94D20E91E1F92E07C0D6
:10028000C9010196BE010E94D20E481751F0282FD5
:1002900030E0F801F89EE00DF11D112492859230B6
:1002A00078F7DF91CF911F910F91FF9008952F92D2
:1002B0003F924F925F926F927F928F929F92AF92F6
:1002C000BF92CF92DF92EF92FF920F931F93CF9343
:1002D000DF93F0E0EDE52080EEE53080FB01219238
:1002E0003082FC0121903080F0E0EDE52082EEE5E7
:1002F0003082DF91CF911F910F91FF90EF90DF90AF
:10030000CF90BF90AF909F908F907F906F905F90B5
:100310004F903F902F900895CF93DF93E091650326
:10032000F0916603EF01CD56DF4FDF01AE56BF4FB0
:100330008C9188831C9219978C91882369F09F0176
:1003400091E1899F200D311D1124838584871386B7
:100350007196E217F307C9F7DF91CF9108951F92C5
:100360000F920FB60F9211240BB60F922F933F935B
:100370008F939F93AF93BF93CF93DF93EF93FF93AD
:10038000E0916503F0916603EF01C657DF4F888166
:100390009981AA81BB810196A11DB11D8883998392
:1003A000AA83BB832996DF01AE56BF4F8C91888309
:1003B0001C9219978C91882369F09F0191E1899F84
:1003C000200D311D11248385848713867196E217D1
:1003D000F307C9F7FF91EF91DF91CF91BF91AF91F3
:1003E0009F918F913F912F910F900BBE0F900FBE59
:1003F0000F901F901895E0916503F0916603E85700
:10040000FF4F808190E0089520916503309166034D
:1004100041E1682F70E0F901489FE00DF11D1124C2
:1004200093859F5F9387F901EE56FF4F90819F5F01
:1004300090833A979081981721F18083F901499F21
:10044000E00DF11D11244285411102C041E04287B7
:1004500041E1469FF001479FF00D1124E20FF31F89
:100460001286B901949F600D711D11246C5F7F4F3E
:10047000F901849FE00DF11D1124CF0104960E9423
:10048000570108951F920F920FB60F9211240BB6C9
:100490000F922F933F934F935F936F937F938F931D
:1004A0009F93AF93BF93EF93FF93E0916503F09118
:1004B0006603E257FF4F80819181A281B3818D96BF
:1004C000A11DB11D80839183A283B3830E94250166
:1004D0000E940402FF91EF91BF91AF919F918F9184
:1004E0007F916F915F914F913F912F910F900BBE34
:1004F0000F900FBE0F901F9018951F93CF93DF930F
:10050000009721F4DF91CF911F910895F8942091E5
:10051000650330916603F901E857FF4F408111E10F
:10052000F901149FE00DF11D112422573F4F6DE298
:10053000689FA001699F500D1124E901888199816C
:10054000AA81BB81840F951FA11DB11D8587968748
:10055000A787B08B82E082870E94250140916503C6
:1005600050916603FA01E857FF4F9081981739F0D0
:100570000E9404027894DF91CF911F910895189FF3
:1005800090011124420F531FFA019285923080F39B
:10059000789401C00000E0916503F0916603E20FDA
:1005A000F31F92859230B0F7F894E2CFF8940E944E
:1005B00025010E940402789408950F931F93CF930E
:1005C000DF931F921F92CDB7DEB7009165031091A4
:1005D000660308571F4FF80180818F3F49F00E9442
:1005E000D6020F900F90DF91CF911F910F91089538
:1005F0000E942501F8018083809165039091660334
:10060000FC01E857FF4F2081F1E12F9F9001112459
:10061000FC01E20FF31F128643854F5F4387FC0105
:10062000EE56FF4F40814F5F40832C5F3F4FBE012E
:100630006F5F7F4F820F931F0E9457010F900F90A3
:10064000DF91CF911F910F9108957894F101C2012C
:100650000994F8948091650390916603FC01E85732
:10066000FF4F208131E1239F800D911D112424E053
:10067000FC0122870E94D602CF93C82FCB018D9612
:100680000E94080FE0916503F091660321E1C29F8B
:10069000E00DF11D112497838683CF910895F8947E
:1006A000A0916503B0916603FD01E757FF4FE0811C
:1006B000F1E1EF9FA00DB11D1124FD0181939193F4
:1006C00012966C93129771831696ED91FC91179781
:1006D000E20FF31FCF018D9619969C938E93189776
:1006E00077961596FC93EE93149781E01A968C9367
:1006F0001A971B961C921B971C961C921C971D9672
:100700001D921D921D921C92509780E1DF011D9257
:100710008A95E9F785E293E0858B948B138A628B47
:10072000718B408B5787E0916503F0916603E75723
:10073000FF4F80818F5F808378940895EEE6F0E02C
:1007400080818260808384B5826084BD85B582604B
:1007500085BD8AE587BD89E09DE3909389008093FC
:100760008800EFE6F0E0808182608083E1E8F0E0DD
:1007700080818D6080830895F8940E949E03F89490
:1007800084E990E00E94080FFC0190936603809337
:100790006503DC01A857BF4F1C92119681E08C9332
:1007A00011961D921D921D921C92139714961D92E4
:1007B0001D921D921C92139786E092E09183808394
:1007C00013821282178216828FEF91E291878087BF
:1007D000158214821286138614861586168617864D
:1007E000108A14961C9211961C92CF010895F894C9
:1007F0000E949E03F89484E990E00E94080F909371
:10080000660380936503FC01E857FF4F2FEF2083B9
:1008100031961082319610821182128213823496A0
:1008200010821182128213823496108231961082C5
:100830000895E0EBF0E0808183628083E1EBF0E0FB
:10084000808181608083E1E0F1E080818064808349
:100850000895FC0110821182138612861586148673
:100860000895CF93DF93EC01F8940E94FB019881E7
:10087000911107C091E0988389837894DF91CF919B
:1008800008952C853D85EA85FB85E20FF31FE7700F
:10089000FF27EC0FFD1F82832F5F3F4F3D872C8783
:1008A000E0916503F091660391E1899FE00DF11DF0
:1008B000112483E08287DF91CF910C94D602FC0152
:1008C000F89484859585009721F41082118278949C
:1008D000089522853385DF01A20FB31F12964C9134
:1008E0002F5F3F4F277033273387228701979587E4
:1008F00084874183E0916503F091660381E1489F1D
:10090000E00DF11D112481E0828778940895FC01A7
:10091000608312861186148613860895CF93DF9321
:10092000EC01F8948881181634F481508883789407
:10093000DF91CF910895815088830E94FB012B8520
:100940003C85E985FA85E20FF31FE770FF27EC0F7E
:10095000FD1F81832F5F3F4F3C872B87E09165030D
:10096000F091660391E1899FE00DF11D112483E070
:100970008287DF91CF910C94D602FC01F89490818C
:100980009F5F9083191614F4789408952385348515
:1009900021153105C9F381859285DF01A80FB91FA3
:1009A00011964C91019687709927928781872150E3
:1009B000310934872387E0916503F091660381E173
:1009C000489FE00DF11D112481E0828778940895FD
:1009D000FC01F89490819F5F9083191614F4789429
:1009E00008952385348521153105C9F34185528544
:1009F000DF01A40FB51F11968C914F5F5F4F4770B9
:100A000055275287418721503109348723870E9417
:100A1000040278940895FF920F931F93CF93DF936E
:100A2000F82E162F042FE901809167039091680337
:100A30000E9431048F2D0E942C0A602F812F0E946A
:100A4000F509CE010E94DF0680916703909168034B
:100A5000DF91CF911F910F91FF900C945F048F92C3
:100A60009F92AF92BF92CF92DF92EF92FF920F933D
:100A70001F93CF93DF93CDB7DEB761970FB6F8948E
:100A8000DEBF0FBECDBF89829A82AB82BC82CD828F
:100A9000DE82EF82F88609871A872B874D875E876B
:100AA0006F87788B898BCD80DE80EF80F884098515
:100AB0001A858FE10E942C0A8BE092E00E94DF06EB
:100AC0008BE50E942C0A89819A810E94DF0680E2D0
:100AD0000E942C0A83E192E00E94DF068CE50E94CE
:100AE0002C0A8B819C810E94520981E20E942C0A6F
:100AF00082E292E00E94DF068DE50E942C0AC80186
:100B00008C199D090E944C0782E20E942C0A83E303
:100B100092E00E94DF068EE50E942C0AC8018E1921
:100B20009F090E944C0783E20E942C0A83E492E012
:100B30000E94DF068EE50E942C0A8FE50E942C0A97
:100B4000C6010E94520984E20E942C0A85E592E0C7
:100B50000E94DF0680E60E942C0AC7010E9452090B
:100B600085E20E942C0A85E692E00E94DF0681E67B
:100B70000E942C0AC8010E9452098FE10E942C0A8F
:100B800082E792E00E94DF068BE50E942C0A8B85AB
:100B9000813009F44DC008F446C08230D1F1833071
:100BA000E9F585EB92E00E94DF0680E20E942C0AC4
:100BB00085ED92E00E94DF068CE50E942C0A6E858E
:100BC0007F85888999890E94A30881E20E942C0A66
:100BD00086EE92E00E94DF068DE50E942C0A8D854C
:100BE00090E00E948B078CE493E061960FB6F89436
:100BF000DEBF0FBECDBFDF91CF911F910F91FF9050
:100C0000EF90DF90CF90BF90AF909F908F900C941B
:100C1000DF0685EA92E00E94DF06C7CF85EC92E00E
:100C20000E94DF06C2CF85E892E00E94DF06BDCFBA
:100C300085E992E00E94DF06B8CF4F925F926F92F3
:100C40007F928F929F92AF92BF92CF92DF92EF925C
:100C5000FF920F931F93CF93DF93EC0161E081E04C
:100C60000E94F50984E20E942C0A8CEF92E00E9417
:100C7000DF0688E093E00E94DF06FE01E657FF4FA3
:100C800060817181828193810E94230886E193E0D3
:100C90000E94DF06FE01E257FF4F60817181828171
:100CA00093810E9423088BE193E00E94DF068FE18D
:100CB00093E00E94DF063E0189E8680E711CF30193
:100CC000808190E00E944C0785E393E00E94DF065C
:100CD000FE01ED56FF4F808190E00E948B078AE471
:100CE00093E00E94DF06F3018081882371F1512C8B
:100CF00081E1482E84E20E942C0A8FE493E00E9456
:100D0000DF06052D10E0C8010E944C07409EF0014F
:100D1000419EF00D1124EC0FFD1F80809180A28078
:100D2000B380C480D580E680F78000851185228558
:100D30003385448555856685778580890E942F0592
:100D40005394F30180815816A8F2DF91CF911F913F
:100D50000F91FF90EF90DF90CF90BF90AF909F905A
:100D60008F907F906F905F904F90089582E0809376
:100D7000C0001092C50080E18093C400E1ECF0E077
:100D800080818861808308958091C000881F8827B2
:100D9000881F08958091C00087FF03C08091C6001E
:100DA00008958FEF08959091C10095FDFCCF90912B
:100DB000C00095FFF8CF8093C60081E00895DC0164
:100DC0002C91222399F0FC0131969091C10095FD60
:100DD000FCCF9091C00095FFF8CF2093C600CF01C3
:100DE0008A1B9B0B21912111F0CF089590E080E0A8
:100DF0000895FC019091C10095FDFCCF8091C00049
:100E000085FFF8CF8BE18093C6009091C10095FDDE
:100E1000FCCF8091C00085FFF8CF8BE58093C600A2
:100E20002081222371F031969091C10095FDFCCF75
:100E30009091C00095FFF8CF2093C6002191211119
:100E4000F3CF08950F931F93CF93DF93382F292F5C
:100E5000C5E0D0E0E0E1F7E20AE010E0832F922F56
:100E6000BF010E94BE0E605D2091C10025FDFCCF38
:100E70002091C00025FFF8CF6093C600382F292F9E
:100E8000CF01B8010E94D20EFB01219739F7DF9103
:100E9000CF911F910F9108950F931F93CF93DF93DD
:100EA0009C01C5E0D0E0E0E1F7E20AE010E0C90112
:100EB000BF010E94BE0E672B81F4E130F10569F09D
:100EC0009C01CF01B8010E94D20EFB01219779F756
:100ED000DF91CF911F910F910895CAE0D0E0C90131
:100EE000BF010E94BE0E605D2091C10025FDFCCFB8
:100EF0002091C00025FFF8CF6093C6009C01CF0170
:100F0000BE010E94D20EFB01309749F7DF91CF91CD
:100F10001F910F9108950F931F93CF93DF939C011F
:100F2000C5E0D0E0E0E1F7E240E20AE010E0C9010C
:100F3000BF010E94BE0E672BD1F4E130F105B9F07C
:100F40002091C10025FDFCCF2091C00025FFF8CFE6
:100F50004093C6009C01CF01B8010E94D20EFB0154
:100F6000219729F7DF91CF911F910F910895CAE042
:100F7000D0E0C901BF010E94BE0E605D2091C1009A
:100F800025FDFCCF2091C00025FFF8CF6093C6005F
:100F90009C01CF01BE010E94D20EFB01309749F7A0
:100FA000DF91CF911F910F9108956F927F928F9251
:100FB0009F92AF92BF92CF92DF92EF92FF920F93E8
:100FC0001F93CF93DF933B01D82FC92F0AE010E086
:100FD000C12C8AECD82E8AE9E82E8BE3F82E9AE011
:100FE000892E912CA12CB12CB3018D2F9C2FA70100
:100FF00096010E94E60E205D3091C10035FDFCCFC8
:101000003091C00035FFF8CF2093C6003B01D82FA8
:10101000C92FC701B601A50194010E94E60E69011E
:101020007A010150110901F7DF91CF911F910F91C2
:10103000FF90EF90DF90CF90BF90AF909F908F90F8
:101040007F906F9008954F925F926F927F928F92F0
:101050009F92AF92BF92CF92DF92EF92FF920F9347
:101060001F93CF93DF93C62F172F082FD92F9AE006
:10107000A92EB12CC12C2AECD22E2AE9E22E2BE388
:10108000F22E3AE0432E512C612C712C6C2F712FD3
:10109000802F9D2FA70196010E94E60E232B242B63
:1010A000252B39F521E0C216D104E104F10409F140
:1010B000C62F172F082FD92FC701B601A301920100
:1010C0000E94E60E69017A0181E0A81AB108F1F6E2
:1010D000DF91CF911F910F91FF90EF90DF90CF9014
:1010E000BF90AF909F908F907F906F905F904F9048
:1010F00008958AE0882E912CA12CB12C6C2F712F91
:10110000802F9D2FA70196010E94E60E205D309151
:10111000C10035FDFCCF3091C00035FFF8CF2093E2
:10112000C600C62F172F082FD92FC701B601A5015A
:1011300094010E94E60E69017A01C114D104E10410
:10114000F104E1F6C5CF4F925F926F927F928F923A
:101150009F92AF92BF92CF92DF92EF92FF920F9346
:101160001F93CF93DF93EB01182F092F9AE0A92E3D
:10117000B12CC12C2AECD22E2AE9E22E2BE3F22E3E
:1011800030E2932E4AE0442E512C612C712CBE018A
:10119000812F902FA70196010E94E60E232B242B6E
:1011A000252B81F521E0C216D104E104F10451F1AF
:1011B0002091C10025FDFCCF2091C00025FFF8CF74
:1011C0009092C600EB01182F092FC701B601A301A9
:1011D00092010E94E60E69017A0181E0A81AB10825
:1011E000B1F6DF91CF911F910F91FF90EF90DF90BB
:1011F000CF90BF90AF909F908F907F906F905F90B7
:101200004F9008958AE0882E912CA12CB12CBE011C
:10121000812F902FA70196010E94E60E205D30914C
:10122000C10035FDFCCF3091C00035FFF8CF2093D1
:10123000C600EB01182F092FC701B601A5019401C3
:101240000E94E60E69017A01C114D104E104F1049F
:10125000F1F6C7CFBC0144E09B01232F3327229531
:101260002F702A303105A0F4205D9091C10095FDCA
:10127000FCCF9091C00095FFF8CF2093C6006295F7
:101280007295707F7627607F7627415029F7089501
:10129000295C9091C10095FDFCCF9091C00095FF15
:1012A000F8CFEBCFBC01EEE5F3E020E39091C10075
:1012B00095FDFCCF9091C00095FFF8CF2093C6001C
:1012C00021912111F3CF44E080E09B01232F3327AC
:1012D00022952F7081110EC02115310559F441302E
:1012E00039F162957295707F7627607F762741503D
:1012F00061F70895822F2A30310568F4805D90915E
:10130000C10095FDFCCF9091C00095FFF8CF809370
:10131000C60081E0E6CF295C9091C10095FDFCCF2D
:101320009091C00095FFF8CF2093C60081E0D9CFFF
:1013300080E0E4CFAB01BC01EEE5F3E090E3809107
:10134000C10085FDFCCF8091C00085FFF8CF909350
:10135000C60091919111F3CF28E030E018C00097BA
:10136000A105B105F9F4213089F1440F551F661F1D
:10137000771F440F551F661F771F440F551F661FA9
:10138000771F440F551F661F771F215069F1DB013E
:10139000CA01ECE1B695A79597958795EA95D1F79F
:1013A0003323E9F2382F8A309105A105B10578F091
:1013B00097E3980F8091C10085FDFCCF8091C0001C
:1013C00085FFF8CF9093C60031E0CFCF30E0305D9D
:1013D0008091C10085FDFCCF8091C00085FFF8CFD2
:1013E0003093C60031E0C1CF0895CF93C62F9091BE
:1013F000C10095FDFCCF9091C00095FFF8CF9BE117
:101400009093C6009091C10095FDFCCF9091C000D3
:1014100095FFF8CF9BE59093C60090E00E944C07A3
:101420008091C10085FDFCCF8091C00085FFF8CF81
:101430008BE38093C6008C2F90E00E944C07809134
:10144000C10085FDFCCF8091C00085FFF8CF86E606
:101450008093C600CF9108959091C10095FDFCCF77
:101460009091C00095FFF8CF9BE19093C6009091BA
:10147000C10095FDFCCF9091C00095FFF8CF9BE592
:101480009093C60090E00E944C078091C10085FDBA
:10149000FCCF8091C00085FFF8CF8DE68093C60019
:1014A00008958091C10085FDFCCF8091C00085FF2B
:1014B000F8CF8BE18093C6008091C10085FDFCCF01
:1014C0008091C00085FFF8CF8BE58093C6008091A6
:1014D000C10085FDFCCF8091C00085FFF8CF82E37D
:1014E0008093C6008091C10085FDFCCF8091C00033
:1014F00085FFF8CF8AE48093C60061E081E00C9418
:10150000F5098091C10085FDFCCF8091C00085FF69
:10151000F8CF8BE18093C6008091C10085FDFCCFA0
:101520008091C00085FFF8CF8BE58093C600809145
:10153000C10085FDFCCF8091C00085FFF8CF88E415
:101540008093C60008950F931F93CF93DF938A0172
:10155000E9010E94F509F80190819923E9F031969B
:101560008091C10085FDFCCF8091C00085FFF8CF40
:101570009093C6009F01201B310B91919111F0CFE8
:1015800089010B5F1F4FCE010E948B07C801DF91BD
:10159000CF911F910F91089505E010E0F4CF0F93C4
:1015A0001F93CF93DF938A01E9010E94F509F801A7
:1015B00090819923F9F031968091C10085FDFCCF8F
:1015C0008091C00085FFF8CF9093C6009F01201B3B
:1015D000310B91919111F0CF8901065F1F4FBE0130
:1015E00090E080E00E94A308C801DF91CF911F9195
:1015F0000F9108950AE010E0F2CF8FEF8EBD809139
:101600006E0390916F039C012F5F3F4F30936F03E8
:1016100020936E038130924098F44FEF0DB407FE93
:10162000FDCF4EBD80916E0390916F039C012F5FA3
:101630003F4F30936F0320936E038130924070F3DD
:101640000DB407FEFDCF289A8FEF8EBD0DB407FEB7
:10165000FDCF1092620308958093640308958093F0
:101660006403609363030895CF93C82F809162034E
:1016700081110E94FD0AC0936103CF91089580916A
:1016800060030895809360030895CF92DF92EF92F4
:10169000FF92CF93C82F6A017B0180916203811171
:1016A0000E94FD0A289888EC97E9A4E0B0E03FEF9B
:1016B0003EBD0DB407FEFDCF2EB52F3F41F02AE011
:1016C0002A95F1F700C00197A109B10989F78C2F7C
:1016D00080648EBD0DB407FEFDCF88E190E0B701B8
:1016E000A601082E04C076956795579547950A94EC
:1016F000D2F74EBD0DB407FEFDCF0897883F2FEF00
:10170000920769F785E9CC2319F087E8C830B9F466
:101710008EBD0DB407FEFDCF90E02FEF2EBD0DB4B2
:1017200007FEFDCF8EB587FF04C09F3F11F09F5F7E
:10173000F5CFCF91FF90EF90DF90CF9008958FEF8E
:10174000E7CF8F929F92AF92BF92EF92FF920F934B
:101750001F93CF93DF93EA01790120916203222343
:1017600071F080906A0390906B03A0906C03B0902E
:101770006D0386169706A806B90609F44BC0609358
:101780006A0370936B0380936C0390936D032091B5
:101790006003233039F029E0660F771F881F991FF7
:1017A0002A95D1F7AB01BC0181E10E94450B48ECC1
:1017B00057E964E070E02FEF811114C02EBD0DB425
:1017C00007FEFDCF9EB59F3FE1F49AE09A95F1F7B1
:1017D00000C0415051096109710981F79DE0909362
:1017E000640304C083E08093640380E0DF91CF91C1
:1017F0001F910F91FF90EF90BF90AF909F908F90AF
:1018000008959E3F09F45FC020E120936403909304
:101810006303ECCF20916E0330916F03421753079F
:1018200008F4ADCF8FEF8EBD80916E0390916F0362
:101830008C179D0788F42FEF0DB407FEFDCF2EBD4A
:1018400080916E0390916F03019690936F03809344
:101850006E038C179D0780F3A8014150510981F058
:10186000F70198012E0D3F1D215031099FEF0DB456
:1018700007FEFDCF8EB581939EBDE217F307B9F742
:101880000DB407FEFDCF8EB5F701E40FF51F808381
:1018900080916E0390916F03080F191F10936F03CF
:1018A00000936E0380916103882319F001151240A3
:1018B00020F080916203811102C081E097CF0E94E5
:1018C000FD0A81E093CF10926F0310926E0381E0C6
:1018D00080936203A7CF0F931F939A0100E012E059
:1018E00050E040E00E94A10B1F910F910895CF920C
:1018F000DF92EF92FF921F93CF93DF93182F209ADE
:10190000289A229A219A83E58CBD8AE090E02FEFF5
:101910002EBD0DB407FEFDCF0197D1F7289881E0C9
:1019200092E02FEF2EBD0DB407FEFDCF3EB501971F
:10193000C9F7DBE040E050E0BA0180E00E94450BCF
:10194000C82F813089F0D150A9F781E080936403DA
:10195000C0936303C0E08C2FDF91CF911F91FF9064
:10196000EF90DF90CF9008954AEA51E060E070E098
:1019700088E00E94450B813009F440C082FF51C0CD
:10198000C093600388E6C82E88E8D82E8EE1E82E42
:10199000F12C07C081E0C81AD108E108F10809F468
:1019A00062C08AE08A95F1F700C040E050E0BA01D9
:1019B00087E30E94450B8091600340E050E0BA014C
:1019C000823021F440E050E060E070E489E20E945F
:1019D000450B8111DFCF80916003823041F18CB5DE
:1019E0008C7F8CBD111103C08DB581608DBD289A8F
:1019F0008FEF8EBD0DB407FEFDCFADCF84E090E03C
:101A00003FEF3EBD0DB407FEFDCF2EB50197C9F7E0
:101A10002A3A71F189E08093640320936303C0E064
:101A20009ACF92E09093640380936303ABCF40E03E
:101A300050E0BA018AE30E94450B811121C08FEF6B
:101A40008EBD0DB407FEFDCF8EB5807C803CA1F02D
:101A500083E090E02FEF2EBD0DB407FEFDCF3EB525
:101A60000197C9F7BCCF86E080936403C0E073CFD1
:101A700082E08093600386CF83E080936003E8CFA9
:101A800085E080936403C0E066CF0F931F93011538
:101A9000110579F0F801E40FF51FE130F24028F468
:101AA0000E94A10B1F910F91089580E01F910F914B
:101AB000089581E01F910F91089580916203811133
:101AC0000C94FD0A0895CF93DF93D62FC72F40E0E3
:101AD00050E0BA010E94450B48EC57E964E070E021
:101AE0002FEF811114C02EBD0DB407FEFDCF9EB5A2
:101AF0009F3FA1F49AE09A95F1F700C04150510937
:101B00006109710981F79DE09093640304C088E046
:101B10008093640380E0DF91CF9108959E3F41F070
:101B200020E12093640390936303DF91CF910895A4
:101B3000ED2FFC2F9F01205F3F4F9FEF9EBD0DB407
:101B400007FEFDCF8EB58193E217F307B9F78FEF4C
:101B50008EBD0DB407FEFDCF8EB58FEF8EBD0DB4DB
:101B600007FEFDCF8EB5289A8FEF8EBD0DB407FE10
:101B7000FDCF81E0DF91CF9108950F931F93CF9315
:101B8000DF93CDB7DEB760970FB6F894DEBF0FBE18
:101B9000CDBFBE016F5F7F4F89E00E94630D882338
:101BA00009F447C08981807CA1F0803409F445C0E4
:101BB00087E08093640360E070E0CB0160960FB62D
:101BC000F894DEBF0FBECDBFDF91CF911F910F9173
:101BD00008956F81637070E0762F6627770F770F17
:101BE000888590E0880F991F880F991F682B792BA3
:101BF00089858295869586958370682B6F5F7F4F68
:101C000090E080E02A852370220F3B8537FB332745
:101C100030F9232B3E813F70230F3327331F27508A
:101C2000310904C0660F771F881F991F2A95D2F7C4
:101C3000C5CF60E070E0CB01C1CF68856695669541
:101C400070E090E080E0CB01772766272A85622B41
:101C5000098510E0102F0027012E000C220B330BFA
:101C6000602B712B822B932B6F5F7F4F8F4F9F4F7A
:101C70004AE0660F771F881F991F4A95D1F79ECFBC
:101C80004F925F926F927F928F929F92AF92BF928C
:101C9000CF92DF92EF92FF92CF93C12CD12C76019D
:101CA000CFEF28EE422E23E0522E612C712C4C01F6
:101CB000B12CA12CCEBD0DB407FEFDCF9EB59F3F2C
:101CC000B1F08FEFC81AD80AE80AF80A8AE08A95B4
:101CD000F1F700C0C701B601A30192010E94E60E10
:101CE00082169306A406B50628F780E001C081E0BD
:101CF000CF91FF90EF90DF90CF90BF90AF909F90EB
:101D00008F907F906F905F904F90089588EC97E947
:101D1000A4E0B0E03FEF3EBD0DB407FEFDCF2EB511
:101D20002F3F69F42AE02A95F1F700C00197A10935
:101D3000B10989F78DE08093640380E008952E3F18
:101D400039F080E1809364032093630380E0089579
:101D500081E00895BC0189E00C94630DBC018AE028
:101D60000C94630D81E00E94770C0E94B6060E94DD
:101D700019040E94BC0390E080E00895AA1BBB1BDD
:101D800051E107C0AA1FBB1FA617B70710F0A61B7B
:101D9000B70B881F991F5A95A9F780959095BC019C
:101DA000CD01089597FB072E16F4009407D077FD18
:101DB00009D00E94BE0E07FC05D03EF49095819597
:101DC0009F4F0895709561957F4F0895A1E21A2E57
:101DD000AA1BBB1BFD010DC0AA1FBB1FEE1FFF1FCF
:101DE000A217B307E407F50720F0A21BB30BE40B1F
:101DF000F50B661F771F881F991F1A9469F7609566
:101E00007095809590959B01AC01BD01CF0108951F
:101E10000F931F93CF93DF938230910510F482E0EC
:101E200090E0E0917203F091730330E020E0B0E0C5
:101E3000A0E0309799F42115310509F44AC0281B18
:101E4000390B24303105D8F58A819B8161157105E4
:101E500089F1FB0193838283FE0111C0408151818E
:101E60000281138148175907E0F04817590799F480
:101E7000109761F012960C93129713961C9332965A
:101E8000CF01DF91CF911F910F91089500937203BD
:101E900010937303F4CF2115310551F04217530706
:101EA00038F0A901DB019A01BD01DF01F801C1CFC2
:101EB000EF01F9CF9093730380937203CDCFFE01AE
:101EC000E20FF31F819391932250310939832883C4
:101ED000D7CF2091700330917103232B41F42091CF
:101EE000020230910302309371032093700320911A
:101EF0000002309101022115310541F42DB73EB7A2
:101F00004091040250910502241B350BE0917003AF
:101F1000F0917103E217F307A0F42E1B3F0B281773
:101F2000390778F0AC014E5F5F4F2417350748F052
:101F30004E0F5F1F509371034093700381939193F1
:101F40009FCFF0E0E0E09CCFCF93DF930097E9F0E4
:101F5000FC01329713821282A0917203B091730335
:101F6000ED0130E020E01097A1F420813181820F53
:101F7000931F20917003309171032817390709F0DE
:101F800061C0F0937103E0937003DF91CF910895E6
:101F9000EA01CE17DF07E8F54A815B819E01411512
:101FA0005105B1F7E901FB83EA8349915991C40FC7
:101FB000D51FEC17FD0761F4808191810296840F93
:101FC000951FE90199838883828193819B838A830A
:101FD000F0E0E0E012968D919C9113970097B9F58F
:101FE0002D913C911197CD010296820F931F209164
:101FF0007003309171032817390739F6309751F57E
:102000001092730310927203B0937103A093700344
:10201000BCCFD383C28340815181840F951FC817E1
:10202000D90761F44E5F5F4F88819981480F591F2E
:10203000518340838A819B8193838283211531055B
:1020400009F0B0CFF0937303E09372039ECFFD01CC
:0E205000DC01C0CF13821282D7CFF894FFCFED
:10205E000000740320006D61696E00094E616D65AC
:10206E003A09000D0A095468726561642050433ABA
:10207E0009000D0A09537461636B2055736167651E
:10208E003A09000D0A09537461636B2053697A652E
:10209E003A09000D0A0943757220537461636B503F
:1020AE0074723A09000D0A09537461636B20426120
:1020BE0073653A090009537461636B20456E643A87
:1020CE0020000D0A095468726561642053746174AE
:1020DE0075733A09005448524541442052554E4EAC
:1020EE00494E4720005448524541442052454144F0
:1020FE00592020200054485245414420534C454518
:10210E0050494E4700544852454144205741495486
:10211E00494E472000554E5245434F474E495A456A
:10212E0044202020000D0A0957616B6575702054FC
:10213E00696D653A20000D0A095363686564756C14
:10214E006520436F756E743A2020200050726F67C1
:10215E0072616D20330D0A0053797374656D2054CE
:10216E00696D653A200073200928006D7329000DF2
:10217E000A4E756D626572206F66205468726561D5
:10218E0064733A20000D0A537761707320506572A4
:10219E00205365636F6E643A20000D0A0D0A000D20
:1021AE000A5468726561642049443A200030780010
:00000001FF
