:100000000C947A000C949B000C949B000C949B0025
:100010000C949B000C949B000C949B000C949B00F4
:100020000C949B000C949B000C949B000C949B00E4
:100030000C949B000C949B000C949B000C949B00D4
:100040000C949B000C941A030C949B000C949B0042
:100050000C949B000C94AD030C949B000C949B009F
:100060000C949B000C949B000C949B000C949B00A4
:100070000C949B000C949B000C949B000C949B0094
:100080000C949B000C949B000C949B000C949B0084
:100090000C949B000C949B000C949B000C949B0074
:1000A0000C949B000C949B000C949B000C949B0064
:1000B0000C949B000C949B000C949B000C949B0054
:1000C0000C949B000C949B000C949B000C949B0044
:1000D0000C949B000C949B000C949B000C949B0034
:1000E0000C949B000C9490040C949D000C949E0026
:1000F0000C94BF0011241FBECFEFD1E2DEBFCDBFF5
:1001000000E00CBF13E0A0E0B2E0E2EFFBE200E0B1
:100110000BBF02C007900D92AC3CB107D9F723E0AA
:10012000ACECB3E001C01D92A03FB207E1F70E9422
:10013000F8130C94F7150C940000FFCFEC018881A4
:1001400099810B8110E0292F33270217130791F0B3
:100150009C012F5F3F4F398328838C0F9D1FFC012B
:1001600084858093B400888199818115924010F034
:100170001982188281E090E00E94E803E0CFCF93DB
:10018000DF931F921F92CDB7DEB77C011A821982CE
:100190003C0186E0680E711C4701E4EF8E1AEDEF1A
:1001A0009E0A5701FCE0AF0EB11C412C552453941C
:1001B000A301B401CE0101960E949812F701228595
:1001C000338550E040E085010E941913F7018285D4
:1001D000938501969387828753824282982F88273E
:1001E000B0E0A0E04681578160857185841795074E
:1001F000A607B707D8F40E941F08882331F00E9491
:100200002508803721F18E3671F10E944104F701F3
:10021000D284C12CA60170E060E086819781A08520
:10022000B185481759076A077B0728F3F7018481CE
:10023000958101969583848302C00E944104F70151
:10024000808191818F3F9105C1F3B8F3B1CF89814E
:100250009A8101979A838983F70184819581019717
:1002600095838483ECCF89819A8101969A838983CF
:10027000DDCFFC011182108213821282158214825A
:1002800013861286168217821086118608950F93A0
:100290001F93CF93DF938C016AE080E30E94500BA1
:1002A00080E20E94870B8BE50E942E08F8012285D0
:1002B0003385A3E8BEEB0E94AF140024880F991F7A
:1002C000001C880F991F001C892F902D22E3289F66
:1002D000B001299F700D112490E080E026813781C4
:1002E000408551850E948D14203F354541055105BB
:1002F00008F47AC083E20E942E0881E20E94870BF4
:10030000C2E0D0E08FE50E942E082196CE01019731
:10031000C297C0F38DE50E942E0868E28CE20E942D
:10032000500B80E20E94870B86E092E00E943A0820
:10033000F80122853385A3E8BEEB0E94AF140024A8
:10034000880F991F001C880F991F001C892F902D62
:100350000E94A70868E28DE20E94500B81E20E9491
:10036000870B86E092E00E943A08F80122853385E7
:10037000A3E8BEEB0E94AF140024880F991F001C55
:10038000880F991F001C892F902D0E94A70868E2F2
:100390008EE20E94500B80E20E94870B82E192E085
:1003A0000E943A08F801668177818085918520EF67
:1003B00035E540E050E00E948D14C9010E94A70875
:1003C00068E28FE20E94500B80E20E94870B80E27D
:1003D00092E00E943A08F80184819581DF91CF91E3
:1003E0001F910F910C94A70881E20E94870BC1E036
:1003F000D0E088CFEC018091D1039091D2030E948C
:100400007807CE010E9447010E944104F4CFCF92A9
:10041000DF92EF92FF920F931F93CF93DF938B01A5
:100420006A017901C091D103D091D203FE01E7574F
:10043000FF4F208131E1239FC00DD11D1124FE010A
:10044000819391936A831183C7018D960E94C91489
:100450009F838E83FC01EE0DFF1DCF018D96998742
:1004600088877796FD83EC8381E08A871B861C86CC
:100470001D861E861F86188A80E1DF011D928A95DF
:10048000E9F780E994E0858B948B138A028B118BBA
:10049000C08AD786E091D103F091D203E757FF4F8E
:1004A00080818F5F8083DF91CF911F910F91FF90AB
:1004B000EF90DF90CF9008951F93CF93DF93E0915B
:1004C000D103F091D203DF01A757BF4F8C9188234E
:1004D00041F19F0191E1899F200D311D1124EF0110
:1004E000C257DF4F11E004C07196E217F307C9F05D
:1004F00082858230C9F745855685678570898881F0
:100500009981AA81BB8184179507A607B70760F375
:10051000158616861786108A12877196E217F307DA
:1005200039F7DF91CF911F9108950F931F93CF93C8
:10053000DF930E945C02E091D103F091D20380E04E
:1005400041E18F0107571F4FEF01C857DF4F0AC026
:10055000C9010196D8016C9170E00E9479149881CC
:10056000981759F0282F30E0DF01489FA00DB11DEA
:1005700011241A969C91923058F7DF91CF911F91D8
:100580000F9108952F923F924F925F926F927F92B8
:100590008F929F92AF92BF92CF92DF92EF92FF9293
:1005A0000F931F93CF93DF93F0E0EDE52080EEE50E
:1005B0003080FB0121923082FC0121903080F0E0FC
:1005C000EDE52082EEE53082DF91CF911F910F9112
:1005D000FF90EF90DF90CF90BF90AF909F908F9063
:1005E0007F906F905F904F903F902F900895CF93A2
:1005F000DF93E091D103F091D203EF01CD56DF4FAD
:10060000DF01AE56BF4F8C9188831C9219978C9155
:10061000882369F09F0191E1899F200D311D1124EC
:100620008385848713867196E217F307C9F7DF91F4
:10063000CF9108951F920F920FB60F9211240BB60F
:100640000F922F933F938F939F93AF93BF93CF932B
:10065000DF93EF93FF93E091D103F091D203EF0189
:10066000C657DF4F88819981AA81BB810196A11D60
:10067000B11D88839983AA83BB832996DF01AE5677
:10068000BF4F8C9188831C9219978C91882369F0B5
:100690009F0191E1899F200D311D1124838584875D
:1006A00013867196E217F307C9F7FF91EF91DF9177
:1006B000CF91BF91AF919F918F913F912F910F90CB
:1006C0000BBE0F900FBE0F901F901895E091D103B5
:1006D000F091D203E857FF4F808190E00895209178
:1006E000D1033091D20341E1682F70E0F901489FB6
:1006F000E00DF11D112493859F5F9387F901EE565C
:10070000FF4F90819F5F90833A979081981721F1D6
:100710008083F901499FE00DF11D112442854111AB
:1007200002C041E0428741E1469FF001479FF00D42
:100730001124E20FF31F1286B901949F600D711D01
:1007400011246C5F7F4FF901849FE00DF11D11248E
:10075000CF0104960E94C20208951F920F920FB615
:100760000F9211240BB60F922F933F934F935F93E9
:100770006F937F938F939F93AF93BF93EF93FF9369
:10078000E091D103F091D203E257FF4F8081918134
:10079000A281B3818D96A11DB11D80839183A28317
:1007A000B3830E9495020E946F03FF91EF91BF9166
:1007B000AF919F918F917F916F915F914F913F91F9
:1007C0002F910F900BBE0F900FBE0F901F9018959A
:1007D0001F93CF93DF93009721F4DF91CF911F9167
:1007E0000895F8942091D1033091D203F901E8578C
:1007F000FF4F408111E1F901149FE00DF11D11241B
:1008000022573F4F6DE2689FA001699F500D112450
:10081000E90188819981AA81BB81840F951FA11D5F
:10082000B11D85879687A787B08B82E082870E945B
:1008300095024091D1035091D203FA01E857FF4F3E
:100840009081981739F00E946F037894DF91CF91CF
:100850001F910895189F90011124420F531FFA0110
:100860009285923080F3789401C00000E091D1032A
:10087000F091D203E20FF31F92859230B0F7F89413
:10088000E2CFF8940E9495020E946F037894089535
:100890000F931F93CF93DF931F921F92CDB7DEB7B5
:1008A0000091D1031091D20308571F4FF8018081A6
:1008B0008F3F49F00E9441040F900F90DF91CF913C
:1008C0001F910F9108950E949502F80180838091F5
:1008D000D1039091D203FC01E857FF4F2081F1E151
:1008E0002F9F90011124FC01E20FF31F1286438514
:1008F0004F5F4387FC01EE56FF4F40814F5F4083BF
:100900002C5F3F4FBE016F5F7F4F820F931F0E948E
:10091000C2020F900F90DF91CF911F910F91089518
:100920007894F101C2010994F8948091D1039091D7
:10093000D203FC01E857FF4F208131E1239F800D56
:10094000911D112424E0FC0122870E944104CF93D1
:10095000C82FCB018D960E94C914E091D103F0916C
:10096000D20321E1C29FE00DF11D112497838683FC
:10097000CF910895F894A091D103B091D203FD01D5
:10098000E757FF4FE081F1E1EF9FA00DB11D11246A
:10099000FD018193919312966C9312977183169631
:1009A000ED91FC911797E20FF31FCF018D961996E9
:1009B0009C938E93189777961596FC93EE931497C5
:1009C00081E01A968C931A971B961C921B971C9683
:1009D0001C921C971D961D921D921D921C92509761
:1009E00080E1DF011D928A95E9F780E994E0858B2B
:1009F000948B138A628B718B408B5787E091D10364
:100A0000F091D203E757FF4F80818F5F8083789406
:100A10000895EEE6F0E080818260808384B5826094
:100A200084BD85B5826085BD8AE587BD89E09DE38B
:100A30009093890080938800EFE6F0E080818260E7
:100A40008083E1E8F0E080818D6080830895F894F0
:100A50000E940905F89484E990E00E94C914FC0101
:100A60009093D2038093D103DC01A857BF4F1C920F
:100A7000119681E08C9311961D921D921D921C92ED
:100A8000139714961D921D921D921C92139784E544
:100A900092E09183808313821282178216828FEFF5
:100AA00091E29187808715821482128613861486BC
:100AB000158616861786108A14961C9211961C921B
:100AC000CF010895F8940E940905F89484E990E014
:100AD0000E94C9149093D2038093D103FC01E8577C
:100AE000FF4F2FEF208331961082319610821182B2
:100AF00012821382349610821182128213823496EB
:100B00001082319610820895E0EBF0E080818362DC
:100B10008083E1EBF0E0808181608083E1E0F1E0BF
:100B20008081806480830895FC0110821182138685
:100B30001286158614860895CF93DF93EC01F894FE
:100B40000E9466039881911107C091E09883898380
:100B50007894DF91CF9108952C853D85EA85FB85BA
:100B6000E20FF31FE770FF27EC0FFD1F82832F5F5B
:100B70003F4F3D872C87E091D103F091D20391E163
:100B8000899FE00DF11D112483E08287DF91CF91D1
:100B90000C944104FC01F89484859585009721F418
:100BA000108211827894089522853385DF01A20F87
:100BB000B31F12964C912F5F3F4F27703327338717
:100BC00022870197958784874183E091D103F09133
:100BD000D20381E1489FE00DF11D112481E082875D
:100BE00078940895FC01608312861186148613861A
:100BF0000895CF93DF93EC01F8948881181634F4AC
:100C0000815088837894DF91CF91089581508883B3
:100C10000E9466032B853C85E985FA85E20FF31F68
:100C2000E770FF27EC0FFD1F81832F5F3F4F3C874D
:100C30002B87E091D103F091D20391E1899FE00DE0
:100C4000F11D112483E08287DF91CF910C94410440
:100C5000FC01F89490819F5F9083191614F47894A6
:100C600008952385348521153105C9F38185928541
:100C7000DF01A80FB91F11964C9101968770992733
:100C8000928781872150310934872387E091D103EE
:100C9000F091D20381E1489FE00DF11D112481E024
:100CA000828778940895FC01F89490819F5F9083E7
:100CB000191614F478940895238534852115310587
:100CC000C9F341855285DF01A40FB51F11968C91A0
:100CD0004F5F5F4F47705527528741872150310939
:100CE000348723870E946F0378940895FF920F93AF
:100CF0001F93CF93DF93F82E162F042FE9018091D5
:100D0000D3039091D4030E949C058F2D0E94870BE2
:100D1000602F812F0E94500BCE010E943A088091D3
:100D2000D3039091D403DF91CF911F910F91FF9046
:100D30000C94CA058F929F92AF92BF92CF92DF928E
:100D4000EF92FF920F931F93CF93DF93CDB7DEB750
:100D500061970FB6F894DEBF0FBECDBF89829A822D
:100D6000CD82DE82EF82F88609871A872B874D872E
:100D70005E876F87788B898BCD80DE80EF80F884EB
:100D800009851A858FE10E94870B89E592E00E9410
:100D90003A088BE50E94870B89819A810E943A0864
:100DA00081E20E94870B81E692E00E943A088DE57D
:100DB0000E94870BC8018C199D090E94A70882E236
:100DC0000E94870B82E792E00E943A088EE50E941B
:100DD000870BC8018E199F090E94A70883E20E9411
:100DE000870B82E892E00E943A088EE50E94870B0A
:100DF0008FE50E94870BC6010E94AD0A84E20E9423
:100E0000870B84E992E00E943A0880E60E94870BF3
:100E1000C7010E94AD0A85E20E94870B84EA92E036
:100E20000E943A0881E60E94870BC8010E94AD0A21
:100E30008FE10E94870B81EB92E00E943A088BE5DC
:100E40000E94870B8B85813009F44DC008F446C0A1
:100E50008230D1F18330E9F584EF92E00E943A08C4
:100E600080E20E94870B84E193E00E943A088CE5BF
:100E70000E94870B6E857F85888999890E94FE096B
:100E800081E20E94870B85E293E00E943A088DE59B
:100E90000E94870B8D8590E00E94E6088BE893E026
:100EA00061960FB6F894DEBF0FBECDBFDF91CF9134
:100EB0001F910F91FF90EF90DF90CF90BF90AF9078
:100EC0009F908F900C943A0884EE92E00E943A082A
:100ED000C7CF84E093E00E943A08C2CF84EC92E04E
:100EE0000E943A08BDCF84ED92E00E943A08B8CF44
:100EF0004F925F926F927F928F929F92AF92BF922A
:100F0000CF92DF92EF92FF920F931F93CF93DF93D5
:100F1000EC0161E081E00E94500B84E20E94870BAB
:100F20008BE393E00E943A0887E493E00E943A083A
:100F3000FE01E657FF4F60817181828193810E949B
:100F40007E0985E593E00E943A08FE01E257FF4FD3
:100F500060817181828193810E947E098AE593E09C
:100F60000E943A088EE593E00E943A083E0189E823
:100F7000680E711CF301808190E00E94A70884E74D
:100F800093E00E943A08FE01ED56FF4F808190E009
:100F90000E94E60889E893E00E943A08F301808104
:100FA000882371F1512C81E1482E84E20E94870B45
:100FB0008EE893E00E943A08052D10E0C8010E94D7
:100FC000A708409EF001419EF00D1124EC0FFD1F7B
:100FD00080809180A280B380C480D580E680F78035
:100FE00000851185228533854485558566857785FD
:100FF00080890E949A065394F30180815816A8F2C2
:10100000DF91CF911F910F91FF90EF90DF90CF90E4
:10101000BF90AF909F908F907F906F905F904F9018
:10102000089582E08093C0001092C50080E1809313
:10103000C400E1ECF0E080818861808308958091B4
:10104000C000881F8827881F08958091C00087FFEF
:1010500003C08091C60008958FEF08959091C1005C
:1010600095FDFCCF9091C00095FFF8CF8093C6000E
:1010700081E00895DC012C91222399F0FC01319646
:101080009091C10095FDFCCF9091C00095FFF8CFE5
:101090002093C600CF018A1B9B0B21912111F0CF19
:1010A000089590E080E00895FC019091C10095FDC5
:1010B000FCCF8091C00085FFF8CF8BE18093C60004
:1010C0009091C10095FDFCCF8091C00085FFF8CFC5
:1010D0008BE58093C6002081222371F03196909198
:1010E000C10095FDFCCF9091C00095FFF8CF2093F3
:1010F000C60021912111F3CF08950F931F93CF9331
:10110000DF93382F292FC5E0D0E0E0E1F7E20AE0D5
:1011100010E0832F922FBF010E946514605D209123
:10112000C10025FDFCCF2091C00025FFF8CF6093C2
:10113000C600382F292FCF01B8010E947914FB0176
:10114000219739F7DF91CF911F910F9108950F9358
:101150001F93CF93DF939C01C5E0D0E0E0E1F7E27D
:101160000AE010E0C901BF010E946514672B81F4F9
:10117000E130F10569F09C01CF01B8010E947914BA
:10118000FB01219779F7DF91CF911F910F9108957E
:10119000CAE0D0E0C901BF010E946514605D2091E2
:1011A000C10025FDFCCF2091C00025FFF8CF609342
:1011B000C6009C01CF01BE010E947914FB0130974B
:1011C00049F7DF91CF911F910F9108950F931F93CE
:1011D000CF93DF939C01C5E0D0E0E0E1F7E240E28D
:1011E0000AE010E0C901BF010E946514672BD1F429
:1011F000E130F105B9F02091C10025FDFCCF20912F
:10120000C00025FFF8CF4093C6009C01CF01B80174
:101210000E947914FB01219729F7DF91CF911F914B
:101220000F910895CAE0D0E0C901BF010E94651482
:10123000605D2091C10025FDFCCF2091C00025FFFD
:10124000F8CF6093C6009C01CF01BE010E947914C3
:10125000FB01309749F7DF91CF911F910F910895CE
:101260006F927F928F929F92AF92BF92CF92DF92B6
:10127000EF92FF920F931F93CF93DF933B01D82FF1
:10128000C92F0AE010E0C12C8AECD82E8AE9E82E9A
:101290008BE3F82E9AE0892E912CA12CB12CB3016E
:1012A0008D2F9C2FA70196010E948D14205D3091F7
:1012B000C10035FDFCCF3091C00035FFF8CF209341
:1012C000C6003B01D82FC92FC701B601A501940163
:1012D0000E948D1469017A010150110901F7DF9113
:1012E000CF911F910F91FF90EF90DF90CF90BF9023
:1012F000AF909F908F907F906F9008954F925F92E4
:101300006F927F928F929F92AF92BF92CF92DF9215
:10131000EF92FF920F931F93CF93DF93C62F172F58
:10132000082FD92F9AE0A92EB12CC12C2AECD22E4D
:101330002AE9E22E2BE3F22E3AE0432E512C612CC7
:10134000712C6C2F712F802F9D2FA70196010E9469
:101350008D14232B242B252B39F521E0C216D10423
:10136000E104F10409F1C62F172F082FD92FC70167
:10137000B601A30192010E948D1469017A0181E0F6
:10138000A81AB108F1F6DF91CF911F910F91FF904C
:10139000EF90DF90CF90BF90AF909F908F907F9015
:1013A0006F905F904F9008958AE0882E912CA12C29
:1013B000B12C6C2F712F802F9D2FA70196010E94B9
:1013C0008D14205D3091C10035FDFCCF3091C000FF
:1013D00035FFF8CF2093C600C62F172F082FD92F1F
:1013E000C701B601A50194010E948D1469017A011B
:1013F000C114D104E104F104E1F6C5CF4F925F922C
:101400006F927F928F929F92AF92BF92CF92DF9214
:10141000EF92FF920F931F93CF93DF93EB01182F5F
:10142000092F9AE0A92EB12CC12C2AECD22E2AE940
:10143000E22E2BE3F22E30E2932E4AE0442E512C82
:10144000612C712CBE01812F902FA70196010E9463
:101450008D14232B242B252B81F521E0C216D104DA
:10146000E104F10451F12091C10025FDFCCF209150
:10147000C00025FFF8CF9092C600EB01182F092F6E
:10148000C701B601A30192010E948D1469017A017E
:1014900081E0A81AB108B1F6DF91CF911F910F91A9
:1014A000FF90EF90DF90CF90BF90AF909F908F9084
:1014B0007F906F905F904F9008958AE0882E912CD6
:1014C000A12CB12CBE01812F902FA70196010E9463
:1014D0008D14205D3091C10035FDFCCF3091C000EE
:1014E00035FFF8CF2093C600EB01182F092FC70155
:1014F000B601A50194010E948D1469017A01C114FD
:10150000D104E104F104F1F6C7CFBC0144E09B0132
:10151000232F332722952F702A303105A0F4205D28
:101520009091C10095FDFCCF9091C00095FFF8CF40
:101530002093C60062957295707F7627607F76272C
:10154000415029F70895295C9091C10095FDFCCF89
:101550009091C00095FFF8CFEBCFBC01EDE9F3E02F
:1015600020E39091C10095FDFCCF9091C00095FFC4
:10157000F8CF2093C60021912111F3CF44E080E001
:101580009B01232F332722952F7081110EC0211527
:10159000310559F4413039F162957295707F7627A3
:1015A000607F7627415061F70895822F2A303105F8
:1015B00068F4805D9091C10095FDFCCF9091C000D2
:1015C00095FFF8CF8093C60081E0E6CF295C90912B
:1015D000C10095FDFCCF9091C00095FFF8CF2093FE
:1015E000C60081E0D9CF80E0E4CFAB01BC01EDE9DA
:1015F000F3E090E38091C10085FDFCCF8091C000B5
:1016000085FFF8CF9093C60091919111F3CF28E018
:1016100030E018C00097A105B105F9F4213089F137
:10162000440F551F661F771F440F551F661F771FF6
:10163000440F551F661F771F440F551F661F771FE6
:10164000215069F1DB01CA01ECE1B695A7959795A8
:101650008795EA95D1F73323E9F2382F8A3091053F
:10166000A105B10578F097E3980F8091C10085FD41
:10167000FCCF8091C00085FFF8CF9093C60031E089
:10168000CFCF30E0305D8091C10085FDFCCF8091EF
:10169000C00085FFF8CF3093C60031E0C1CF089578
:1016A000CF93C62F9091C10095FDFCCF9091C000C3
:1016B00095FFF8CF9BE19093C6009091C10095FDF6
:1016C000FCCF9091C00095FFF8CF9BE59093C600AA
:1016D00090E00E94A7088091C10085FDFCCF809119
:1016E000C00085FFF8CF8BE38093C6008C2F90E07D
:1016F0000E94A7088091C10085FDFCCF8091C000A9
:1017000085FFF8CF86E68093C600CF91089590912B
:10171000C10095FDFCCF9091C00095FFF8CF9BE1F3
:101720009093C6009091C10095FDFCCF9091C000B0
:1017300095FFF8CF9BE59093C60090E00E94A70824
:101740008091C10085FDFCCF8091C00085FFF8CF5E
:101750008DE68093C60008958091C10085FDFCCF81
:101760008091C00085FFF8CF8BE18093C600809107
:10177000C10085FDFCCF8091C00085FFF8CF8BE5CF
:101780008093C6008091C10085FDFCCF8091C00090
:1017900085FFF8CF82E38093C6008091C10085FD6C
:1017A000FCCF8091C00085FFF8CF8AE48093C6000B
:1017B00061E081E00C94500B8091C10085FDFCCF6D
:1017C0008091C00085FFF8CF8BE18093C6008091A7
:1017D000C10085FDFCCF8091C00085FFF8CF8BE56F
:1017E0008093C6008091C10085FDFCCF8091C00030
:1017F00085FFF8CF88E48093C60008950F931F9368
:10180000CF93DF938A01E9010E94500BF801908188
:101810009923E9F031968091C10085FDFCCF80913C
:10182000C00085FFF8CF9093C6009F01201B310BAD
:1018300091919111F0CF89010B5F1F4FCE010E9452
:10184000E608C801DF91CF911F910F91089505E03F
:1018500010E0F4CF0F931F93CF93DF938A01E90138
:101860000E94500BF80190819923F9F031968091F4
:10187000C10085FDFCCF8091C00085FFF8CF90931B
:10188000C6009F01201B310B91919111F0CF89016E
:10189000065F1F4FBE0190E080E00E94FE09C80174
:1018A000DF91CF911F910F9108950AE010E0F2CFE0
:1018B0008FEF8EBD8091DA039091DB039C012F5F47
:1018C0003F4F3093DB032093DA038130924098F44A
:1018D0004FEF0DB407FEFDCF4EBD8091DA0390911E
:1018E000DB039C012F5F3F4F3093DB032093DA0330
:1018F0008130924070F30DB407FEFDCF289A8FEF30
:101900008EBD0DB407FEFDCF1092CE0308958093D7
:10191000D00308958093D0036093CF030895CF93AD
:10192000C82F8091CE0381110E94580CC093CD0323
:10193000CF9108958091CC0308958093CC030895AE
:10194000CF92DF92EF92FF92CF93C82F6A017B0173
:101950008091CE0381110E94580C289888EC97E959
:10196000A4E0B0E03FEF3EBD0DB407FEFDCF2EB5C5
:101970002F3F41F02AE02A95F1F700C00197A10915
:10198000B10989F78C2F80648EBD0DB407FEFDCFA1
:1019900088E190E0B701A601082E04C0769567950E
:1019A000579547950A94D2F74EBD0DB407FEFDCF6B
:1019B0000897883F2FEF920769F785E9CC2319F044
:1019C00087E8C830B9F48EBD0DB407FEFDCF90E0B6
:1019D0002FEF2EBD0DB407FEFDCF8EB587FF04C0DF
:1019E0009F3F11F09F5FF5CFCF91FF90EF90DF9079
:1019F000CF9008958FEFE7CF8F929F92AF92BF92D3
:101A0000EF92FF920F931F93CF93DF93EA01790137
:101A10002091CE03222371F08090D6039090D703BB
:101A2000A090D803B090D90386169706A806B906E9
:101A300009F44BC06093D6037093D7038093D80307
:101A40009093D9032091CC03233039F029E0660F1D
:101A5000771F881F991F2A95D1F7AB01BC0181E13F
:101A60000E94A00C48EC57E964E070E02FEF811170
:101A700014C02EBD0DB407FEFDCF9EB59F3FE1F40F
:101A80009AE09A95F1F700C0415051096109710936
:101A900081F79DE09093D00304C083E08093D0034E
:101AA00080E0DF91CF911F910F91FF90EF90BF9059
:101AB000AF909F908F9008959E3F09F45FC020E102
:101AC0002093D0039093CF03ECCF2091DA03309191
:101AD000DB034217530708F4ADCF8FEF8EBD809123
:101AE000DA039091DB038C179D0788F42FEF0DB478
:101AF00007FEFDCF2EBD8091DA039091DB030196A6
:101B00009093DB038093DA038C179D0780F3A80181
:101B10004150510981F0F70198012E0D3F1D2150D0
:101B200031099FEF0DB407FEFDCF8EB581939EBDA9
:101B3000E217F307B9F70DB407FEFDCF8EB5F70135
:101B4000E40FF51F80838091DA039091DB03080F87
:101B5000191F1093DB030093DA038091CD038823D0
:101B600019F00115124020F08091CE03811102C0BE
:101B700081E097CF0E94580C81E093CF1092DB0355
:101B80001092DA0381E08093CE03A7CF0F931F93C7
:101B90009A0100E012E050E040E00E94FC0C1F912E
:101BA0000F910895CF92DF92EF92FF921F93CF9300
:101BB000DF93182F209A289A229A219A83E58CBDC8
:101BC0008AE090E02FEF2EBD0DB407FEFDCF019708
:101BD000D1F7289881E092E02FEF2EBD0DB407FEDB
:101BE000FDCF3EB50197C9F7DBE040E050E0BA0118
:101BF00080E00E94A00CC82F813089F0D150A9F755
:101C000081E08093D003C093CF03C0E08C2FDF919D
:101C1000CF911F91FF90EF90DF90CF9008954AEA07
:101C200051E060E070E088E00E94A00C813009F48F
:101C300040C082FF51C0C093CC0388E6C82E88E81C
:101C4000D82E8EE1E82EF12C07C081E0C81AD10809
:101C5000E108F10809F462C08AE08A95F1F700C052
:101C600040E050E0BA0187E30E94A00C8091CC03D1
:101C700040E050E0BA01823021F440E050E060E002
:101C800070E489E20E94A00C8111DFCF8091CC0327
:101C9000823041F18CB58C7F8CBD111103C08DB5A4
:101CA00081608DBD289A8FEF8EBD0DB407FEFDCFEC
:101CB000ADCF84E090E03FEF3EBD0DB407FEFDCF19
:101CC0002EB50197C9F72A3A71F189E08093D003C4
:101CD0002093CF03C0E09ACF92E09093D0038093FB
:101CE000CF03ABCF40E050E0BA018AE30E94A00CE2
:101CF000811121C08FEF8EBD0DB407FEFDCF8EB5D3
:101D0000807C803CA1F083E090E02FEF2EBD0DB4ED
:101D100007FEFDCF3EB50197C9F7BCCF86E08093A3
:101D2000D003C0E073CF82E08093CC0386CF83E002
:101D30008093CC03E8CF85E08093D003C0E066CFEA
:101D40000F931F930115110579F0F801E40FF51FAA
:101D5000E130F24028F40E94FC0C1F910F9108958D
:101D600080E01F910F91089581E01F910F910895D8
:101D70008091CE0381110C94580C0895CF93DF937A
:101D8000D62FC72F40E050E0BA010E94A00C48ECCB
:101D900057E964E070E02FEF811114C02EBD0DB43F
:101DA00007FEFDCF9EB59F3FA1F49AE09A95F1F70B
:101DB00000C0415051096109710981F79DE090937C
:101DC000D00304C088E08093D00380E0DF91CF91FE
:101DD00008959E3F41F020E12093D0039093CF03DC
:101DE000DF91CF910895ED2FFC2F9F01205F3F4F92
:101DF0009FEF9EBD0DB407FEFDCF8EB58193E21718
:101E0000F307B9F78FEF8EBD0DB407FEFDCF8EB58A
:101E10008FEF8EBD0DB407FEFDCF8EB5289A8FEFE4
:101E20008EBD0DB407FEFDCF81E0DF91CF91089507
:101E30000F931F93CF93DF93CDB7DEB760970FB6A5
:101E4000F894DEBF0FBECDBFBE016F5F7F4F89E04C
:101E50000E94BE0E882309F447C08981807CA1F0CE
:101E6000803409F445C087E08093D00360E070E0DF
:101E7000CB0160960FB6F894DEBF0FBECDBFDF91E9
:101E8000CF911F910F9108956F81637070E0762F4D
:101E90006627770F770F888590E0880F991F880F46
:101EA000991F682B792B89858295869586958370F5
:101EB000682B6F5F7F4F90E080E02A852370220FB0
:101EC0003B8537FB332730F9232B3E813F70230FAF
:101ED0003327331F2750310904C0660F771F881F2F
:101EE000991F2A95D2F7C5CF60E070E0CB01C1CF32
:101EF00068856695669570E090E080E0CB01772775
:101F000066272A85622B098510E0102F0027012EF5
:101F1000000C220B330B602B712B822B932B6F5FEA
:101F20007F4F8F4F9F4F4AE0660F771F881F991F83
:101F30004A95D1F79ECF4F925F926F927F928F9288
:101F40009F92AF92BF92CF92DF92EF92FF92CF9388
:101F5000C12CD12C7601CFEF28EE422E23E0522E59
:101F6000612C712C4C01B12CA12CCEBD0DB407FEFF
:101F7000FDCF9EB59F3FB1F08FEFC81AD80AE80A8F
:101F8000F80A8AE08A95F1F700C0C701B601A301FB
:101F900092010E948D1482169306A406B50628F7B6
:101FA00080E001C081E0CF91FF90EF90DF90CF9073
:101FB000BF90AF909F908F907F906F905F904F9069
:101FC000089588EC97E9A4E0B0E03FEF3EBD0DB482
:101FD00007FEFDCF2EB52F3F69F42AE02A95F1F7D1
:101FE00000C00197A109B10989F78DE08093D00362
:101FF00080E008952E3F39F080E18093D003209354
:10200000CF0380E0089581E00895BC0189E00C943D
:10201000BE0EBC018AE00C94BE0E4F925F926F928E
:102020007F92AF92BF92CF92DF92EF92FF920F9387
:102030001F93CF93DF936A0159017801C0E0D2E08A
:10204000C41BD50B2B013C01440C551C661C771C92
:102050008E01EC16FD0608F487019501A601C30167
:10206000B2010E94A00ECE15DF0578F0DF91CF916E
:102070001F910F91FF90EF90DF90CF90BF90AF90A6
:102080007F906F905F904F900895870112500C0DD4
:102090001D1D95012C0F3D1FC301B2016F5F7F4FC6
:1020A0008F4F9F4F50E040E00E94A00EDFCF0F9374
:1020B0001F934115A2E05A0728F40E940D101F91AA
:1020C0000F910895F8010130124078F45170660FB5
:1020D000771F881F991F6F5F7F4F8F4F9F4F8F0113
:1020E0000E94A00E1F910F910895E0E0F2E0EECF64
:1020F000EF92FF920F931F93CF93DF93CDB7DEB78D
:10210000C455D1090FB6F894DEBF0FBECDBFCE01C6
:1021100001967C0184E5F70111928A95E9F704E5BF
:1021200010E0970150E040E061E070E080E090E076
:102130000E940D1080E094E0098C02C0880F991F66
:102140000A94E2F7092E000CAA0BBB0B8093E40360
:102150009093E503A093E603B093E70389A19AA1C6
:10216000ABA1BCA18093E8039093E903A093EA0399
:10217000B093EB0389A59AA5ABA5BCA58093E0031A
:102180009093E103A093E203B093E30360E088E05F
:102190000E94500B18E060E0812F0E94500BF70165
:1021A000819191917F010E94AD0A1F5F1C3199F7C7
:1021B000CC5ADF4F0FB6F894DEBF0FBECDBFDF9114
:1021C000CF911F910F91FF90EF9008950F931F9360
:1021D000CF93DF93CDB7DEB7A0970FB6F894DEBFED
:1021E0000FBECDBF00E210E09E012F5F3F4F50E0D9
:1021F00040E062E070E080E090E00E940D10898590
:102200009A85AB85BC858093DC039093DD03A09316
:10221000DE03B093DF0360E080E00E94500B8FE9A3
:1022200093E00E943A088091E4039091E5030E94B4
:10223000A70880EB93E00E943A088091E803909110
:10224000E9030E94A70887EB93E00E943A08809177
:10225000E0039091E1030E94A7088EEB93E00E94B7
:102260003A088091DC039091DD030E94A708A096B4
:102270000FB6F894DEBF0FBECDBFDF91CF911F9197
:102280000F9108954F925F926F927F928F929F92DB
:10229000AF92BF92CF92DF92EF92FF920F931F9374
:1022A000CF93DF93EA01615071098109910920916F
:1022B000E0033091E1034091E2035091E3030E9477
:1022C0008D1469017A01660F771F881F991F660FA9
:1022D000771F881F991F660F771F881F991F660F2A
:1022E000771F881F991F660F771F881F991F660F1A
:1022F000771F881F991F660F771F881F991F2091CE
:10230000E4033091E5034091E6035091E7030E9416
:102310008D1429013A014B016091E8037091E903A2
:102320008091EA039091EB03A70196010E94551456
:10233000C090DC03D090DD03E090DE03F090DF037B
:102340006C0D7D1D8E1D9F1D640D751D861D971DB9
:1023500000E810E09E01A4010E945710DF91CF9188
:102360001F910F91FF90EF90DF90CF90BF90AF90B3
:102370009F908F907F906F905F904F9008952F92D5
:102380003F924F925F926F927F928F929F92AF9205
:10239000BF92CF92DF92EF92FF920F931F93CF9352
:1023A000DF93CDB7DEB7C258D4400FB6F894DEBF86
:1023B0000FBECDBF5A016901CF57DB4F1983088388
:1023C000C158D44017010091E4031091E5039E0128
:1023D0002F5F3F4F490150E040E00E940D108827D9
:1023E000992788199909092E000CAA0BBB0B40915B
:1023F000E4035091E5036091E6037091E7038417CD
:102400009507A607B70708F076C010E000E0F801CE
:10241000E480F580E114F10409F46DC0F5018081D8
:1024200091811AC00196F501918380830E0D1F1DC5
:10243000280148185908052C000C6608770844162E
:1024400055066606770608F056C0F801E480F58068
:10245000E114F10409F44FC0F601208131812817FD
:10246000390701F7F8016081718182819381AE01A2
:102470004F5F5B4F0E944211CF5FDB4F8881998194
:10248000C150D44097FD12C0F60180819181019620
:1024900091838083F501808191814091E403509183
:1024A000E5036091E6037091E703BCCFCB5FDB4FA0
:1024B00088819981AA81BB81C550D440F101808374
:1024C0009183A283B383F801E680F780B801685F47
:1024D0007F4FA701CF57DB4F88819981C158D440E6
:1024E0000E94EE15CF57DB4FE881F981C158D440E7
:1024F000EE0DFF1D108260E070E0CB01CE57DB4F88
:102500000FB6F894DEBF0FBECDBFDF91CF911F9104
:102510000F91FF90EF90DF90CF90BF90AF909F9082
:102520008F907F906F905F904F903F902F90089585
:102530004F925F926F927F928F929F92AF92BF92D3
:10254000CF92DF92EF92FF920F931F93CF93DF937F
:10255000CDB7DEB7C258D1090FB6F894DEBF0FBEB3
:10256000CDBF5C014B013A010E9478100E94E61039
:10257000AE014F5F5F4F62E070E080E090E00E944C
:1025800042118D819E81AF81B885892B8A2B8B2B3F
:1025900009F44BC0D12CC12C81E090E08C0F9D1F21
:1025A00088962C0117C0FFEFCF1ADF0A2091E403B1
:1025B0003091E5034091E6035091E703D6010E9474
:1025C000BE140D811E812F81388560177107820727
:1025D000930758F5F20161917191819191912F01C9
:1025E000730184019501AE014F575F4F0E94BF11E7
:1025F0006115710581059105B1F2CE57DF4F0FB618
:10260000F894DEBF0FBECDBFDF91CF911F910F9128
:10261000FF90EF90DF90CF90BF90AF909F908F9002
:102620007F906F905F904F90089560E070E0CB01D5
:10263000E4CF4F925F926F927F928F929F92AF9270
:10264000BF92CF92DF92EF92FF920F931F93CF939F
:10265000DF93CDB7DEB7C458D1400FB6F894DEBFD4
:102660000FBECDBF49015A01AE014F5F5E4F0E94C0
:1026700042114424582C692C7A2C740141E0E42244
:10268000FF24FE2CEE24E00EF11E640153E0C5226F
:10269000DD24D501C401B695A79597958795B69584
:1026A000A79597958795CF57DE4F88839983AA83FF
:1026B000BB83C158D14090E389169104A104B104B1
:1026C00008F461C00091E4031091E503C75ADE4F9E
:1026D000688179818A819B81C955D1409E012F5F94
:1026E0003F4F50E040E00E940D10CB5FDE4F08816D
:1026F00019812A813B81C550D1408091E40390919A
:10270000E503A091E603B091E70304191509260932
:10271000370980179107A207B30798F1CF57DE4F0B
:1027200088819981AA81BB81C158D1400C97A109A8
:10273000B109E1E0F0E0EC0FFD1F8E0F9F1FDC01FF
:102740006C9170E090E080E0970140E05C2D0E9489
:102750005710CC57DE4F0FB6F894DEBF0FBECDBF7B
:10276000DF91CF911F910F91FF90EF90DF90CF906D
:10277000BF90AF909F908F907F906F905F904F90A1
:1027800008958C01CBCFCB5FDE4F088119812A8160
:102790003B81C550D1408091E4039091E503A09125
:1027A000E603B091E70304191509260937098017D4
:1027B0009107A207B30708F48C01CF57DE4FE881D9
:1027C000F981C158D1403A96EE0FFF1FEE0FFF1F5F
:1027D000A1E0B1E0AC0FBD1FEA0FFB1F608171816A
:1027E00082819381970140E05C2D0E945710B1CF08
:1027F000CF93DF93CDB7DEB7CC50D3400FB6F8946C
:10280000DEBF0FBECDBF0E9411080E94AC0B60E07E
:1028100080E00E94500B04C08BE292E00E943A08D4
:1028200081E00E94D20D8823B9F31A8219821C829A
:102830001B821E821D821C861B861F82188619869B
:102840001A860E9484050E9462059093D2038093A9
:10285000D10325E030E0AE014F5F5F4F6EE970E0DD
:102860008FE392E00E94070224EC39E0AE014F5F53
:102870005F4F6FEB70E088E492E00E94070225E072
:1028800030E050E040E06DE970E08FE492E00E94BB
:1028900007020E944804C45FDC4F0FB6F894DEBF05
:1028A0000FBECDBFDF91CF910895DB018F939F9332
:1028B0000E94BE14BF91AF91A29F800D911DA39F56
:1028C000900DB29F900D11240895AA1BBB1B51E1DE
:1028D00007C0AA1FBB1FA617B70710F0A61BB70B90
:1028E000881F991F5A95A9F780959095BC01CD0135
:1028F000089597FB072E16F4009407D077FD09D0B2
:102900000E94651407FC05D03EF4909581959F4F79
:102910000895709561957F4F0895A1E21A2EAA1B24
:10292000BB1BFD010DC0AA1FBB1FEE1FFF1FA2177F
:10293000B307E407F50720F0A21BB30BE40BF50B7C
:10294000661F771F881F991F1A9469F76095709505
:10295000809590959B01AC01BD01CF010895A29F88
:10296000B001B39FC001A39F700D811D1124911D63
:10297000B29F700D811D1124911D08950E94AF1406
:10298000A59F900DB49F900DA49F800D911D1124C3
:1029900008950F931F93CF93DF938230910510F426
:1029A00082E090E0E091EE03F091EF0330E020E070
:1029B000B0E0A0E0309799F42115310509F44AC040
:1029C000281B390B24303105D8F58A819B8161158C
:1029D000710589F1FB0193838283FE0111C040815F
:1029E00051810281138148175907E0F048175907B0
:1029F00099F4109761F012960C93129713961C930A
:102A00003296CF01DF91CF911F910F9108950093DE
:102A1000EE031093EF03F4CF2115310551F0421767
:102A2000530738F0A901DB019A01BD01DF01F8016C
:102A3000C1CFEF01F9CF9093EF038093EE03CDCF99
:102A4000FE01E20FF31F81939193225031093983E4
:102A50002883D7CF2091EC033091ED03232B41F451
:102A600020910202309103023093ED032093EC0396
:102A700020910002309101022115310541F42DB75A
:102A80003EB74091040250910502241B350BE091A2
:102A9000EC03F091ED03E217F307A0F42E1B3F0BBC
:102AA0002817390778F0AC014E5F5F4F24173507C0
:102AB00048F04E0F5F1F5093ED034093EC0381935A
:102AC00091939FCFF0E0E0E09CCFCF93DF9300970E
:102AD000E9F0FC01329713821282A091EE03B091CB
:102AE000EF03ED0130E020E01097A1F42081318167
:102AF000820F931F2091EC033091ED0328173907C3
:102B000009F061C0F093ED03E093EC03DF91CF9106
:102B10000895EA01CE17DF07E8F54A815B819E013F
:102B200041155105B1F7E901FB83EA8349915991B8
:102B3000C40FD51FEC17FD0761F4808191810296C7
:102B4000840F951FE90199838883828193819B83F8
:102B50008A83F0E0E0E012968D919C9113970097A4
:102B6000B9F52D913C911197CD010296820F931FDB
:102B70002091EC033091ED032817390739F630978F
:102B800051F51092EF031092EE03B093ED03A09372
:102B9000EC03BCCFD383C28340815181840F951F46
:102BA000C817D90761F44E5F5F4F88819981480F3C
:102BB000591F518340838A819B819383828321158E
:102BC000310509F0B0CFF093EF03E093EE039ECF11
:102BD000FD01DC01C0CF13821282D7CFFB01DC01E3
:102BE00002C001900D9241505040D8F70895F894DA
:022BF000FFCF15
:102BF2000000F0032000536F6E672054696D653A40
:102C02000900536F6E67204C656E6774683A09005D
:102C1200536F6E67204E756D3A090053442043414D
:102C220052442049532042524F4B454E0D0A0070E8
:102C32006C61796261636B007265616465720069DF
:102C4200646C65006D61696E00094E616D653A09DB
:102C5200000D0A09537461636B2055736167653A0D
:102C620009000D0A09537461636B2053697A653A4E
:102C720009000D0A0943757220537461636B507425
:102C8200723A09000D0A09537461636B2042617341
:102C9200653A090009537461636B20456E643A20FA
:102CA200000D0A0954687265616420537461747579
:102CB200733A09005448524541442052554E4E49F8
:102CC2004E47200054485245414420524541445900
:102CD2002020200054485245414420534C45455041
:102CE200494E4700544852454144205741495449AE
:102CF2004E472000554E5245434F474E495A454490
:102D0200202020000D0A0957616B657570205469F7
:102D12006D653A20000D0A095363686564756C6538
:102D220020436F756E743A2020200050726F6772D4
:102D3200616D20330D0A0053797374656D205469F7
:102D42006D653A200073200928006D7329000D0A71
:102D52004E756D626572206F66205468726561649B
:102D6200733A20000D0A5377617073205065722008
:102D72005365636F6E643A20000D0A0D0A000D0A56
:102D82005468726561642049443A200030780048F2
:102D920045590A626C6F636B2073697A653A200049
:102DA2000A6270673A20000A6970673A20000A696D
:0C2DB2006E6F64652074626C3A200000B3
:00000001FF
