:100000000C947C000C949D000C949D000C949D001D
:100010000C949D000C949D000C949D000C949D00EC
:100020000C949D000C949D000C949D000C949D00DC
:100030000C949D000C949D000C949D000C949D00CC
:100040000C949D000C9494030C949D000C949D00C2
:100050000C949D000C9427040C949D000C949D001E
:100060000C949D000C949D000C949D000C949D009C
:100070000C949D000C949D000C949D000C949D008C
:100080000C949D000C949D000C949D000C949D007C
:100090000C949D000C949D000C949D000C949D006C
:1000A0000C949D000C949D000C949D000C949D005C
:1000B0000C949D000C949D000C949D000C949D004C
:1000C0000C949D000C949D000C949D000C949D003C
:1000D0000C949D000C949D000C949D000C949D002C
:1000E0000C949D000C949F000C945F020C94A00053
:1000F0000C940A050C94C10011241FBECFEFD1E26D
:10010000DEBFCDBF00E00CBF13E0A0E0B2E0E4E84A
:10011000FCE200E00BBF02C007900D92A43AB107C9
:10012000D9F725E0A4EAB3E001C01D92A83CB207CC
:10013000E1F70E9436140C9440160C940000FFCF97
:10014000EC01888199810B8110E0292F3327021758
:10015000130791F09C012F5F3F4F398328838C0F49
:100160009D1FFC0184858093B4008881998181154D
:10017000924010F01982188281E090E00E9462049F
:10018000E0CFCF93DF93CDB7DEB7C658D1090FB616
:10019000F894DEBF0FBECDBF7C01CF57DF4F198271
:1001A0001882C158D0409C012A5F3F4FCD57DF4F86
:1001B00039832883C358D040845F9D4FCB57DF4F8E
:1001C00099838883C558D04037019CE0690E711C23
:1001D0009E012F5F3F4FCD57DF4F48815981C35854
:1001E000D040CB57DF4F68817981C558D040CE01D0
:1001F0008F579F4F0E94A7121B012C01F7012285E8
:10020000338550E040E083010E944F13F70182855F
:10021000938501969387828720E031E033832283A0
:10022000982F8827B0E0A0E04681578160857185CE
:1002300084179507A607B707D0F030C0F701C38031
:10024000D12CA180B12CCA14DB04C9F10E94BB04DB
:10025000F7019284812CA40170E060E0868197818F
:10026000A085B185481759076A077B07B8F40E9433
:100270007408882319F30E947A088037B1F18E360A
:10028000E9F6CF57DF4F88819981C158D040019658
:10029000CF57DF4F99838883C158D040F7018481BD
:1002A000958101969583848302C00E94BB04F70167
:1002B000808191818F3F9105C1F3B8F389CF228569
:1002C000338550E040E08301C201B1010E944F1329
:1002D000F701828593850196938782878281938136
:1002E0009395917093838283B1CFCF57DF4F8881ED
:1002F0009981C158D0400197CF57DF4F99838883A8
:10030000C158D040F70184819581019795838483FA
:10031000CECF2CE033E0FC01A901119241505040B6
:10032000E1F7DC01A45FBD4F89E0E6E0F2E0019077
:100330000D928A95E1F70895CF93DF93EC0169E17F
:1003400085E20E94A50B80E20E94DC0B8FE092E028
:100350000E948F08CE01845F9D4F0E948F0869E143
:1003600086E20E94A50B80E20E94DC0B87E192E00E
:100370000E948F086A857B8590E080E00E94D30907
:1003800069E187E20E94A50B80E20E94DC0B81E21A
:1003900092E00E948F082A853B85A3E8BEEB0E946D
:1003A00001150024880F991F001C880F991F001C3D
:1003B000892F902DBC0190E080E00E94D30969E173
:1003C00088E20E94A50B81E20E94DC0B8CE292E0A5
:1003D0000E948F086E817F81888599850E94D3094C
:1003E00069E189E20E94A50B80E20E94DC0B87E3B1
:1003F00092E00E948F086E817F818885998520EF29
:1004000035E540E050E00E94DF14CA01B9010E94C6
:10041000D30969E18AE20E94A50B80E20E94DC0B0D
:1004200083E492E00E948F088C819D810E94FC08E9
:1004300069E18BE20E94A50B80E20E94DC0B8BE558
:100440000E9483082A853B85A3E8BEEB0E94011524
:100450000024880F991F001C880F991F001C892FEA
:10046000902D22E3289FB001299F700D112490E068
:1004700080E02E813F81488559850E94DF14203F0E
:10048000354541055105A8F083E20E94830881E2C9
:100490000E94DC0BC2E0D0E08FE50E948308219629
:1004A000CE010197C297C0F38DE5DF91CF910C94F7
:1004B000830881E20E94DC0BC1E0D0E0EDCFEC01CB
:1004C0008091A9039091AA030E94CD07CE010E94BA
:1004D0009C0160E08CE20E94A50B8EE492E00E94F9
:1004E0008F088BEA93E00E948F0887E592E00E94D4
:1004F0008F080E94BB04E4CFCF92DF92EF92FF926D
:100500000F931F93CF93DF938B016A017901C09101
:10051000A903D091AA03FE01E757FF4F208131E1E3
:10052000239FC00DD11D1124FE01819391936A83F5
:100530001183C7018D960E941B159F838E83FC013A
:10054000EE0DFF1DCF018D96998788877796FD83E5
:10055000EC8381E08A871B861C861D861E861F868B
:10056000188A80E1DF011D928A95E9F78AE095E01B
:10057000858B948B138A028B118BC08AD786E0916E
:10058000A903F091AA03E757FF4F80818F5F808313
:10059000DF91CF911F910F91FF90EF90DF90CF905F
:1005A00008951F93CF93DF93E091A903F091AA03DD
:1005B000DF01A757BF4F8C91882341F19F0191E143
:1005C000899F200D311D1124EF01C257DF4F11E02B
:1005D00004C07196E217F307C9F082858230C9F72B
:1005E000458556856785708988819981AA81BB81F7
:1005F00084179507A607B70760F315861686178632
:10060000108A12877196E217F30739F7DF91CF91BD
:100610001F910895FF920F931F93CF93DF930E9432
:10062000D1020091A9031091AA03F801E857FF4FE6
:1006300040813196C081D0E0842F90E00196BE01C8
:100640000E94CB1491E1F92E07C0C9010196BE01A9
:100650000E94CB14481751F0282F30E0F801F89E83
:10066000E00DF11D11249285923078F7DF91CF9142
:100670001F910F91FF9008952F923F924F925F929A
:100680006F927F928F929F92AF92BF92CF92DF92A2
:10069000EF92FF920F931F93CF93DF93F0E0EDE57E
:1006A0002080EEE53080FB0121923082FC01219018
:1006B0003080F0E0EDE52082EEE53082DF91CF91F1
:1006C0001F910F91FF90EF90DF90CF90BF90AF9070
:1006D0009F908F907F906F905F904F903F902F9062
:1006E0000895CF93DF93E091A903F091AA03EF015E
:1006F000CD56DF4FDF01AE56BF4F8C9188831C92E1
:1007000019978C91882369F09F0191E1899F200DB1
:10071000311D11248385848713867196E217F307B0
:10072000C9F7DF91CF9108951F920F920FB60F92E4
:1007300011240BB60F922F933F938F939F93AF93F8
:10074000BF93CF93DF93EF93FF93E091A903F091D1
:10075000AA03EF01C657DF4F88819981AA81BB8127
:100760000196A11DB11D88839983AA83BB83299615
:10077000DF01AE56BF4F8C9188831C9219978C91E4
:10078000882369F09F0191E1899F200D311D11247B
:100790008385848713867196E217F307C9F7FF9163
:1007A000EF91DF91CF91BF91AF919F918F913F9149
:1007B0002F910F900BBE0F900FBE0F901F901895AA
:1007C000E091A903F091AA03E857FF4F808190E0E0
:1007D00008952091A9033091AA0341E1682F70E0A8
:1007E000F901489FE00DF11D112493859F5F9387C8
:1007F000F901EE56FF4F90819F5F90833A97908169
:10080000981721F18083F901499FE00DF11D112412
:100810004285411102C041E0428741E1469FF0011B
:10082000479FF00D1124E20FF31F1286B901949F28
:10083000600D711D11246C5F7F4FF901849FE00DE5
:10084000F11D1124CF0104960E943C0308951F92CC
:100850000F920FB60F9211240BB60F922F933F9366
:100860004F935F936F937F938F939F93AF93BF93B8
:10087000EF93FF93E091A903F091AA03E257FF4F92
:1008800080819181A281B3818D96A11DB11D80834C
:100890009183A283B3830E940A030E94E903FF911C
:1008A000EF91BF91AF919F918F917F916F915F91E8
:1008B0004F913F912F910F900BBE0F900FBE0F9055
:1008C0001F9018951F93CF93DF93009721F4DF912A
:1008D000CF911F910895F8942091A9033091AA0314
:1008E000F901E857FF4F408111E1F901149FE00D34
:1008F000F11D112422573F4F6DE2689FA001699FAF
:10090000500D1124E90188819981AA81BB81840F4E
:10091000951FA11DB11D85879687A787B08B82E0A3
:1009200082870E940A034091A9035091AA03FA0109
:10093000E857FF4F9081981739F00E94E9037894A7
:10094000DF91CF911F910895189F90011124420FBC
:10095000531FFA019285923080F3789401C0000011
:10096000E091A903F091AA03E20FF31F9285923060
:10097000B0F7F894E2CFF8940E940A030E94E903CA
:10098000789408950F931F93CF93DF931F921F9234
:10099000CDB7DEB70091A9031091AA0308571F4FE6
:1009A000F80180818F3F49F00E94BB040F900F90A7
:1009B000DF91CF911F910F9108950E940A03F801D2
:1009C00080838091A9039091AA03FC01E857FF4F0F
:1009D0002081F1E12F9F90011124FC01E20FF31F10
:1009E000128643854F5F4387FC01EE56FF4F4081DF
:1009F0004F5F40832C5F3F4FBE016F5F7F4F820F81
:100A0000931F0E943C030F900F90DF91CF911F9195
:100A10000F9108957894F101C2010994F89480919E
:100A2000A9039091AA03FC01E857FF4F208131E10F
:100A3000239F800D911D112424E0FC0122870E9438
:100A4000BB04CF93C82FCB018D960E941B15E0915C
:100A5000A903F091AA0321E1C29FE00DF11D112429
:100A600097838683CF910895F894A091A903B091BC
:100A7000AA03FD01E757FF4FE081F1E1EF9FA00DD1
:100A8000B11D1124FD018193919312966C931297DD
:100A900071831696ED91FC911797E20FF31FCF012A
:100AA0008D9619969C938E93189777961596FC932E
:100AB000EE93149781E01A968C931A971B961C92CA
:100AC0001B971C961C921C971D961D921D921D92A1
:100AD0001C92509780E1DF011D928A95E9F78AE028
:100AE00095E0858B948B138A628B718B408B578733
:100AF000E091A903F091AA03E757FF4F80818F5F30
:100B0000808378940895EEE6F0E0808182608083AF
:100B100084B5826084BD85B5826085BD8AE587BD68
:100B200089E09DE39093890080938800EFE6F0E0F0
:100B3000808182608083E1E8F0E080818D60808345
:100B40000895F8940E948305F89484E990E00E9447
:100B50001B15FC019093AA038093A903DC01A857FD
:100B6000BF4F1C92119681E08C9311961D921D929D
:100B70001D921C92139714961D921D921D921C9209
:100B8000139788E892E09183808313821282178200
:100B900016828FEF91E291878087158214821286E8
:100BA00013861486158616861786108A14961C924C
:100BB00011961C92CF010895F8940E948305F89431
:100BC00084E990E00E941B159093AA038093A903E7
:100BD000FC01E857FF4F2FEF2083319610823196AA
:100BE0001082118212821382349610821182128234
:100BF000138234961082319610820895E0EBF0E073
:100C0000808183628083E1EBF0E08081816080837A
:100C1000E1E0F1E08081806480830895FC0110822E
:100C2000118213861286158614860895CF93DF935A
:100C3000EC01F8940E94E0039881911107C091E0C3
:100C4000988389837894DF91CF9108952C853D8591
:100C5000EA85FB85E20FF31FE770FF27EC0FFD1F0E
:100C600082832F5F3F4F3D872C87E091A903F0914E
:100C7000AA0391E1899FE00DF11D112483E0828791
:100C8000DF91CF910C94BB04FC01F8948485958589
:100C9000009721F41082118278940895228533857B
:100CA000DF01A20FB31F12964C912F5F3F4F2770A9
:100CB0003327338722870197958784874183E09183
:100CC000A903F091AA0381E1489FE00DF11D1124D1
:100CD00081E0828778940895FC01608312861186F2
:100CE000148613860895CF93DF93EC01F8948881DE
:100CF000181634F4815088837894DF91CF91089549
:100D0000815088830E94E0032B853C85E985FA8524
:100D1000E20FF31FE770FF27EC0FFD1F81832F5FAA
:100D20003F4F3C872B87E091A903F091AA0391E103
:100D3000899FE00DF11D112483E08287DF91CF911F
:100D40000C94BB04FC01F89490819F5F908319166A
:100D500014F4789408952385348521153105C9F359
:100D600081859285DF01A80FB91F11964C910196DC
:100D7000877099279287818721503109348723878B
:100D8000E091A903F091AA0381E1489FE00DF11DD4
:100D9000112481E0828778940895FC01F894908171
:100DA0009F5F9083191614F47894089523853485F1
:100DB00021153105C9F341855285DF01A40FB51F07
:100DC00011968C914F5F5F4F47705527528741872F
:100DD00021503109348723870E94E90378940895CC
:100DE000FF920F931F93CF93DF93F82E162F042FAC
:100DF000E9018091AB059091AC050E9416068F2DFC
:100E00000E94DC0B602F812F0E94A50BCE010E9457
:100E10008F088091AB059091AC05DF91CF911F9128
:100E20000F91FF900C9444068F929F92AF92BF92C5
:100E3000CF92DF92EF92FF920F931F93CF93DF93A6
:100E4000CDB7DEB761970FB6F894DEBF0FBECDBF4A
:100E500089829A82CD82DE82EF82F88609871A879C
:100E60002B874D875E876F87788B898B09851A85DD
:100E70008FE10E94DC0B8DE892E00E948F088BE5E9
:100E80000E94DC0B89819A810E948F0881E20E9476
:100E9000DC0B85E992E00E948F088DE50E94DC0B57
:100EA0008D819E819801281B390BC9010E94FC0885
:100EB00082E20E94DC0B86EA92E00E948F088EE5B7
:100EC0000E94DC0B8F8198859801281B390BC90182
:100ED0000E94FC0883E20E94DC0B8FE10E94DC0B85
:100EE00086EB92E00E948F088BE50E94DC0B8B85DD
:100EF000813009F44DC008F446C08230D1F183300E
:100F0000E9F589EF92E00E948F0880E20E94DC0BF5
:100F100089E193E00E948F088CE50E94DC0B6E85CE
:100F20007F85888999890E94530A81E20E94DC0B9F
:100F30008AE293E00E948F088DE50E94DC0B8D858C
:100F400090E00E943B0980E993E061960FB6F89427
:100F5000DEBF0FBECDBFDF91CF911F910F91FF90EC
:100F6000EF90DF90CF90BF90AF909F908F900C94B8
:100F70008F0889EE92E00E948F08C7CF89E093E046
:100F80000E948F08C2CF89EC92E00E948F08BDCFEB
:100F900089ED92E00E948F08B8CF4F925F926F92D6
:100FA0007F928F929F92AF92BF92CF92DF92EF92F9
:100FB000FF920F931F93CF93DF93EC0161E081E0E9
:100FC0000E94A50B84E20E94DC0B80E493E00E9467
:100FD0008F088CE493E00E948F08FE01E657FF4FD4
:100FE00060817181828193810E94D3098AE593E0B7
:100FF0000E948F08FE01E257FF4F6081718182815C
:1010000093810E94D3098FE593E00E948F0883E6C5
:1010100093E00E948F083E0189E8680E711CF3017D
:10102000808190E00E94FC0889E793E00E948F088D
:10103000FE01ED56FF4F808190E00E943B098EE853
:1010400093E00E948F08F3018081882371F1512C75
:1010500081E1482E84E20E94DC0B83E993E00E9448
:101060008F08052D10E0C8010E94FC08409EF00189
:10107000419EF00D1124EC0FFD1F80809180A28015
:10108000B380C480D580E680F780008511852285F5
:101090003385448555856685778580890E94140748
:1010A0005394F30180815816A8F2DF91CF911F91DC
:1010B0000F91FF90EF90DF90CF90BF90AF909F90F7
:1010C0008F907F906F905F904F90089582E0809313
:1010D000C0001092C50080E18093C400E1ECF0E014
:1010E00080818861808308958091C000881F88274F
:1010F000881F08958091C00087FF03C08091C600BB
:1011000008958FEF08959091C10095FDFCCF9091C7
:10111000C00095FFF8CF8093C60081E00895DC0100
:101120002C91222399F0FC0131969091C10095FDFC
:10113000FCCF9091C00095FFF8CF2093C600CF015F
:101140008A1B9B0B21912111F0CF089590E080E044
:101150000895FC019091C10095FDFCCF8091C000E5
:1011600085FFF8CF8BE18093C6009091C10095FD7B
:10117000FCCF8091C00085FFF8CF8BE58093C6003F
:101180002081222371F031969091C10095FDFCCF12
:101190009091C00095FFF8CF2093C60021912111B6
:1011A000F3CF08950F931F93CF93DF93382F292FF9
:1011B000C5E0D0E0E0E1F7E20AE010E0832F922FF3
:1011C000BF010E94B714605D2091C10025FDFCCFD6
:1011D0002091C00025FFF8CF6093C600382F292F3B
:1011E000CF01B8010E94CB14FB01219739F7DF91A1
:1011F000CF911F910F9108950F931F93CF93DF937A
:101200009C01C5E0D0E0E0E1F7E20AE010E0C901AE
:10121000BF010E94B714672B81F4E130F10569F03A
:101220009C01CF01B8010E94CB14FB01219779F7F3
:10123000DF91CF911F910F910895CAE0D0E0C901CD
:10124000BF010E94B714605D2091C10025FDFCCF55
:101250002091C00025FFF8CF6093C6009C01CF010C
:10126000BE010E94CB14FB01309749F7DF91CF916B
:101270001F910F9108950F931F93CF93DF939C01BC
:10128000C5E0D0E0E0E1F7E240E20AE010E0C901A9
:10129000BF010E94B714672BD1F4E130F105B9F01A
:1012A0002091C10025FDFCCF2091C00025FFF8CF83
:1012B0004093C6009C01CF01B8010E94CB14FB01F2
:1012C000219729F7DF91CF911F910F910895CAE0DF
:1012D000D0E0C901BF010E94B714605D2091C10038
:1012E00025FDFCCF2091C00025FFF8CF6093C600FC
:1012F0009C01CF01BE010E94CB14FB01309749F73E
:10130000DF91CF911F910F9108956F927F928F92ED
:101310009F92AF92BF92CF92DF92EF92FF920F9384
:101320001F93CF93DF933B01D82FC92F0AE010E022
:10133000C12C8AECD82E8AE9E82E8BE3F82E9AE0AD
:10134000892E912CA12CB12CB3018D2F9C2FA7019C
:1013500096010E94DF14205D3091C10035FDFCCF65
:101360003091C00035FFF8CF2093C6003B01D82F45
:10137000C92FC701B601A50194010E94DF146901BC
:101380007A010150110901F7DF91CF911F910F915F
:10139000FF90EF90DF90CF90BF90AF909F908F9095
:1013A0007F906F9008954F925F926F927F928F928D
:1013B0009F92AF92BF92CF92DF92EF92FF920F93E4
:1013C0001F93CF93DF93C62F172F082FD92F9AE0A3
:1013D000A92EB12CC12C2AECD22E2AE9E22E2BE325
:1013E000F22E3AE0432E512C612C712C6C2F712F70
:1013F000802F9D2FA70196010E94DF14232B242B01
:10140000252B39F521E0C216D104E104F10409F1DC
:10141000C62F172F082FD92FC701B601A30192019C
:101420000E94DF1469017A0181E0A81AB108F1F67F
:10143000DF91CF911F910F91FF90EF90DF90CF90B0
:10144000BF90AF909F908F907F906F905F904F90E4
:1014500008958AE0882E912CA12CB12C6C2F712F2D
:10146000802F9D2FA70196010E94DF14205D3091EF
:10147000C10035FDFCCF3091C00035FFF8CF20937F
:10148000C600C62F172F082FD92FC701B601A501F7
:1014900094010E94DF1469017A01C114D104E104AE
:1014A000F104E1F6C5CF4F925F926F927F928F92D7
:1014B0009F92AF92BF92CF92DF92EF92FF920F93E3
:1014C0001F93CF93DF93EB01182F092F9AE0A92EDA
:1014D000B12CC12C2AECD22E2AE9E22E2BE3F22EDB
:1014E00030E2932E4AE0442E512C612C712CBE0127
:1014F000812F902FA70196010E94DF14232B242B0C
:10150000252B81F521E0C216D104E104F10451F14B
:101510002091C10025FDFCCF2091C00025FFF8CF10
:101520009092C600EB01182F092FC701B601A30145
:1015300092010E94DF1469017A0181E0A81AB108C2
:10154000B1F6DF91CF911F910F91FF90EF90DF9057
:10155000CF90BF90AF909F908F907F906F905F9053
:101560004F9008958AE0882E912CA12CB12CBE01B9
:10157000812F902FA70196010E94DF14205D3091EA
:10158000C10035FDFCCF3091C00035FFF8CF20936E
:10159000C600EB01182F092FC701B601A501940160
:1015A0000E94DF1469017A01C114D104E104F1043D
:1015B000F1F6C7CFBC0144E09B01232F33272295CE
:1015C0002F702A303105A0F4205D9091C10095FD67
:1015D000FCCF9091C00095FFF8CF2093C600629594
:1015E0007295707F7627607F7627415029F708959E
:1015F000295C9091C10095FDFCCF9091C00095FFB2
:10160000F8CFEBCFBC01E2EAF3E020E39091C10018
:1016100095FDFCCF9091C00095FFF8CF2093C600B8
:1016200021912111F3CF44E080E09B01232F332748
:1016300022952F7081110EC02115310559F44130CA
:1016400039F162957295707F7627607F76274150D9
:1016500061F70895822F2A30310568F4805D9091FA
:10166000C10095FDFCCF9091C00095FFF8CF80930D
:10167000C60081E0E6CF295C9091C10095FDFCCFCA
:101680009091C00095FFF8CF2093C60081E0D9CF9C
:1016900080E0E4CFAB01BC01E2EAF3E090E38091AB
:1016A000C10085FDFCCF8091C00085FFF8CF9093ED
:1016B000C60091919111F3CF28E030E018C0009757
:1016C000A105B105F9F4213089F1440F551F661FBA
:1016D000771F440F551F661F771F440F551F661F46
:1016E000771F440F551F661F771F215069F1DB01DB
:1016F000CA01ECE1B695A79597958795EA95D1F73C
:101700003323E9F2382F8A309105A105B10578F02D
:1017100097E3980F8091C10085FDFCCF8091C000B8
:1017200085FFF8CF9093C60031E0CFCF30E0305D39
:101730008091C10085FDFCCF8091C00085FFF8CF6E
:101740003093C60031E0C1CF0895CF93C62F90915A
:10175000C10095FDFCCF9091C00095FFF8CF9BE1B3
:101760009093C6009091C10095FDFCCF9091C00070
:1017700095FFF8CF9BE59093C60090E00E94FC088F
:101780008091C10085FDFCCF8091C00085FFF8CF1E
:101790008BE38093C6008C2F90E00E94FC08809120
:1017A000C10085FDFCCF8091C00085FFF8CF86E6A3
:1017B0008093C600CF9108959091C10095FDFCCF14
:1017C0009091C00095FFF8CF9BE19093C600909157
:1017D000C10095FDFCCF9091C00095FFF8CF9BE52F
:1017E0009093C60090E00E94FC088091C10085FDA6
:1017F000FCCF8091C00085FFF8CF8DE68093C600B6
:1018000008958091C10085FDFCCF8091C00085FFC7
:10181000F8CF8BE18093C6008091C10085FDFCCF9D
:101820008091C00085FFF8CF8BE58093C600809142
:10183000C10085FDFCCF8091C00085FFF8CF82E319
:101840008093C6008091C10085FDFCCF8091C000CF
:1018500085FFF8CF8AE48093C60061E081E00C94B4
:10186000A50B8091C10085FDFCCF8091C00085FF54
:10187000F8CF8BE18093C6008091C10085FDFCCF3D
:101880008091C00085FFF8CF8BE58093C6008091E2
:10189000C10085FDFCCF8091C00085FFF8CF88E4B2
:1018A0008093C60008950F931F93CF93DF938A010F
:1018B000E9010E94A50BF80190819923E9F0319686
:1018C0008091C10085FDFCCF8091C00085FFF8CFDD
:1018D0009093C6009F01201B310B91919111F0CF85
:1018E00089010B5F1F4FCE010E943B09C801DF91A8
:1018F000CF911F910F91089505E010E0F4CF0F9361
:101900001F93CF93DF938A01E9010E94A50BF80191
:1019100090819923F9F031968091C10085FDFCCF2B
:101920008091C00085FFF8CF9093C6009F01201BD7
:10193000310B91919111F0CF8901065F1F4FBE01CC
:1019400090E080E00E94530AC801DF91CF911F917F
:101950000F9108950AE010E0F2CF8FEF8EBD8091D5
:10196000B2059091B3059C012F5F3F4F3093B305B3
:101970002093B2058130924098F44FEF0DB407FEEA
:10198000FDCF4EBD8091B2059091B3059C012F5FB4
:101990003F4F3093B3052093B2058130924070F3EE
:1019A0000DB407FEFDCF289A8FEF8EBD0DB407FE54
:1019B000FDCF1092A60308958093A8030895809305
:1019C000A8036093A7030895CF93C82F8091A6031F
:1019D00081110E94AD0CC093A503CF910895809111
:1019E000A40308958093A4030895CF92DF92EF9209
:1019F000FF92CF93C82F6A017B018091A6038111CA
:101A00000E94AD0C289888EC97E9A4E0B0E03FEF85
:101A10003EBD0DB407FEFDCF2EB52F3F41F02AE0AD
:101A20002A95F1F700C00197A109B10989F78C2F18
:101A300080648EBD0DB407FEFDCF88E190E0B70154
:101A4000A601082E04C076956795579547950A9488
:101A5000D2F74EBD0DB407FEFDCF0897883F2FEF9C
:101A6000920769F785E9CC2319F087E8C830B9F403
:101A70008EBD0DB407FEFDCF90E02FEF2EBD0DB44F
:101A800007FEFDCF8EB587FF04C09F3F11F09F5F1B
:101A9000F5CFCF91FF90EF90DF90CF9008958FEF2B
:101AA000E7CF8F929F92AF92BF92EF92FF920F93E8
:101AB0001F93CF93DF93EA0179012091A60322239C
:101AC00071F08090AE059090AF05A090B005B090F9
:101AD000B10586169706A806B90609F44BC06093AF
:101AE000AE057093AF058093B0059093B10520913A
:101AF000A403233039F029E0660F771F881F991F50
:101B00002A95D1F7AB01BC0181E10E94F50C48ECAC
:101B100057E964E070E02FEF811114C02EBD0DB4C1
:101B200007FEFDCF9EB59F3FE1F49AE09A95F1F74D
:101B300000C0415051096109710981F79DE09093FE
:101B4000A80304C083E08093A80380E0DF91CF91D5
:101B50001F910F91FF90EF90BF90AF909F908F904B
:101B600008959E3F09F45FC020E12093A80390935D
:101B7000A703ECCF2091B2053091B305421753076C
:101B800008F4ADCF8FEF8EBD8091B2059091B30573
:101B90008C179D0788F42FEF0DB407FEFDCF2EBDE7
:101BA0008091B2059091B30501969093B30580930F
:101BB000B2058C179D0780F3A8014150510981F0AF
:101BC000F70198012E0D3F1D215031099FEF0DB4F3
:101BD00007FEFDCF8EB581939EBDE217F307B9F7DF
:101BE0000DB407FEFDCF8EB5F701E40FF51F80831E
:101BF0008091B2059091B305080F191F1093B3059A
:101C00000093B2058091A503882319F001151240B5
:101C100020F08091A603811102C081E097CF0E943D
:101C2000AD0C81E093CF1092B3051092B20581E024
:101C30008093A603A7CF0F931F939A0100E012E0B1
:101C400050E040E00E94510D1F910F910895CF92F6
:101C5000DF92EF92FF921F93CF93DF93182F209A7A
:101C6000289A229A219A83E58CBD8AE090E02FEF92
:101C70002EBD0DB407FEFDCF0197D1F7289881E066
:101C800092E02FEF2EBD0DB407FEFDCF3EB50197BC
:101C9000C9F7DBE040E050E0BA0180E00E94F50CBB
:101CA000C82F813089F0D150A9F781E08093A80333
:101CB000C093A703C0E08C2FDF91CF911F91FF90BD
:101CC000EF90DF90CF9008954AEA51E060E070E035
:101CD00088E00E94F50C813009F440C082FF51C0B9
:101CE000C093A40388E6C82E88E8D82E8EE1E82E9B
:101CF000F12C07C081E0C81AD108E108F10809F405
:101D000062C08AE08A95F1F700C040E050E0BA0175
:101D100087E30E94F50C8091A40340E050E0BA01F3
:101D2000823021F440E050E060E070E489E20E94FB
:101D3000F50C8111DFCF8091A403823041F18CB585
:101D40008C7F8CBD111103C08DB581608DBD289A2B
:101D50008FEF8EBD0DB407FEFDCFADCF84E090E0D8
:101D60003FEF3EBD0DB407FEFDCF2EB50197C9F77D
:101D70002A3A71F189E08093A8032093A703C0E079
:101D80009ACF92E09093A8038093A703ABCF40E053
:101D900050E0BA018AE30E94F50C811121C08FEF57
:101DA0008EBD0DB407FEFDCF8EB5807C803CA1F0CA
:101DB00083E090E02FEF2EBD0DB407FEFDCF3EB5C2
:101DC0000197C9F7BCCF86E08093A803C0E073CF2A
:101DD00082E08093A40386CF83E08093A403E8CFBE
:101DE00085E08093A803C0E066CF0F931F93011591
:101DF000110579F0F801E40FF51FE130F24028F405
:101E00000E94510D1F910F91089580E01F910F9135
:101E1000089581E01F910F9108958091A60381118B
:101E20000C94AD0C0895CF93DF93D62FC72F40E0CD
:101E300050E0BA010E94F50C48EC57E964E070E00C
:101E40002FEF811114C02EBD0DB407FEFDCF9EB53E
:101E50009F3FA1F49AE09A95F1F700C041505109D3
:101E60006109710981F79DE09093A80304C088E09F
:101E70008093A80380E0DF91CF9108959E3F41F0C9
:101E800020E12093A8039093A703DF91CF910895B9
:101E9000ED2FFC2F9F01205F3F4F9FEF9EBD0DB4A4
:101EA00007FEFDCF8EB58193E217F307B9F78FEFE9
:101EB0008EBD0DB407FEFDCF8EB58FEF8EBD0DB478
:101EC00007FEFDCF8EB5289A8FEF8EBD0DB407FEAD
:101ED000FDCF81E0DF91CF9108950F931F93CF93B2
:101EE000DF93CDB7DEB760970FB6F894DEBF0FBEB5
:101EF000CDBFBE016F5F7F4F89E00E94130F882323
:101F000009F447C08981807CA1F0803409F445C080
:101F100087E08093A80360E070E0CB0160960FB685
:101F2000F894DEBF0FBECDBFDF91CF911F910F910F
:101F300008956F81637070E0762F6627770F770FB3
:101F4000888590E0880F991F880F991F682B792B3F
:101F500089858295869586958370682B6F5F7F4F04
:101F600090E080E02A852370220F3B8537FB3327E2
:101F700030F9232B3E813F70230F3327331F275027
:101F8000310904C0660F771F881F991F2A95D2F761
:101F9000C5CF60E070E0CB01C1CF688566956695DE
:101FA00070E090E080E0CB01772766272A85622BDE
:101FB000098510E0102F0027012E000C220B330B97
:101FC000602B712B822B932B6F5F7F4F8F4F9F4F17
:101FD0004AE0660F771F881F991F4A95D1F79ECF59
:101FE0004F925F926F927F928F929F92AF92BF9229
:101FF000CF92DF92EF92FF92CF93C12CD12C76013A
:10200000CFEF28EE422E23E0522E612C712C4C0192
:10201000B12CA12CCEBD0DB407FEFDCF9EB59F3FC8
:10202000B1F08FEFC81AD80AE80AF80A8AE08A9550
:10203000F1F700C0C701B601A30192010E94DF14AD
:1020400082169306A406B50628F780E001C081E059
:10205000CF91FF90EF90DF90CF90BF90AF909F9087
:102060008F907F906F905F904F90089588EC97E9E4
:10207000A4E0B0E03FEF3EBD0DB407FEFDCF2EB5AE
:102080002F3F69F42AE02A95F1F700C00197A109D2
:10209000B10989F78DE08093A80380E008952E3F71
:1020A00039F080E18093A8032093A70380E008958E
:1020B00081E00895BC0189E00C94130FBC018AE013
:1020C0000C94130F4F925F926F927F92AF92BF92D8
:1020D000CF92DF92EF92FF920F931F93CF93DF93F4
:1020E0006A0159017801C0E0D2E0C41BD50B2B0175
:1020F0003C01440C551C661C771C8E01EC16FD0639
:1021000008F487019501A601C301B2010E94F50EF2
:10211000CE15DF0578F0DF91CF911F910F91FF90E1
:10212000EF90DF90CF90BF90AF907F906F905F90D7
:102130004F900895870112500C0D1D1D95012C0F15
:102140003D1FC301B2016F5F7F4F8F4F9F4F50E024
:1021500040E00E94F50EDFCF0F931F934115A2E0E0
:102160005A0728F40E9462101F910F910895F801F8
:102170000130124078F45170660F771F881F991F45
:102180006F5F7F4F8F4F9F4F8F010E94F50E1F9102
:102190000F910895E0E0F2E0EECF0F931F93CF93FD
:1021A000DF93CDB7DEB7C455D1090FB6F894DEBFC3
:1021B0000FBECDBF9E012F5F3F4F84E5F901119205
:1021C0008A95E9F704E510E050E040E061E070E056
:1021D00080E090E00E94621080E094E0098C02C0F0
:1021E000880F991F0A94E2F7092E000CAA0BBB0B6B
:1021F0008093BC059093BD05A093BE05B093BF0529
:1022000089A19AA1ABA1BCA18093C0059093C105FF
:10221000A093C205B093C30589A59AA5ABA5BCA59B
:102220008093B8059093B905A093BA05B093BB0508
:10223000CC5ADF4F0FB6F894DEBF0FBECDBFDF9193
:10224000CF911F910F9108950F931F93CF93DF9319
:10225000CDB7DEB7A0970FB6F894DEBF0FBECDBFE7
:1022600000E210E09E012F5F3F4F50E040E062E04F
:1022700070E080E090E00E94621089859A85AB85CD
:10228000BC858093B4059093B505A093B605B09333
:10229000B705A0960FB6F894DEBF0FBECDBFDF9195
:1022A000CF911F910F9108954F925F926F927F92FD
:1022B0008F929F92AF92BF92CF92DF92EF92FF9256
:1022C0000F931F93CF93DF93EA0161507109810946
:1022D00091092091B8053091B9054091BA05509106
:1022E000BB050E94DF1469017A01660F771F881F02
:1022F000991F660F771F881F991F660F771F881F0A
:10230000991F660F771F881F991F660F771F881FF9
:10231000991F660F771F881F991F660F771F881FE9
:10232000991F2091BC053091BD054091BE0550918B
:10233000BF050E94DF1429013A014B016091C005DD
:102340007091C1058091C2059091C305A7019601C6
:102350000E94A714C090B405D090B505E090B605D2
:10236000F090B7056C0D7D1D8E1D9F1D640D751DB4
:10237000861D971D00E810E09E01A4010E94AC108C
:10238000DF91CF911F910F91FF90EF90DF90CF9051
:10239000BF90AF909F908F907F906F905F904F9085
:1023A00008952F923F924F925F926F927F928F92F9
:1023B0009F92AF92BF92CF92DF92EF92FF920F93D4
:1023C0001F93CF93DF93CDB7DEB7C250D4400FB683
:1023D000F894DEBF0FBECDBF4A015901CF5FDB4F7E
:1023E00019830883C150D44017010091BC05109196
:1023F000BD059E012F5F3F4F790150E040E00E94F4
:1024000062104091BC055091BD056091BE05709170
:10241000BF05411551056105710509F449C08D815C
:102420009E81892B09F444C0F40180819181870148
:102430001AC00196F40191838083F80124813581CB
:10244000020F131F28014E185F08052C000C6608A8
:102450007708441655066606770650F5F80124817C
:102460003581232B29F1F501208131812817390786
:1024700001F7F8016081718182819381A6010E9438
:102480005411F6018081918197FD2FC0F501808163
:102490009181019691838083F401808191814091A3
:1024A000BC055091BD056091BE057091BF05C1CFBF
:1024B00060E070E0CB01CE5FDB4F0FB6F894DEBF7B
:1024C0000FBECDBFDF91CF911F910F91FF90EF9085
:1024D000DF90CF90BF90AF909F908F907F906F9044
:1024E0005F904F903F902F90089584819581A681B1
:1024F000B781F10180839183A283B383F801868140
:102500009781CF5FDB4F28813981C150D440280F9C
:10251000391FF9011082892BA1F0D8011896CF5FDD
:10252000DB4FE881F981C150D440A801485F5E4F7C
:1025300003C04A175B0729F08D918193E217F307D7
:10254000C1F7F8016081718182819381B4CF2F92AC
:102550003F924F925F926F927F928F929F92AF9233
:10256000BF92CF92DF92EF92FF920F931F93CF9380
:10257000DF93CDB7DEB7C658D1090FB6F894DEBFEA
:102580000FBECDBFCB57DF4F99838883C558D0404E
:102590005B014A0139010E94CD100E942411AE0155
:1025A0004F5F5F4F62E070E080E090E00E94541166
:1025B000CF57DF4F19821882C158D0408D819E813C
:1025C000AF81B885892B8A2B8B2B09F464C0CE018F
:1025D0008996CD57DF4F99838883C358D040212CEB
:1025E000312C210123941AC06091BC057091BD0566
:1025F0008091BE059091BF05A20191010E94A71490
:10260000FFEF2F1A3F0A4F0A5F0A0D811E812F81AB
:1026100038856017710782079307E8F5CD57DF4FBC
:10262000E881F981C358D040619171918191919174
:10263000CD57DF4FF983E883C358D040630174015D
:102640008501CB57DF4F28813981C558D040AE0175
:102650004F575F4F0E94D11161157105810591059A
:1026600019F2CA57DF4F0FB6F894DEBF0FBECDBFC9
:10267000DF91CF911F910F91FF90EF90DF90CF905E
:10268000BF90AF909F908F907F906F905F904F9092
:102690003F902F90089560E070E0CB01E2CF4F9221
:1026A0005F926F927F928F929F92AF92BF92CF92E2
:1026B000DF92EF92FF920F931F93CF93DF93CDB7EB
:1026C000DEB7C458D1400FB6F894DEBF0FBECDBF01
:1026D0006B017C0149015A0160E080E00E94A50B7A
:1026E000AE014F5F5E4FC701B6010E9454114424F2
:1026F000582C692C7A2C740141E0E422FF24FE2C32
:10270000EE24E00EF11E640153E0C522DD24D50164
:10271000C401B695A79597958795B695A795979572
:102720008795CF57DE4F88839983AA83BB83C1588F
:10273000D14090E389169104A104B10408F461C06A
:102740000091BC051091BD05C75ADE4F68817981A3
:102750008A819B81C955D1409E012F5F3F4F50E038
:1027600040E00E946210CB5FDE4F088119812A8110
:102770003B81C550D1408091BC059091BD05A09191
:10278000BE05B091BF050419150926093709801740
:102790009107A207B30798F1CF57DE4F888199813F
:1027A000AA81BB81C158D1400C97A109B109E1E0D0
:1027B000F0E0EC0FFD1F8E0F9F1FDC016C9170E0AD
:1027C00090E080E0970140E05C2D0E94AC10CC5777
:1027D000DE4F0FB6F894DEBF0FBECDBFDF91CF91B5
:1027E0001F910F91FF90EF90DF90CF90BF90AF902F
:1027F0009F908F907F906F905F904F9008958C0185
:10280000CBCFCB5FDE4F088119812A813B81C55038
:10281000D1408091BC059091BD05A091BE05B091BD
:10282000BF05041915092609370980179107A20762
:10283000B30708F48C01CF57DE4FE881F981C15806
:10284000D1403A96EE0FFF1FEE0FFF1FA1E0B1E05F
:10285000AC0FBD1FEA0FFB1F6081718182819381E4
:10286000970140E05C2D0E94AC10B1CF0F931F93F5
:10287000CF93DF93CDB7DEB7CC50D3400FB6F894EB
:10288000DEBF0FBECDBF0E9466080E94010C81E032
:102890000E94270E811114C089E592E00E948F08E2
:1028A00010E000E080E00E9483080F5F1F4F0031BE
:1028B00087E21807B9F781E00E94270E882361F3A9
:1028C000CE0101960E9489010E94FE050E94DC054E
:1028D0009093AA038093A90325E030E0AE014F5FF7
:1028E0005F4F60EA70E08DE692E00E947C0224EC8B
:1028F00039E0AE014F5F5F4F61EC70E086E792E038
:102900000E947C0224EF31E0AE014F5F5F4F6FE524
:1029100072E08DE792E00E947C0225E030E050E01A
:1029200040E06FE970E083E892E00E947C020E9440
:10293000C20490E080E0C45FDC4F0FB6F894DEBFC5
:102940000FBECDBFDF91CF911F910F910895DB0195
:102950008F939F930E941015BF91AF91A29F800DFE
:10296000911DA39F900DB29F900D11240895AA1B55
:10297000BB1B51E107C0AA1FBB1FA617B70710F06A
:10298000A61BB70B881F991F5A95A9F7809590959C
:10299000BC01CD01089597FB072E16F4009407D0D3
:1029A00077FD09D00E94B71407FC05D03EF490953E
:1029B00081959F4F0895709561957F4F0895A1E28D
:1029C0001A2EAA1BBB1BFD010DC0AA1FBB1FEE1FA9
:1029D000FF1FA217B307E407F50720F0A21BB30BF4
:1029E000E40BF50B661F771F881F991F1A9469F770
:1029F00060957095809590959B01AC01BD01CF01CC
:102A00000895A29FB001B39FC001A39F700D811DC7
:102A10001124911DB29F700D811D1124911D0895E7
:102A20000E940115A59F900DB49F900DA49F800D4D
:102A3000911D112408950F931F93CF93DF9382303C
:102A4000910510F482E090E0E091C605F091C70591
:102A500030E020E0B0E0A0E0309799F42115310596
:102A600009F44AC0281B390B24303105D8F58A8176
:102A70009B816115710589F1FB0193838283FE01BE
:102A800011C0408151810281138148175907E0F03C
:102A90004817590799F4109761F012960C93129702
:102AA00013961C933296CF01DF91CF911F910F9116
:102AB00008950093C6051093C705F4CF211531057D
:102AC00051F04217530738F0A901DB019A01BD010B
:102AD000DF01F801C1CFEF01F9CF9093C7058093D3
:102AE000C605CDCFFE01E20FF31F819391932250D3
:102AF000310939832883D7CF2091C4053091C5058A
:102B0000232B41F420910202309103023093C5053A
:102B10002093C40520910002309101022115310556
:102B200041F42DB73EB74091040250910502241B99
:102B3000350BE091C405F091C505E217F307A0F449
:102B40002E1B3F0B2817390778F0AC014E5F5F4F03
:102B50002417350748F04E0F5F1F5093C50540936B
:102B6000C405819391939FCFF0E0E0E09CCFCF9399
:102B7000DF930097E9F0FC01329713821282A09153
:102B8000C605B091C705ED0130E020E01097A1F433
:102B900020813181820F931F2091C4053091C5059A
:102BA0002817390709F061C0F093C505E093C40503
:102BB000DF91CF910895EA01CE17DF07E8F54A814A
:102BC0005B819E0141155105B1F7E901FB83EA8361
:102BD00049915991C40FD51FEC17FD0761F480810D
:102BE00091810296840F951FE901998388838281E0
:102BF00093819B838A83F0E0E0E012968D919C9113
:102C000013970097B9F52D913C911197CD0102963C
:102C1000820F931F2091C4053091C50528173907ED
:102C200039F6309751F51092C7051092C605B0934A
:102C3000C505A093C405BCCFD383C2834081518115
:102C4000840F951FC817D90761F44E5F5F4F8881C5
:102C50009981480F591F518340838A819B819383B7
:102C600082832115310509F0B0CFF093C705E093B9
:102C7000C6059ECFFD01DC01C0CF13821282D7CFE3
:042C8000F894FFCFF6
:102C84000000C80520006E6F207469746C650054E0
:102C940069746C653A0900427566206E756D3A096F
:102CA400004375722054696D653A090046696C6584
:102CB400204C656E3A0900536F6E672054696D6548
:102CC4003A0900536F6E67204E756D3A090044450A
:102CD4004255473A203C003E00534420434152446D
:102CE4002049532042524F4B454E0D0A00706C61EF
:102CF400796261636B00726561646572007374610B
:102D040074730069646C65006D61696E00094E61DD
:102D14006D653A09000D0A09537461636B2055739C
:102D24006167653A09000D0A09537461636B2053A6
:102D3400697A653A09000D0A09546872656164206C
:102D44005374617475733A090054485245414420E0
:102D540052554E4E494E4720005448524541442056
:102D640052454144592020200054485245414420B2
:102D7400534C454550494E47005448524541442020
:102D840057414954494E472000554E5245434F47F9
:102D94004E495A4544202020000D0A0957616B65AD
:102DA40075702054696D653A20000D0A09536368F3
:102DB4006564756C6520436F756E743A202020003D
:102DC40050726F6772616D20330D0A00537973740A
:102DD400656D2054696D653A200073200928006DE3
:102DE4007329000D0A4E756D626572206F6620545A
:102DF4006872656164733A20000D0A5377617073D9
:102E040020506572205365636F6E643A20000D0A8A
:102E14000D0A000D0A5468726561642049443A2021
:042E24000030780002
:00000001FF
