:100000000C947E000C949F000C949F000C949F0015
:100010000C949F000C949F000C949F000C949F00E4
:100020000C949F000C949F000C949F000C949F00D4
:100030000C949F000C949F000C949F000C949F00C4
:100040000C949F000C9456050C949F000C949F00F8
:100050000C949F000C9464060C949F000C949F00D9
:100060000C949F000C949F000C949F000C949F0094
:100070000C949F000C949F000C949F000C949F0084
:100080000C949F000C949F000C949F000C949F0074
:100090000C949F000C949F000C949F000C949F0064
:1000A0000C949F000C949F000C949F000C949F0054
:1000B0000C949F000C949F000C949F000C949F0044
:1000C0000C949F000C949F000C949F000C949F0034
:1000D0000C949F000C949F000C949F000C949F0024
:1000E0000C949F000C94FB020C941E020C94B9001B
:1000F0000C944D070C94A1000C94170411241FBEFE
:10010000CFEFD1E2DEBFCDBF00E00CBF14E0A0E036
:10011000B2E0ECE9F2E200E00BBF02C007900D9202
:10012000AC30B107D9F724E0ACE0B4E001C01D92D7
:10013000A631B207E1F70E949A0E0C944C110C9470
:100140000000EC01F0E0E4E220812068208307C099
:10015000F0E0E5E22081206820830E94FE068E8187
:100160009F810A97A8F3F0E0E5E220812F772083B2
:10017000F4CF7C019C01285F3F4F690180911004FE
:10018000909111040E94CE078EE50E94C90D6BE389
:1001900082E00E94920D8AE092E00E947C0AD701E0
:1001A0008D919C910E94E90A81E192E00E947C0A73
:1001B000F701828193810E94E90A80E20E94C90DC1
:1001C000D70114962D913C9149E152E06AE383E016
:1001D0000E94400EF701268137816BE3680F40E2F1
:1001E00052E083E00E94400E8FE50E94C90D6AE450
:1001F00084E00E94920D86E292E00E947C0A8601D1
:10020000C5E06AE48C2F0E94920D8FE292E00E947A
:100210007C0AD8018D919D918D010E94E90A8EE2A0
:1002200092E00E947C0ACF5FCF3059F76AE48FE0FA
:100230000E94920D81E392E00E947C0AF7014481C2
:100240005581475F5F4F9A01ADECBCEC0E94690F8E
:100250009C01369527953695279536952795C901A2
:10026000880F991F880F991F820F931F880F991F5E
:100270009A01281B390BC90168E48B5F0E94920D1B
:1002800088E792E00E947C0AD70114964D915C9118
:10029000159716968D919C91480F591F4150510901
:1002A0009A01ADECBCEC0E94690F9C013695279534
:1002B0003695279536952795C901880F991F880F80
:1002C000991F820F931F880F991FFA01E81BF90BE2
:1002D000CF0169E48B5F0E94920D88E792E00E9453
:1002E0007C0AD70114968C9168E48B5F0E94920D72
:1002F0008BE50E94C90D89E392E00E947C0AF70118
:100300004481558186819781480F591F9A01ADEC30
:10031000BCEC0E94690F9C01369527953695279570
:1003200036952795C901880F991F880F991F820F4D
:10033000931F880F991F9A01281B390BC90169E483
:100340008B5F0E94920D8CE50E94C90D8BE392E0B9
:100350000E947C0A8FE50E94C90D6AE481E10E9437
:10036000920D84E792E00E947C0A6FE381E10E9493
:10037000920D8DE392E00E947C0AD7019096ED9158
:10038000FC91808190E00E94E90A6AE482E10E9487
:10039000920D84E792E00E947C0A6FE382E10E9462
:1003A000920D86E492E00E947C0AD7019096ED912E
:1003B000FC91818190E00E94E90A8CE50E94C90DC0
:1003C0006AE483E10E94920D84E792E00E947C0A35
:1003D0006FE383E10E94920D8FE492E00E947C0A19
:1003E000D7015E96ED91FC918081082E000C990B4F
:1003F0000E94E90A8BE50E94C90D6AE484E10E942B
:10040000920D84E792E00E947C0A6FE384E10E94EF
:10041000920D8BE592E00E947C0AD7015C96ED91EB
:10042000FC918081082E000C990B0E94E90A8091B2
:100430001004909111040E94FC07A0CEEC0108EE7C
:1004400013E08E8D9F8D0E942B0888A199A10E9498
:10045000CE070E9404116C01EE80FF804C815D810B
:100460004E0D5F1D9A01ADECBCEC0E94690F9C0122
:10047000369527953695279536952795C901880F86
:10048000991F880F991F820F931F880F991FFA01D8
:10049000E81BF90B3496EE0FFF1FEC0FFD1FC60192
:1004A000B8010E94330F918380832FEFE21AF20A82
:1004B000FF82EE8288A199A10E94FC07809110041E
:1004C000909111040E94CE078CE50E94C90D4C81C9
:1004D0005D818E819F81480F591F425051099A01B9
:1004E000ADECBCEC0E94690F9C01369527953695C2
:1004F000279536952795C901880F991F880F991F51
:10050000820F931F880F991F9A01281B390BC9016D
:100510006EE38B5F0E94920D80E792E00E947C0A5E
:100520004C815D818E819F81480F591F4150510937
:100530009A01ADECBCEC0E94690F9C0136952795A1
:100540003695279536952795C901880F991F880FED
:10055000991F820F931F880F991F9A01281B390B2F
:10056000C9016EE38B5F0E94920D87E692E00E94C4
:100570007C0A4C815D818E819F81480F591F4150BB
:1005800051099A01ADECBCEC0E94690F9C013695B3
:1005900027953695279536952795C901880F991F78
:1005A000880F991F820F931F880F991FFA01E81B6C
:1005B000F90B3496EE0FFF1FEC0FFD1F8081918128
:1005C0000E94E90A80911004909111040E94FC0796
:1005D0008C8D9D8D0E945A0828813981ADECBCEC30
:1005E0000E94690F9695879596958795969587951C
:1005F0000E949F0626CFEC018C8D9D8D0E942B08BA
:1006000088A199A10E94CE074C815D814F5F5F4F09
:100610009A01ADECBCEC0E94690F9C0136952795C0
:100620003695279536952795C901880F991F880F0C
:10063000991F820F931F880F991F481B590B5D83C9
:100640004C838E819F8101979F838E8388A199A17E
:100650000E94FC0780911004909111040E94CE0723
:100660008BE50E94C90D4C815D81485F5F4F9A0107
:10067000ADECBCEC0E94690F9C0136952795369530
:10068000279536952795C901880F991F880F991FBF
:10069000820F931F880F991F9A01281B390BC901DC
:1006A0006CE38B5F0E94920D8EE692E00E947C0AC2
:1006B0004C815D81475F5F4F9A01ADECBCEC0E94BD
:1006C000690F9C0136952795369527953695279580
:1006D000C901880F991F880F991F820F931F880FD8
:1006E000991F9A01281B390BC9016CE38B5F0E948B
:1006F000920D8AE792E00E947C0A4C815D81475FFF
:100700005F4F9A01ADECBCEC0E94690F9C013695DD
:1007100027953695279536952795C901880F991FF6
:10072000880F991F820F931F880F991FFA01E81BEA
:10073000F90B3496EE0FFF1FEC0FFD1F80819181A6
:100740000E94E90A80911004909111040E94FC0714
:100750008E8D9F8D0E945A082A813B81ADECBCECA6
:100760000E94690F9695879596958795969587959A
:100770000E949F0641CFCF93DF93C2E3D0E017C022
:10078000823709F441C0853751F5E0910C04F091AE
:100790000D0482819381C29693838283208131816B
:1007A0002233310510F4D183C083C297E8F10E944F
:1007B000610A8823B1F10E94670A8A36C9F000F7FE
:1007C000863669F4E0910C04F0910D0420813181AA
:1007D000225331093183208382819381E1CFE091DB
:1007E0000C04F0910D042081318182819381D8CF56
:1007F000E0910C04F0910D0482819381C297938360
:10080000828320813181CCCFE0910C04F0910D04E2
:10081000208131812E5C3F4F3183208382819381FF
:10082000BFCFDF91CF910895D383C283C0CFEC01B6
:1008300080911004909111040E94CE07CE010E9475
:10084000BA0980911004909111040E94FC070E9443
:10085000BB030E94FE06ECCFF0E0E4E220812068BA
:1008600020830895F0E0E5E2208120682083089548
:10087000F0E0E5E220812F7720830895CF92DF9288
:10088000EF92FF920F931F93CF93DF938B016A0137
:100890007901C0910E04D0910F04FE01E757FF4F7C
:1008A000208131E1239FC00DD11D1124FE018193D0
:1008B00091936A831183C7018D960E94940F9F8341
:1008C0008E83FC01EE0DFF1DCF018D9699878887E1
:1008D0007796FD83EC8381E08A871B861C861D86C4
:1008E0001E861F86188A80E1DF011D928A95E9F72E
:1008F0008DE497E0858B948B138A028B118BC08AD1
:10090000D786E0910E04F0910F04E757FF4F8081E6
:100910008F5F8083DF91CF911F910F91FF90EF90B8
:10092000DF90CF9008951F93CF93DF93E0910E0453
:10093000F0910F04DF01A757BF4F8C91882341F13D
:100940009F0191E1899F200D311D1124EF01C257B4
:10095000DF4F11E004C07196E217F307C9F08285FA
:100960008230C9F745855685678570898881998168
:10097000AA81BB8184179507A607B70760F3158680
:1009800016861786108A12877196E217F30739F7D1
:10099000DF91CF911F910895FF920F931F93CF93F3
:1009A000DF930E94930400910E0410910F04F8014C
:1009B000E857FF4F40813196C081D0E0842F90E00E
:1009C0000196BE010E94330F91E1F92E07C0C901C3
:1009D0000196BE010E94330F481751F0282F30E0D6
:1009E000F801F89EE00DF11D11249285923078F700
:1009F000DF91CF911F910F91FF9008952F923F9219
:100A00004F925F926F927F928F929F92AF92BF921E
:100A1000CF92DF92EF92FF920F931F93CF93DF93CA
:100A2000F0E0EDE52080EEE53080FB0121923082A0
:100A3000FC0121903080F0E0EDE52082EEE530828F
:100A4000DF91CF911F910F91FF90EF90DF90CF90AA
:100A5000BF90AF909F908F907F906F905F904F90DE
:100A60003F902F900895CF93DF93E0910E04F09183
:100A70000F04EF01CD56DF4FDF01AE56BF4F8C9113
:100A800088831C9219978C91882369F09F0191E1CA
:100A9000899F200D311D11248385848713867196CB
:100AA000E217F307C9F7DF91CF9108951F920F92D4
:100AB0000FB60F9211240BB60F922F933F938F9383
:100AC0009F93AF93BF93CF93DF93EF93FF93E09107
:100AD0000E04F0910F04EF01C657DF4F8881998112
:100AE000AA81BB810196A11DB11D88839983AA8328
:100AF000BB832996DF01AE56BF4F8C9188831C9231
:100B000019978C91882369F09F0191E1899F200DAD
:100B1000311D11248385848713867196E217F307AC
:100B2000C9F7FF91EF91DF91CF91BF91AF919F9165
:100B30008F913F912F910F900BBE0F900FBE0F9092
:100B40001F901895EEE6F0E080818260808384B586
:100B5000826084BD85B5856085BD8CE987BD89E0EF
:100B60009DE39093890080938800EFE6F0E0808118
:100B700082608083E1E8F0E080818D608083089569
:100B8000F8940E94A205F89484E990E00E94940FE2
:100B9000FC0190930F0480930E04DC01A857BF4F13
:100BA0001C92119681E08C9311961D921D921D92BC
:100BB0001C92139714961D921D921D921C921397CE
:100BC00081EB92E0918380831382128217821682D6
:100BD0008FEF91E2918780871582148212861386A7
:100BE0001486158616861786108A14961C921196FE
:100BF0001C92CF010895F8940E94A205F89484E90C
:100C000090E00E94940F90930F0480930E04FC01D7
:100C1000E857FF4F2FEF20833196108231961082D4
:100C200011821282138234961082118212821382F0
:100C300034961082319610820895E0910E04F0915E
:100C40000F04E857FF4F808190E0089520910E0433
:100C500030910F0441E1682F70E0F901489FE00DE9
:100C6000F11D112493859F5F9387F901EE56FF4F85
:100C700090819F5F90833A979081981721F18083AC
:100C8000F901499FE00DF11D11244285411102C077
:100C900041E0428741E1469FF001479FF00D11245A
:100CA000E20FF31F1286B901949F600D711D11248C
:100CB0006C5F7F4FF901849FE00DF11D1124CF017E
:100CC00004960E94FE0408951F920F920FB60F9291
:100CD00011240BB60F922F933F934F935F936F9313
:100CE0007F938F939F93AF93BF93EF93FF93E09185
:100CF0000E04F0910F04E257FF4F80819181A28191
:100D0000B3810A96A11DB11D80839183A283B38311
:100D10000E94CC040E942606FF91EF91BF91AF91F3
:100D20009F918F917F916F915F914F913F912F9103
:100D30000F900BBE0F900FBE0F901F9018950F9342
:100D40001F93CF93DF93009729F4DF91CF911F91E9
:100D50000F910895F89420910E0430910F04F90139
:100D6000E857FF4F4081C1E1B901C49F600D711D7B
:100D70001124AB0136969C01220F331F220F331F23
:100D8000820F931F880F991F008111812281338167
:100D9000080F191F211D311DFA01058716872787A6
:100DA000308B82E082870E94CC0420910E04309127
:100DB0000F04F901E857FF4F9081981741F00E9406
:100DC00026067894DF91CF911F910F910895C89FC7
:100DD000E00111242C0F3D1FF9019285923078F328
:100DE000789401C00000E0910E04F0910F04EC0F24
:100DF000FD1F92859230B0F7F894E1CFF8940E94ED
:100E0000CC040E942606789408950F931F93CF93E5
:100E1000DF931F921F92CDB7DEB700910E041091A1
:100E20000F0408571F4FF80180818F3F49F00E943F
:100E3000FE060F900F90DF91CF911F910F910895B3
:100E40000E94CC04F801808380910E0490910F04DD
:100E5000FC01E857FF4F2081F1E12F9F9001112401
:100E6000FC01E20FF31F128643854F5F4387FC01AD
:100E7000EE56FF4F40814F5F40832C5F3F4FBE01D6
:100E80006F5F7F4F820F931F0E94FE040F900F90A1
:100E9000DF91CF911F910F9108957894F101C201D4
:100EA0000994F89480910E0490910F04FC01E85786
:100EB000FF4F208131E1239F800D911D112424E0FB
:100EC000FC0122870E94FE06CF93C82FCB018D968E
:100ED0000E94940FE0910E04F0910F0421E1C29F53
:100EE000E00DF11D112497838683CF910895F89426
:100EF000A0910E04B0910F04FD01E757FF4FE08170
:100F0000F1E1EF9FA00DB11D1124FD01819391939B
:100F100012966C93129771831696ED91FC91179728
:100F2000E20FF31FCF018D9619969C938E9318971D
:100F300077961596FC93EE93149781E01A968C930E
:100F40001A971B961C921B971C961C921C971D9619
:100F50001D921D921D921C92509780E1DF011D92FF
:100F60008A95E9F78DE497E0858B948B138A628BE1
:100F7000718B408B5787E0910E04F0910F04E75777
:100F8000FF4F80818F5F808378940895FC011082E9
:100F9000118213861286158614860895CF93DF93E7
:100FA000EC01F8940E941D069881911107C091E010
:100FB000988389837894DF91CF9108952C853D851E
:100FC000EA85FB85E20FF31FE770FF27EC0FFD1F9B
:100FD00082832F5F3F4F3D872C87E0910E04F09175
:100FE0000F0491E1899FE00DF11D112483E08287B8
:100FF000DF91CF910C94FE06FC01F89484859585D1
:10100000009721F410821182789408952285338507
:10101000DF01A20FB31F12964C912F5F3F4F277035
:101020003327338722870197958784874183E0910F
:101030000E04F0910F0481E1489FE00DF11D112491
:1010400081E0828778940895FC016083128611867E
:10105000148613860895CF93DF93EC01F89488816A
:10106000181634F4815088837894DF91CF910895D5
:10107000815088830E941D062B853C85E985FA8571
:10108000E20FF31FE770FF27EC0FFD1F81832F5F37
:101090003F4F3C872B87E0910E04F0910F0491E1C4
:1010A000899FE00DF11D112483E08287DF91CF91AC
:1010B0000C94FE06FC01F89490819F5F90831916B2
:1010C00014F4789408952385348521153105C9F3E6
:1010D00081859285DF01A80FB91F11964C91019669
:1010E0008770992792878187215031093487238718
:1010F000E0910E04F0910F0481E1489FE00DF11D95
:10110000112481E0828778940895FC01F8949081FD
:101110009F5F9083191614F478940895238534857D
:1011200021153105C9F341855285DF01A40FB51F93
:1011300011968C914F5F5F4F4770552752874187BB
:1011400021503109348723870E9426067894089518
:10115000FF920F931F93CF93DF93F82E162F042F38
:10116000E90180911004909111040E94CE078F2D07
:101170000E94C90D602F812F0E94920DCE010E9406
:101180007C0A8091100490911104DF91CF911F91FE
:101190000F91FF900C94FC078F929F92AF92BF9299
:1011A000CF92DF92EF92FF920F931F93CF93DF9333
:1011B000CDB7DEB761970FB6F894DEBF0FBECDBFD7
:1011C00089829A82AB82BC82CD82DE82EF82F886EF
:1011D00009871A872B874D875E876F87788B898B66
:1011E000CD80DE80EF80F88409851A858FE10E942A
:1011F000C90D86EB92E00E947C0A8BE50E94C90D26
:1012000089819A810E947C0A80E20E94C90D8EEB3E
:1012100092E00E947C0A8CE50E94C90D8B819C8122
:101220000E94EF0C81E20E94C90D8DEC92E00E94B9
:101230007C0A8DE50E94C90DC8018C199D090E9488
:10124000E90A82E20E94C90D8EED92E00E947C0ABA
:101250008EE50E94C90DC8018E199F090E94E90AF6
:1012600083E20E94C90D8EEE92E00E947C0A8EE518
:101270000E94C90D8FE50E94C90DC6010E94EF0CA6
:1012800084E20E94C90D80E093E00E947C0A80E61F
:101290000E94C90DC7010E94EF0C85E20E94C90D92
:1012A00080E193E00E947C0A81E60E94C90DC8019A
:1012B0000E94EF0C8FE10E94C90D8DE193E00E9426
:1012C0007C0A8BE50E94C90D8B85813009F44DC0E5
:1012D00008F446C08230D1F18330E9F580E693E02E
:1012E0000E947C0A80E20E94C90D80E893E00E947F
:1012F0007C0A8CE50E94C90D6E857F858889998955
:101300000E94400C81E20E94C90D81E993E00E9495
:101310007C0A8DE50E94C90D8D8590E00E94280B06
:1013200087EF93E061960FB6F894DEBF0FBECDBF96
:10133000DF91CF911F910F91FF90EF90DF90CF90B1
:10134000BF90AF909F908F900C947C0A80E593E0C3
:101350000E947C0AC7CF80E793E00E947C0AC2CF3C
:1013600080E393E00E947C0ABDCF80E493E00E947A
:101370007C0AB8CF4F925F926F927F928F929F922A
:10138000AF92BF92CF92DF92EF92FF920F931F9393
:10139000CF93DF93EC0161E081E00E94920D84E243
:1013A0000E94C90D87EA93E00E947C0A83EB93E0D8
:1013B0000E947C0AFE01E657FF4F608171818281A5
:1013C00093810E94C00B81EC93E00E947C0AFE0195
:1013D000E257FF4F60817181828193810E94C00B2F
:1013E00086EC93E00E947C0A8AEC93E00E947C0ADF
:1013F0003E0189E8680E711CF301808190E00E9433
:10140000E90A80EE93E00E947C0AFE01ED56FF4F50
:10141000808190E00E94280B85EF93E00E947C0A77
:10142000F3018081882371F1512C81E1482E84E2FF
:101430000E94C90D8AEF93E00E947C0A052D10E0FE
:10144000C8010E94E90A409EF001419EF00D11245E
:10145000EC0FFD1F80809180A280B380C480D58076
:10146000E680F78000851185228533854485558582
:101470006685778580890E94CC085394F30180812A
:101480005816A8F2DF91CF911F910F91FF90EF9026
:10149000DF90CF90BF90AF909F908F907F906F9094
:1014A0005F904F90089582E08093C0001092C50035
:1014B00080E18093C400E1ECF0E08081886180836A
:1014C00008958091C000881F8827881F0895809103
:1014D000C00087FF03C08091C60008958FEF089574
:1014E0009091C10095FDFCCF9091C00095FFF8CF81
:1014F0008093C60081E00895DC012C91222399F0AD
:10150000FC0131969091C10095FDFCCF9091C000F7
:1015100095FFF8CF2093C600CF018A1B9B0B21912A
:101520002111F0CF089590E080E00895FC019091A2
:10153000C10095FDFCCF8091C00085FFF8CF8BE105
:101540008093C6009091C10095FDFCCF8091C000B2
:1015500085FFF8CF8BE58093C6002081222371F0B0
:1015600031969091C10095FDFCCF9091C00095FF00
:10157000F8CF2093C60021912111F3CF08950F9346
:101580001F93CF93DF93382F292FC5E0D0E0E0E100
:10159000F7E20AE010E0832F922FBF010E941F0F95
:1015A000605D2091C10025FDFCCF2091C00025FF8A
:1015B000F8CF6093C600382F292FCF01B8010E94C1
:1015C000330FFB01219739F7DF91CF911F910F91D5
:1015D00008950F931F93CF93DF939C01C5E0D0E054
:1015E000E0E1F7E20AE010E0C901BF010E941F0F2D
:1015F000672B81F4E130F10569F09C01CF01B8015E
:101600000E94330FFB01219779F7DF91CF911F9152
:101610000F910895CAE0D0E0C901BF010E941F0FD9
:10162000605D2091C10025FDFCCF2091C00025FF09
:10163000F8CF6093C6009C01CF01BE010E94330F1A
:10164000FB01309749F7DF91CF911F910F910895DA
:101650000F931F93CF93DF939C01C5E0D0E0E0E1AF
:10166000F7E240E20AE010E0C901BF010E941F0F4B
:10167000672BD1F4E130F105B9F02091C10025FDCF
:10168000FCCF2091C00025FFF8CF4093C6009C01FD
:10169000CF01B8010E94330FFB01219729F7DF9199
:1016A000CF911F910F910895CAE0D0E0C901BF0109
:1016B0000E941F0F605D2091C10025FDFCCF20918D
:1016C000C00025FFF8CF6093C6009C01CF01BE018A
:1016D0000E94330FFB01309749F7DF91CF911F91A3
:1016E0000F9108956F927F928F929F92AF92BF92C7
:1016F000CF92DF92EF92FF920F931F93CF93DF93DE
:101700003B01D82FC92F0AE010E0C12C8AECD82E5B
:101710008AE9E82E8BE3F82E9AE0892E912CA12CF1
:10172000B12CB3018D2F9C2FA70196010E94470F6A
:10173000205D3091C10035FDFCCF3091C00035FFF8
:10174000F8CF2093C6003B01D82FC92FC701B6019F
:10175000A50194010E94470F69017A010150110906
:1017600001F7DF91CF911F910F91FF90EF90DF90E4
:10177000CF90BF90AF909F908F907F906F90089583
:101780004F925F926F927F928F929F92AF92BF9291
:10179000CF92DF92EF92FF920F931F93CF93DF933D
:1017A000C62F172F082FD92F9AE0A92EB12CC12CA4
:1017B0002AECD22E2AE9E22E2BE3F22E3AE0432E37
:1017C000512C612C712C6C2F712F802F9D2FA70114
:1017D00096010E94470F232B242B252B39F521E05E
:1017E000C216D104E104F10409F1C62F172F082F06
:1017F000D92FC701B601A30192010E94470F6901C9
:101800007A0181E0A81AB108F1F6DF91CF911F911A
:101810000F91FF90EF90DF90CF90BF90AF909F908F
:101820008F907F906F905F904F9008958AE0882E00
:10183000912CA12CB12C6C2F712F802F9D2FA701E3
:1018400096010E94470F205D3091C10035FDFCCF0D
:101850003091C00035FFF8CF2093C600C62F172F58
:10186000082FD92FC701B601A50194010E94470F87
:1018700069017A01C114D104E104F104E1F6C5CF94
:101880004F925F926F927F928F929F92AF92BF9290
:10189000CF92DF92EF92FF920F931F93CF93DF933C
:1018A000EB01182F092F9AE0A92EB12CC12C2AEC9C
:1018B000D22E2AE9E22E2BE3F22E30E2932E4AE0DA
:1018C000442E512C612C712CBE01812F902FA70129
:1018D00096010E94470F232B242B252B81F521E015
:1018E000C216D104E104F10451F12091C10025FD9B
:1018F000FCCF2091C00025FFF8CF9092C600EB01ED
:10190000182F092FC701B601A30192010E94470FAA
:1019100069017A0181E0A81AB108B1F6DF91CF918F
:101920001F910F91FF90EF90DF90CF90BF90AF90FD
:101930009F908F907F906F905F904F9008958AE076
:10194000882E912CA12CB12CBE01812F902FA701A4
:1019500096010E94470F205D3091C10035FDFCCFFC
:101960003091C00035FFF8CF2093C600EB01182F4F
:10197000092FC701B601A50194010E94470F690113
:101980007A01C114D104E104F104F1F6C7CFBC011E
:1019900044E09B01232F332722952F702A303105F5
:1019A000A0F4205D9091C10095FDFCCF9091C00006
:1019B00095FFF8CF2093C60062957295707F7627C9
:1019C000607F7627415029F70895295C9091C100E6
:1019D00095FDFCCF9091C00095FFF8CFEBCFBC01F7
:1019E000E9E0F4E020E39091C10095FDFCCF9091F7
:1019F000C00095FFF8CF2093C60021912111F3CFAD
:101A000044E080E09B01232F332722952F70811122
:101A10000EC02115310559F4413039F162957295A6
:101A2000707F7627607F7627415061F70895822F77
:101A30002A30310568F4805D9091C10095FDFCCF9E
:101A40009091C00095FFF8CF8093C60081E0E6CF6B
:101A5000295C9091C10095FDFCCF9091C00095FF4D
:101A6000F8CF2093C60081E0D9CF80E0E4CFAB016E
:101A7000BC01E9E0F4E090E38091C10085FDFCCF7A
:101A80008091C00085FFF8CF9093C600919191118D
:101A9000F3CF28E030E018C00097A105B105F9F4B4
:101AA000213089F1440F551F661F771F440F551FC2
:101AB000661F771F440F551F661F771F440F551F62
:101AC000661F771F215069F1DB01CA01ECE1B69571
:101AD000A79597958795EA95D1F73323E9F2382FA3
:101AE0008A309105A105B10578F097E3980F8091B0
:101AF000C10085FDFCCF8091C00085FFF8CF909399
:101B0000C60031E0CFCF30E0305D8091C10085FD6F
:101B1000FCCF8091C00085FFF8CF3093C60031E044
:101B2000C1CF0895CF93C62F9091C10095FDFCCFF2
:101B30009091C00095FFF8CF9BE19093C6009091E3
:101B4000C10095FDFCCF9091C00095FFF8CF9BE5BB
:101B50009093C60090E00E94E90A8091C10085FD43
:101B6000FCCF8091C00085FFF8CF8BE38093C60047
:101B70008C2F90E00E94E90A8091C10085FDFCCF86
:101B80008091C00085FFF8CF86E68093C600CF9194
:101B900008959091C10095FDFCCF9091C00095FFF4
:101BA000F8CF9BE19093C6009091C10095FDFCCFCA
:101BB0009091C00095FFF8CF9BE59093C60090E010
:101BC0000E94E90A8091C10085FDFCCF8091C00090
:101BD00085FFF8CF8DE68093C60008958091C100FF
:101BE00085FDFCCF8091C00085FFF8CF8BE180930D
:101BF000C6008091C10085FDFCCF8091C00085FFAB
:101C0000F8CF8BE58093C6008091C10085FDFCCFA5
:101C10008091C00085FFF8CF82E38093C600809159
:101C2000C10085FDFCCF8091C00085FFF8CF8AE41C
:101C30008093C60061E081E00C94920D8091C10018
:101C400085FDFCCF8091C00085FFF8CF8BE18093AC
:101C5000C6008091C10085FDFCCF8091C00085FF4A
:101C6000F8CF8BE58093C6008091C10085FDFCCF45
:101C70008091C00085FFF8CF88E48093C600089566
:101C80000F931F93CF93DF938A01E9010E94920D76
:101C9000F80190819923E9F031968091C10085FD8A
:101CA000FCCF8091C00085FFF8CF9093C6009F01C4
:101CB000201B310B91919111F0CF89010B5F1F4FC8
:101CC000CE010E94280BC801DF91CF911F910F9187
:101CD000089505E010E0F4CF0F931F93CF93DF93A7
:101CE0008A01E9010E94920DF80190819923F9F08F
:101CF00031968091C10085FDFCCF8091C00085FFA9
:101D0000F8CF9093C6009F01201B310B9191911148
:101D1000F0CF8901065F1F4FBE0190E080E00E9476
:101D2000400CC801DF91CF911F910F9108950AE0F7
:101D300010E0F2CF0E94C0058C010E94530A0E945D
:101D4000EE0D8EE090E00E94940F9093110480932A
:101D500010040E94C60762E270E081E090E00E94F9
:101D6000780FEC0190930D0480930C0488EE93E0BF
:101D7000998388839B838A831D821C821F821E8293
:101D80008DE090E00E94940F9D8F8C8F60E00E9408
:101D90002408C0910C04D0910D048DE090E00E94C5
:101DA000940F9F8F8E8F6AE00E942408C0910C04CC
:101DB000D0910D048EE090E00E94940F99A388A327
:101DC0000E94C60728EE33E0A80167E174E083E8CB
:101DD00092E00E943E0440910C0450910D0428EEC4
:101DE00033E069EB70E089E892E00E943E044091A4
:101DF0000C0450910D0425E030E06EE172E089E9B9
:101E000092E00E943E0440910C0450910D0425E0A4
:101E100030E06BEF72E082EA92E00E943E04409173
:101E20000C0450910D0430E020E061EA70E08BEA90
:101E300092E00E943E040E9405077894FFCFAA1BFF
:101E4000BB1B51E107C0AA1FBB1FA617B70710F0A5
:101E5000A61BB70B881F991F5A95A9F780959095D7
:101E6000BC01CD01089597FB072E16F4009407D00E
:101E700077FD09D00E941F0F07FC05D03EF4909516
:101E800081959F4F0895709561957F4F0895A1E2C8
:101E90001A2EAA1BBB1BFD010DC0AA1FBB1FEE1FE4
:101EA000FF1FA217B307E407F50720F0A21BB30B2F
:101EB000E40BF50B661F771F881F991F1A9469F7AB
:101EC00060957095809590959B01AC01BD01CF0107
:101ED0000895A29FB001B39FC001A39F700D811D03
:101EE0001124911DB29F700D811D1124911D089523
:101EF0000F931F93CF93DF93869F8001879F100DD1
:101F0000969F100D1124C8010E94940FEC010097B8
:101F100029F0A80170E060E00E941311CE01DF916A
:101F2000CF911F910F9108950F931F93CF93DF933C
:101F30008230910510F482E090E0E0911404F09179
:101F4000150430E020E0B0E0A0E0309799F42115CE
:101F5000310509F44AC0281B390B24303105D8F566
:101F60008A819B816115710589F1FB0193838283CD
:101F7000FE0111C040815181028113814817590728
:101F8000E0F04817590799F4109761F012960C93F6
:101F9000129713961C933296CF01DF91CF911F9128
:101FA0000F9108950093140410931504F4CF211594
:101FB000310551F04217530738F0A901DB019A01AE
:101FC000BD01DF01F801C1CFEF01F9CF90931504F6
:101FD00080931404CDCFFE01E20FF31F8193919300
:101FE0002250310939832883D7CF209112043091B0
:101FF0001304232B41F42091020230910302309309
:102000001304209312042091000230910102211543
:10201000310541F42DB73EB74091040250910502BD
:10202000241B350BE0911204F0911304E217F3071F
:10203000A0F42E1B3F0B2817390778F0AC014E5F38
:102040005F4F2417350748F04E0F5F1F509313045E
:1020500040931204819391939FCFF0E0E0E09CCFF6
:10206000CF93DF930097E9F0FC013297138212823D
:10207000A0911404B0911504ED0130E020E0109718
:10208000A1F420813181820F931F2091120430919D
:1020900013042817390709F061C0F0931304E09383
:1020A0001204DF91CF910895EA01CE17DF07E8F51A
:1020B0004A815B819E0141155105B1F7E901FB831E
:1020C000EA8349915991C40FD51FEC17FD0761F4BC
:1020D000808191810296840F951FE90199838883FD
:1020E000828193819B838A83F0E0E0E012968D9158
:1020F0009C9113970097B9F52D913C911197CD01C3
:102100000296820F931F2091120430911304281716
:10211000390739F6309751F51092150410921404CE
:10212000B0931304A0931204BCCFD383C283408125
:102130005181840F951FC817D90761F44E5F5F4F17
:1021400088819981480F591F518340838A819B81DF
:10215000938382832115310509F0B0CFF0931504E4
:10216000E09314049ECFFD01DC01C0CF13821282E4
:10217000D7CF8F929F92AF92BF92CF92DF92EF9282
:10218000FF92CF93DF93EC01688179818A819B81F3
:10219000611571058105910521F464E279ED8BE506
:1021A00097E02DE133EF41E050E00E941A11490120
:1021B0005A019B01AC01A7EAB1E40E9439116B01FD
:1021C0007C01ACEEB4EFA50194010E944711DC0143
:1021D000CB018C0D9D1DAE1DBF1DB7FF03C0019728
:1021E000A109B04888839983AA83BB839F77DF9135
:1021F000CF91FF90EF90DF90CF90BF90AF909F90E6
:102200008F9008950C94B91086E092E00C94B91068
:10221000B0E0A0E08093060290930702A09308022A
:10222000B09309020895DC0101C06D934150504004
:10223000E0F70895052E97FB1EF400940E943111DB
:1022400057FD07D00E94470F07FC03D04EF40C94B3
:10225000311150954095309521953F4F4F4F5F4F2D
:10226000089590958095709561957F4F8F4F9F4F02
:1022700008950E94690FA59F900DB49F900DA49F93
:10228000800D911D11240895B7FF0C9439110E94FF
:0C2290003911821B930B0895F894FFCFC6
:10229C000000160420000100000050726F643A2008
:1022AC000020436F6E733A200053544152543A004D
:1022BC0053495A453A005F5F5F5F5F5F5F00097C7F
:1022CC00007C5F5F5F5F5F7C003C003E004C6F6397
:1022DC006B65643A20004F776E65723A2020004E91
:1022EC006F742046756C6C3A2020004E6F7420453C
:1022FC006D7074793A2000414444454420002020FC
:10230C002020202020202020200052454D4F5645D3
:10231C00442000737461747300646973706C617928
:10232C0020627566666665720070726F64756365AF
:10233C007200636F6E73756D657200626C696E6BA3
:10234C00006D61696E00094E616D653A09000D0AF8
:10235C00095468726561642050433A09000D0A09FA
:10236C00537461636B2055736167653A09000D0AFC
:10237C0009537461636B2053697A653A09000D0A3D
:10238C000943757220537461636B5074723A09007F
:10239C000D0A09537461636B20426173653A09003D
:1023AC0009537461636B20456E643A20000D0A0971
:1023BC00546872656164205374617475733A0900D2
:1023CC005448524541442052554E4E494E472000E8
:1023DC005448524541442052454144592020200044
:1023EC0054485245414420534C454550494E4700B2
:1023FC005448524541442057414954494E472000C6
:10240C00554E5245434F474E495A454420202000D3
:10241C000D0A0957616B6575702054696D653A201A
:10242C00000D0A095363686564756C6520436F750C
:10243C006E743A2020200050726F6772616D2033E9
:10244C000D0A0053797374656D2054696D653A20DB
:10245C000073200928006D7329000D0A4E756D62FA
:10246C006572206F6620546872656164733A20004F
:10247C000D0A537761707320506572205365636F3A
:10248C006E643A20000D0A0D0A000D0A546872653C
:0C249C0061642049443A200030780000C0
:00000001FF
